{
  "_format": "hh-sol-artifact-1",
  "contractName": "SupplyChainContract",
  "sourceName": "blockchain/contracts/SupplyChainContract.sol",
  "abi": [
    {
      "inputs": [
        {
          "internalType": "address",
          "name": "_batchContract",
          "type": "address"
        },
        {
          "internalType": "address",
          "name": "_nodeContract",
          "type": "address"
        }
      ],
      "stateMutability": "nonpayable",
      "type": "constructor"
    },
    {
      "inputs": [],
      "name": "AccessControlBadConfirmation",
      "type": "error"
    },
    {
      "inputs": [
        {
          "internalType": "address",
          "name": "account",
          "type": "address"
        },
        {
          "internalType": "bytes32",
          "name": "neededRole",
          "type": "bytes32"
        }
      ],
      "name": "AccessControlUnauthorizedAccount",
      "type": "error"
    },
    {
      "anonymous": false,
      "inputs": [
        {
          "indexed": true,
          "internalType": "uint256",
          "name": "batchId",
          "type": "uint256"
        },
        {
          "indexed": false,
          "internalType": "string",
          "name": "certificateType",
          "type": "string"
        },
        {
          "indexed": false,
          "internalType": "string",
          "name": "certificateHash",
          "type": "string"
        },
        {
          "indexed": false,
          "internalType": "uint256",
          "name": "timestamp",
          "type": "uint256"
        }
      ],
      "name": "CertificateAdded",
      "type": "event"
    },
    {
      "anonymous": false,
      "inputs": [
        {
          "indexed": true,
          "internalType": "uint256",
          "name": "batchId",
          "type": "uint256"
        },
        {
          "indexed": false,
          "internalType": "string",
          "name": "alertType",
          "type": "string"
        },
        {
          "indexed": false,
          "internalType": "string",
          "name": "message",
          "type": "string"
        },
        {
          "indexed": false,
          "internalType": "uint256",
          "name": "timestamp",
          "type": "uint256"
        }
      ],
      "name": "ComplianceAlertTriggered",
      "type": "event"
    },
    {
      "anonymous": false,
      "inputs": [
        {
          "indexed": true,
          "internalType": "uint256",
          "name": "batchId",
          "type": "uint256"
        },
        {
          "indexed": false,
          "internalType": "string",
          "name": "documentHash",
          "type": "string"
        },
        {
          "indexed": false,
          "internalType": "uint256",
          "name": "timestamp",
          "type": "uint256"
        }
      ],
      "name": "DocumentAdded",
      "type": "event"
    },
    {
      "anonymous": false,
      "inputs": [
        {
          "indexed": true,
          "internalType": "bytes32",
          "name": "role",
          "type": "bytes32"
        },
        {
          "indexed": true,
          "internalType": "bytes32",
          "name": "previousAdminRole",
          "type": "bytes32"
        },
        {
          "indexed": true,
          "internalType": "bytes32",
          "name": "newAdminRole",
          "type": "bytes32"
        }
      ],
      "name": "RoleAdminChanged",
      "type": "event"
    },
    {
      "anonymous": false,
      "inputs": [
        {
          "indexed": true,
          "internalType": "bytes32",
          "name": "role",
          "type": "bytes32"
        },
        {
          "indexed": true,
          "internalType": "address",
          "name": "account",
          "type": "address"
        },
        {
          "indexed": true,
          "internalType": "address",
          "name": "sender",
          "type": "address"
        }
      ],
      "name": "RoleGranted",
      "type": "event"
    },
    {
      "anonymous": false,
      "inputs": [
        {
          "indexed": true,
          "internalType": "bytes32",
          "name": "role",
          "type": "bytes32"
        },
        {
          "indexed": true,
          "internalType": "address",
          "name": "account",
          "type": "address"
        },
        {
          "indexed": true,
          "internalType": "address",
          "name": "sender",
          "type": "address"
        }
      ],
      "name": "RoleRevoked",
      "type": "event"
    },
    {
      "anonymous": false,
      "inputs": [
        {
          "indexed": true,
          "internalType": "uint256",
          "name": "batchId",
          "type": "uint256"
        },
        {
          "indexed": false,
          "internalType": "uint256",
          "name": "duration",
          "type": "uint256"
        },
        {
          "indexed": false,
          "internalType": "uint256",
          "name": "timestamp",
          "type": "uint256"
        }
      ],
      "name": "SupplyChainJourneyCompleted",
      "type": "event"
    },
    {
      "anonymous": false,
      "inputs": [
        {
          "indexed": true,
          "internalType": "uint256",
          "name": "batchId",
          "type": "uint256"
        },
        {
          "indexed": true,
          "internalType": "address",
          "name": "manufacturer",
          "type": "address"
        },
        {
          "indexed": false,
          "internalType": "uint256",
          "name": "timestamp",
          "type": "uint256"
        }
      ],
      "name": "SupplyChainJourneyStarted",
      "type": "event"
    },
    {
      "inputs": [],
      "name": "AUDITOR_ROLE",
      "outputs": [
        {
          "internalType": "bytes32",
          "name": "",
          "type": "bytes32"
        }
      ],
      "stateMutability": "view",
      "type": "function"
    },
    {
      "inputs": [],
      "name": "DEFAULT_ADMIN_ROLE",
      "outputs": [
        {
          "internalType": "bytes32",
          "name": "",
          "type": "bytes32"
        }
      ],
      "stateMutability": "view",
      "type": "function"
    },
    {
      "inputs": [],
      "name": "LOGISTICS_ROLE",
      "outputs": [
        {
          "internalType": "bytes32",
          "name": "",
          "type": "bytes32"
        }
      ],
      "stateMutability": "view",
      "type": "function"
    },
    {
      "inputs": [],
      "name": "MANUFACTURER_ROLE",
      "outputs": [
        {
          "internalType": "bytes32",
          "name": "",
          "type": "bytes32"
        }
      ],
      "stateMutability": "view",
      "type": "function"
    },
    {
      "inputs": [],
      "name": "SUPPLIER_ROLE",
      "outputs": [
        {
          "internalType": "bytes32",
          "name": "",
          "type": "bytes32"
        }
      ],
      "stateMutability": "view",
      "type": "function"
    },
    {
      "inputs": [
        {
          "internalType": "uint256",
          "name": "_batchId",
          "type": "uint256"
        },
        {
          "internalType": "string",
          "name": "_certificateType",
          "type": "string"
        },
        {
          "internalType": "string",
          "name": "_certificateHash",
          "type": "string"
        },
        {
          "internalType": "uint256",
          "name": "_expiryDate",
          "type": "uint256"
        }
      ],
      "name": "addBatchCertificate",
      "outputs": [],
      "stateMutability": "nonpayable",
      "type": "function"
    },
    {
      "inputs": [
        {
          "internalType": "uint256",
          "name": "_batchId",
          "type": "uint256"
        },
        {
          "internalType": "string",
          "name": "_documentHash",
          "type": "string"
        }
      ],
      "name": "addBatchDocument",
      "outputs": [],
      "stateMutability": "nonpayable",
      "type": "function"
    },
    {
      "inputs": [
        {
          "internalType": "uint256",
          "name": "",
          "type": "uint256"
        },
        {
          "internalType": "uint256",
          "name": "",
          "type": "uint256"
        }
      ],
      "name": "batchCertificates",
      "outputs": [
        {
          "internalType": "string",
          "name": "certificateType",
          "type": "string"
        },
        {
          "internalType": "string",
          "name": "certificateHash",
          "type": "string"
        },
        {
          "internalType": "uint256",
          "name": "issuedDate",
          "type": "uint256"
        },
        {
          "internalType": "uint256",
          "name": "expiryDate",
          "type": "uint256"
        },
        {
          "internalType": "address",
          "name": "issuer",
          "type": "address"
        },
        {
          "internalType": "bool",
          "name": "isValid",
          "type": "bool"
        }
      ],
      "stateMutability": "view",
      "type": "function"
    },
    {
      "inputs": [],
      "name": "batchContract",
      "outputs": [
        {
          "internalType": "contract BatchContract",
          "name": "",
          "type": "address"
        }
      ],
      "stateMutability": "view",
      "type": "function"
    },
    {
      "inputs": [
        {
          "internalType": "uint256",
          "name": "",
          "type": "uint256"
        },
        {
          "internalType": "uint256",
          "name": "",
          "type": "uint256"
        }
      ],
      "name": "batchDocuments",
      "outputs": [
        {
          "internalType": "string",
          "name": "",
          "type": "string"
        }
      ],
      "stateMutability": "view",
      "type": "function"
    },
    {
      "inputs": [
        {
          "internalType": "uint256",
          "name": "_batchId",
          "type": "uint256"
        }
      ],
      "name": "checkComplianceAlerts",
      "outputs": [],
      "stateMutability": "nonpayable",
      "type": "function"
    },
    {
      "inputs": [
        {
          "internalType": "uint256",
          "name": "",
          "type": "uint256"
        }
      ],
      "name": "completedJourneys",
      "outputs": [
        {
          "internalType": "bool",
          "name": "",
          "type": "bool"
        }
      ],
      "stateMutability": "view",
      "type": "function"
    },
    {
      "inputs": [
        {
          "internalType": "string",
          "name": "_productType",
          "type": "string"
        },
        {
          "internalType": "uint256",
          "name": "_quantity",
          "type": "uint256"
        },
        {
          "internalType": "string",
          "name": "_origin",
          "type": "string"
        },
        {
          "internalType": "string",
          "name": "_metadataURI",
          "type": "string"
        },
        {
          "internalType": "string",
          "name": "_finalDestination",
          "type": "string"
        },
        {
          "internalType": "uint256[]",
          "name": "_requiredNodeIds",
          "type": "uint256[]"
        }
      ],
      "name": "createSupplyChainJourney",
      "outputs": [
        {
          "internalType": "uint256",
          "name": "",
          "type": "uint256"
        }
      ],
      "stateMutability": "nonpayable",
      "type": "function"
    },
    {
      "inputs": [
        {
          "internalType": "address",
          "name": "",
          "type": "address"
        },
        {
          "internalType": "uint256",
          "name": "",
          "type": "uint256"
        }
      ],
      "name": "entityCertificates",
      "outputs": [
        {
          "internalType": "string",
          "name": "certificateType",
          "type": "string"
        },
        {
          "internalType": "string",
          "name": "certificateHash",
          "type": "string"
        },
        {
          "internalType": "uint256",
          "name": "issuedDate",
          "type": "uint256"
        },
        {
          "internalType": "uint256",
          "name": "expiryDate",
          "type": "uint256"
        },
        {
          "internalType": "address",
          "name": "issuer",
          "type": "address"
        },
        {
          "internalType": "bool",
          "name": "isValid",
          "type": "bool"
        }
      ],
      "stateMutability": "view",
      "type": "function"
    },
    {
      "inputs": [
        {
          "internalType": "uint256",
          "name": "_batchId",
          "type": "uint256"
        }
      ],
      "name": "getBatchCertificates",
      "outputs": [
        {
          "components": [
            {
              "internalType": "string",
              "name": "certificateType",
              "type": "string"
            },
            {
              "internalType": "string",
              "name": "certificateHash",
              "type": "string"
            },
            {
              "internalType": "uint256",
              "name": "issuedDate",
              "type": "uint256"
            },
            {
              "internalType": "uint256",
              "name": "expiryDate",
              "type": "uint256"
            },
            {
              "internalType": "address",
              "name": "issuer",
              "type": "address"
            },
            {
              "internalType": "bool",
              "name": "isValid",
              "type": "bool"
            }
          ],
          "internalType": "struct SupplyChainContract.Certificate[]",
          "name": "",
          "type": "tuple[]"
        }
      ],
      "stateMutability": "view",
      "type": "function"
    },
    {
      "inputs": [
        {
          "internalType": "uint256",
          "name": "_batchId",
          "type": "uint256"
        }
      ],
      "name": "getBatchDocuments",
      "outputs": [
        {
          "internalType": "string[]",
          "name": "",
          "type": "string[]"
        }
      ],
      "stateMutability": "view",
      "type": "function"
    },
    {
      "inputs": [
        {
          "internalType": "uint256",
          "name": "_batchId",
          "type": "uint256"
        }
      ],
      "name": "getRealTimeTracking",
      "outputs": [
        {
          "internalType": "uint256",
          "name": "currentNodeId",
          "type": "uint256"
        },
        {
          "internalType": "string",
          "name": "currentLocation",
          "type": "string"
        },
        {
          "internalType": "uint256",
          "name": "lastUpdateTime",
          "type": "uint256"
        },
        {
          "internalType": "string",
          "name": "status",
          "type": "string"
        }
      ],
      "stateMutability": "view",
      "type": "function"
    },
    {
      "inputs": [
        {
          "internalType": "bytes32",
          "name": "role",
          "type": "bytes32"
        }
      ],
      "name": "getRoleAdmin",
      "outputs": [
        {
          "internalType": "bytes32",
          "name": "",
          "type": "bytes32"
        }
      ],
      "stateMutability": "view",
      "type": "function"
    },
    {
      "inputs": [
        {
          "internalType": "uint256",
          "name": "_batchId",
          "type": "uint256"
        }
      ],
      "name": "getSupplyChainHistory",
      "outputs": [
        {
          "internalType": "uint256[]",
          "name": "nodeSequence",
          "type": "uint256[]"
        },
        {
          "internalType": "uint256",
          "name": "startTime",
          "type": "uint256"
        },
        {
          "internalType": "uint256",
          "name": "endTime",
          "type": "uint256"
        },
        {
          "internalType": "bool",
          "name": "isComplete",
          "type": "bool"
        },
        {
          "internalType": "string",
          "name": "finalDestination",
          "type": "string"
        }
      ],
      "stateMutability": "view",
      "type": "function"
    },
    {
      "inputs": [
        {
          "internalType": "address",
          "name": "account",
          "type": "address"
        }
      ],
      "name": "grantLogisticsRole",
      "outputs": [],
      "stateMutability": "nonpayable",
      "type": "function"
    },
    {
      "inputs": [
        {
          "internalType": "address",
          "name": "account",
          "type": "address"
        }
      ],
      "name": "grantManufacturerRole",
      "outputs": [],
      "stateMutability": "nonpayable",
      "type": "function"
    },
    {
      "inputs": [
        {
          "internalType": "bytes32",
          "name": "role",
          "type": "bytes32"
        },
        {
          "internalType": "address",
          "name": "account",
          "type": "address"
        }
      ],
      "name": "grantRole",
      "outputs": [],
      "stateMutability": "nonpayable",
      "type": "function"
    },
    {
      "inputs": [
        {
          "internalType": "address",
          "name": "account",
          "type": "address"
        }
      ],
      "name": "grantSupplierRole",
      "outputs": [],
      "stateMutability": "nonpayable",
      "type": "function"
    },
    {
      "inputs": [
        {
          "internalType": "bytes32",
          "name": "role",
          "type": "bytes32"
        },
        {
          "internalType": "address",
          "name": "account",
          "type": "address"
        }
      ],
      "name": "hasRole",
      "outputs": [
        {
          "internalType": "bool",
          "name": "",
          "type": "bool"
        }
      ],
      "stateMutability": "view",
      "type": "function"
    },
    {
      "inputs": [
        {
          "internalType": "uint256",
          "name": "_batchId",
          "type": "uint256"
        },
        {
          "internalType": "uint256",
          "name": "_nodeId",
          "type": "uint256"
        }
      ],
      "name": "markExitNode",
      "outputs": [],
      "stateMutability": "nonpayable",
      "type": "function"
    },
    {
      "inputs": [],
      "name": "nodeContract",
      "outputs": [
        {
          "internalType": "contract NodeTrackingContract",
          "name": "",
          "type": "address"
        }
      ],
      "stateMutability": "view",
      "type": "function"
    },
    {
      "inputs": [
        {
          "internalType": "bytes32",
          "name": "role",
          "type": "bytes32"
        },
        {
          "internalType": "address",
          "name": "callerConfirmation",
          "type": "address"
        }
      ],
      "name": "renounceRole",
      "outputs": [],
      "stateMutability": "nonpayable",
      "type": "function"
    },
    {
      "inputs": [
        {
          "internalType": "bytes32",
          "name": "role",
          "type": "bytes32"
        },
        {
          "internalType": "address",
          "name": "account",
          "type": "address"
        }
      ],
      "name": "revokeRole",
      "outputs": [],
      "stateMutability": "nonpayable",
      "type": "function"
    },
    {
      "inputs": [
        {
          "internalType": "uint256",
          "name": "",
          "type": "uint256"
        }
      ],
      "name": "supplyChainJourneys",
      "outputs": [
        {
          "internalType": "uint256",
          "name": "batchId",
          "type": "uint256"
        },
        {
          "internalType": "uint256",
          "name": "startTime",
          "type": "uint256"
        },
        {
          "internalType": "uint256",
          "name": "endTime",
          "type": "uint256"
        },
        {
          "internalType": "bool",
          "name": "isComplete",
          "type": "bool"
        },
        {
          "internalType": "string",
          "name": "finalDestination",
          "type": "string"
        }
      ],
      "stateMutability": "view",
      "type": "function"
    },
    {
      "inputs": [
        {
          "internalType": "bytes4",
          "name": "interfaceId",
          "type": "bytes4"
        }
      ],
      "name": "supportsInterface",
      "outputs": [
        {
          "internalType": "bool",
          "name": "",
          "type": "bool"
        }
      ],
      "stateMutability": "view",
      "type": "function"
    },
    {
      "inputs": [
        {
          "internalType": "uint256",
          "name": "_batchId",
          "type": "uint256"
        },
        {
          "internalType": "uint256",
          "name": "_nodeId",
          "type": "uint256"
        },
        {
          "internalType": "string",
          "name": "_notes",
          "type": "string"
        }
      ],
      "name": "updateBatchLocation",
      "outputs": [],
      "stateMutability": "nonpayable",
      "type": "function"
    },
    {
      "inputs": [
        {
          "internalType": "uint256",
          "name": "_batchId",
          "type": "uint256"
        }
      ],
      "name": "validateBatchIntegrity",
      "outputs": [
        {
          "internalType": "bool",
          "name": "isValid",
          "type": "bool"
        },
        {
          "internalType": "string",
          "name": "reason",
          "type": "string"
        }
      ],
      "stateMutability": "view",
      "type": "function"
    }
  ],
  "bytecode": "0x60806040523480156200001157600080fd5b5060405162002e0638038062002e06833981016040819052620000349162000146565b600180546001600160a01b038085166001600160a01b0319928316179092556002805492841692909116919091179055620000716000336200007a565b5050506200017e565b6000828152602081815260408083206001600160a01b038516845290915281205460ff166200011f576000838152602081815260408083206001600160a01b03861684529091529020805460ff19166001179055620000d63390565b6001600160a01b0316826001600160a01b0316847f2f8788117e7eff1d82e926ec794901d17c78024a50270940304540a733656f0d60405160405180910390a450600162000123565b5060005b92915050565b80516001600160a01b03811681146200014157600080fd5b919050565b600080604083850312156200015a57600080fd5b620001658362000129565b9150620001756020840162000129565b90509250929050565b612c78806200018e6000396000f3fe608060405234801561001057600080fd5b50600436106101ef5760003560e01c806391d148541161010f578063b237e880116100a2578063da0cc62f11610071578063da0cc62f146104d0578063de0a5e99146104f3578063ed97be1514610517578063fe93a74a1461052a57600080fd5b8063b237e88014610475578063c602d3fb14610488578063d23959c91461049d578063d547741f146104bd57600080fd5b8063a217fddf116100de578063a217fddf14610424578063a29508fc1461042c578063a92d28a914610441578063ab996a0b1461045457600080fd5b806391d14854146103c657806393ceb230146103d9578063965288b0146103ec5780639b0e52371461040157600080fd5b80633356c8af1161018757806355c4281e1161015657806355c4281e1461034e5780635e66bdb3146103615780636e1d616e1461038c57806378e13869146103b357600080fd5b80633356c8af1461030257806336568abe1461031557806338e9f56314610328578063523f3d551461033b57600080fd5b80631c42ef9c116101c35780631c42ef9c146102865780631c4406d1146102aa578063248a9ca3146102ca5780632f2ff15d146102ed57600080fd5b8062528eb4146101f457806301ffc9a71461021d5780630e98be71146102405780631508d1d714610265575b600080fd5b610207610202366004611f35565b61053d565b6040516102149190611f9e565b60405180910390f35b61023061022b366004612058565b610712565b6040519015158152602001610214565b61025361024e366004612089565b610749565b604051610214969594939291906120ab565b610278610273366004612246565b6108c3565b604051908152602001610214565b610299610294366004611f35565b610aa3565b604051610214959493929190612320565b6102bd6102b8366004611f35565b610b62565b604051610214919061234d565b6102786102d8366004611f35565b60009081526020819052604090206001015490565b6103006102fb3660046123c4565b610c43565b005b610300610310366004611f35565b610c6e565b6103006103233660046123c4565b610fc0565b6103006103363660046123f4565b610ff3565b61030061034936600461243b565b6110ca565b61030061035c36600461243b565b611152565b600154610374906001600160a01b031681565b6040516001600160a01b039091168152602001610214565b6102787f59a1c48e5837ad7a7f3dcedcbe129bf3249ec4fbf651fd4f5e2600ead39fe2f581565b6102536103c1366004612458565b6111a8565b6102306103d43660046123c4565b6111c4565b6103006103e7366004612484565b6111ed565b610278600080516020612c0383398151915281565b61041461040f366004611f35565b6112d5565b60405161021494939291906124d4565b610278600081565b610278600080516020612c2383398151915281565b61030061044f366004612089565b6114ec565b610467610462366004611f35565b6115b0565b604051610214929190612505565b600254610374906001600160a01b031681565b610278600080516020612be383398151915281565b6104b06104ab366004612089565b611939565b6040516102149190612528565b6103006104cb3660046123c4565b6119f2565b6102306104de366004611f35565b60076020526000908152604090205460ff1681565b610506610501366004611f35565b611a17565b60405161021495949392919061253b565b61030061052536600461243b565b611b4d565b6103006105383660046125a9565b611ba3565b606060046000838152602001908152602001600020805480602002602001604051908101604052809291908181526020016000905b8282101561070757838290600052602060002090600502016040518060c00160405290816000820180546105a59061261e565b80601f01602080910402602001604051908101604052809291908181526020018280546105d19061261e565b801561061e5780601f106105f35761010080835404028352916020019161061e565b820191906000526020600020905b81548152906001019060200180831161060157829003601f168201915b505050505081526020016001820180546106379061261e565b80601f01602080910402602001604051908101604052809291908181526020018280546106639061261e565b80156106b05780601f10610685576101008083540402835291602001916106b0565b820191906000526020600020905b81548152906001019060200180831161069357829003601f168201915b50505091835250506002820154602080830191909152600383015460408301526004909201546001600160a01b0381166060830152600160a01b900460ff1615156080909101529082526001929092019101610572565b505050509050919050565b60006001600160e01b03198216637965db0b60e01b148061074357506301ffc9a760e01b6001600160e01b03198316145b92915050565b6004602052816000526040600020818154811061076557600080fd5b9060005260206000209060050201600091509150508060000180546107899061261e565b80601f01602080910402602001604051908101604052809291908181526020018280546107b59061261e565b80156108025780601f106107d757610100808354040283529160200191610802565b820191906000526020600020905b8154815290600101906020018083116107e557829003601f168201915b5050505050908060010180546108179061261e565b80601f01602080910402602001604051908101604052809291908181526020018280546108439061261e565b80156108905780601f1061086557610100808354040283529160200191610890565b820191906000526020600020905b81548152906001019060200180831161087357829003601f168201915b5050505060028301546003840154600490940154929390929091506001600160a01b03811690600160a01b900460ff1686565b60006108dd600080516020612c03833981519152336111c4565b61094a5760405162461bcd60e51b815260206004820152603360248201527f537570706c79436861696e3a204f6e6c79206d616e756661637475726572732060448201527263616e20637265617465206a6f75726e65797360681b60648201526084015b60405180910390fd5b6001546040516360f06c0160e01b81526000916001600160a01b0316906360f06c0190610981908b908b908b908b90600401612658565b6020604051808303816000875af11580156109a0573d6000803e3d6000fd5b505050506040513d601f19601f820116820180604052508101906109c49190612697565b600081815260036020526040902081815542600282015560048101805460ff19169055909150600581016109f886826126f6565b5060005b8451811015610a5f576001826006016000878481518110610a1f57610a1f6127b6565b6020026020010151815260200190815260200160002060006101000a81548160ff0219169083151502179055508080610a57906127e2565b9150506109fc565b50604051428152339083907f5d271d77791af52d1bf0a53865c4443220cb8ccdc1c1912005e07f96e6ca1ae99060200160405180910390a350979650505050505050565b600360208190526000918252604090912080546002820154928201546004830154600584018054939594929360ff9092169291610adf9061261e565b80601f0160208091040260200160405190810160405280929190818152602001828054610b0b9061261e565b8015610b585780601f10610b2d57610100808354040283529160200191610b58565b820191906000526020600020905b815481529060010190602001808311610b3b57829003601f168201915b5050505050905085565b606060066000838152602001908152602001600020805480602002602001604051908101604052809291908181526020016000905b82821015610707578382906000526020600020018054610bb69061261e565b80601f0160208091040260200160405190810160405280929190818152602001828054610be29061261e565b8015610c2f5780601f10610c0457610100808354040283529160200191610c2f565b820191906000526020600020905b815481529060010190602001808311610c1257829003601f168201915b505050505081526020019060010190610b97565b600082815260208190526040902060010154610c5e81611d00565b610c688383611d0d565b50505050565b600081815260046020908152604080832080548251818502810185019093528083529192909190849084015b82821015610e2f57838290600052602060002090600502016040518060c0016040529081600082018054610ccd9061261e565b80601f0160208091040260200160405190810160405280929190818152602001828054610cf99061261e565b8015610d465780601f10610d1b57610100808354040283529160200191610d46565b820191906000526020600020905b815481529060010190602001808311610d2957829003601f168201915b50505050508152602001600182018054610d5f9061261e565b80601f0160208091040260200160405190810160405280929190818152602001828054610d8b9061261e565b8015610dd85780601f10610dad57610100808354040283529160200191610dd8565b820191906000526020600020905b815481529060010190602001808311610dbb57829003601f168201915b50505091835250506002820154602080830191909152600383015460408301526004909201546001600160a01b0381166060830152600160a01b900460ff1615156080909101529082526001929092019101610c9a565b50505050905060005b8151811015610fbb57610e4e4262278d006127fb565b828281518110610e6057610e606127b6565b60200260200101516060015111158015610e96575042828281518110610e8857610e886127b6565b602002602001015160600151115b15610f1057827f59409d8e8c785ea7755b13a7c39e5cc14294f1785ad09890a2c6c931572e94e0838381518110610ecf57610ecf6127b6565b602002602001015160000151604051602001610eeb919061280e565b60408051601f1981840301815290829052610f07914290612859565b60405180910390a25b42828281518110610f2357610f236127b6565b60200260200101516060015111610fa957827f59409d8e8c785ea7755b13a7c39e5cc14294f1785ad09890a2c6c931572e94e0838381518110610f6857610f686127b6565b602002602001015160000151604051602001610f8491906128a6565b60408051601f1981840301815290829052610fa09142906128f0565b60405180910390a25b80610fb3816127e2565b915050610e38565b505050565b6001600160a01b0381163314610fe95760405163334bd91960e11b815260040160405180910390fd5b610fbb8282611d9f565b61100b600080516020612c03833981519152336111c4565b806110295750611029600080516020612c23833981519152336111c4565b806110475750611047600080516020612be3833981519152336111c4565b6110635760405162461bcd60e51b81526004016109419061292d565b60008281526006602090815260408220805460018101825590835291200161108b82826126f6565b50817fcc304924d907432f8b9348c6f6fbaecb09180c1d90fe3e3b3caf639297e278f082426040516110be929190612964565b60405180910390a25050565b60006110d581611d00565b6110ed600080516020612c2383398151915283611d0d565b5060015460405163523f3d5560e01b81526001600160a01b0384811660048301529091169063523f3d55906024015b600060405180830381600087803b15801561113657600080fd5b505af115801561114a573d6000803e3d6000fd5b505050505050565b600061115d81611d00565b611175600080516020612c0383398151915283611d0d565b50600154604051632ae2140f60e11b81526001600160a01b038481166004830152909116906355c4281e9060240161111c565b6005602052816000526040600020818154811061076557600080fd5b6000918252602082815260408084206001600160a01b0393909316845291905290205460ff1690565b611205600080516020612be3833981519152336111c4565b806112235750611223600080516020612c03833981519152336111c4565b61123f5760405162461bcd60e51b81526004016109419061292d565b60025460405163bd80537b60e01b81526001600160a01b039091169063bd80537b9061127390869086908690600401612986565b600060405180830381600087803b15801561128d57600080fd5b505af11580156112a1573d6000803e3d6000fd5b50505060008481526003602090815260408220600180820180549182018155845291909220018490559050610c6884611e0a565b6002546040516323bb183560e01b815260048101839052600091606091839183916001600160a01b03909116906323bb183590602401600060405180830381865afa158015611328573d6000803e3d6000fd5b505050506040513d6000823e601f3d908101601f1916820160405261135091908101906129f3565b600154604051631a0058f560e01b8152600481018a90529397509095506000926001600160a01b039091169150631a0058f590602401600060405180830381865afa1580156113a3573d6000803e3d6000fd5b505050506040513d6000823e601f3d908101601f191682016040526113cb9190810190612a75565b505096505050505050506060600060038111156113ea576113ea612b61565b8260038111156113fc576113fc612b61565b03611425575060408051808201909152600781526610dc99585d195960ca1b60208201526114df565b600182600381111561143957611439612b61565b03611465575060408051808201909152600a815269125b88151c985b9cda5d60b21b60208201526114df565b600282600381111561147957611479612b61565b036114a4575060408051808201909152600981526811195b1a5d995c995960ba1b60208201526114df565b60038260038111156114b8576114b8612b61565b036114df575060408051808201909152600981526810dbdb5c1b195d195960ba1b60208201525b4293509150509193509193565b611504600080516020612be3833981519152336111c4565b806115225750611522600080516020612c03833981519152336111c4565b61153e5760405162461bcd60e51b81526004016109419061292d565b60025460405163033cfacd60e61b815260048101849052602481018390526001600160a01b039091169063cf3eb34090604401600060405180830381600087803b15801561158b57600080fd5b505af115801561159f573d6000803e3d6000fd5b505050506115ac82611e0a565b5050565b60015460405163ab996a0b60e01b8152600481018390526000916060916001600160a01b039091169063ab996a0b90602401602060405180830381865afa1580156115ff573d6000803e3d6000fd5b505050506040513d601f19601f820116820180604052508101906116239190612b77565b61165e57505060408051808201909152601681527510985d18da081a5b9d1959dc9a5d1e4819985a5b195960521b6020820152600092909150565b600083815260036020526040812060018101549091036116af576000604051806040016040528060128152602001714e6f207472616e736974207265636f72647360701b8152509250925050915091565b600084815260046020908152604080832080548251818502810185019093528083529192909190849084015b8282101561187057838290600052602060002090600502016040518060c001604052908160008201805461170e9061261e565b80601f016020809104026020016040519081016040528092919081815260200182805461173a9061261e565b80156117875780601f1061175c57610100808354040283529160200191611787565b820191906000526020600020905b81548152906001019060200180831161176a57829003601f168201915b505050505081526020016001820180546117a09061261e565b80601f01602080910402602001604051908101604052809291908181526020018280546117cc9061261e565b80156118195780601f106117ee57610100808354040283529160200191611819565b820191906000526020600020905b8154815290600101906020018083116117fc57829003601f168201915b50505091835250506002820154602080830191909152600383015460408301526004909201546001600160a01b0381166060830152600160a01b900460ff16151560809091015290825260019290920191016116db565b50505050905060005b81518110156118fd5742828281518110611895576118956127b6565b60200260200101516060015110156118eb5760006040518060400160405280601981526020017f4578706972656420636572746966696361746520666f756e640000000000000081525094509450505050915091565b806118f5816127e2565b915050611879565b5060016040518060400160405280601581526020017410985d18da081a5b9d1959dc9a5d1e481d985b1a59605a1b815250935093505050915091565b6006602052816000526040600020818154811061195557600080fd5b906000526020600020016000915091505080546119719061261e565b80601f016020809104026020016040519081016040528092919081815260200182805461199d9061261e565b80156119ea5780601f106119bf576101008083540402835291602001916119ea565b820191906000526020600020905b8154815290600101906020018083116119cd57829003601f168201915b505050505081565b600082815260208190526040902060010154611a0d81611d00565b610c688383611d9f565b606060008060006060600060036000888152602001908152602001600020905080600101816002015482600301548360040160009054906101000a900460ff168460050184805480602002602001604051908101604052809291908181526020018280548015611aa657602002820191906000526020600020905b815481526020019060010190808311611a92575b50505050509450808054611ab99061261e565b80601f0160208091040260200160405190810160405280929190818152602001828054611ae59061261e565b8015611b325780601f10611b0757610100808354040283529160200191611b32565b820191906000526020600020905b815481529060010190602001808311611b1557829003601f168201915b50505050509050955095509550955095505091939590929450565b6000611b5881611d00565b611b70600080516020612be383398151915283611d0d565b5060015460405163ed97be1560e01b81526001600160a01b0384811660048301529091169063ed97be159060240161111c565b611bbb600080516020612c03833981519152336111c4565b80611bd95750611bd9600080516020612c23833981519152336111c4565b611bf55760405162461bcd60e51b81526004016109419061292d565b6040805160c0810182528481526020808201859052428284015260608201849052336080830152600160a0830181905260008881526004835293842080549182018155845292208151919283926005909102909101908190611c5790826126f6565b5060208201516001820190611c6c90826126f6565b5060408281015160028301556060830151600383015560808301516004909201805460a0909401511515600160a01b026001600160a81b03199094166001600160a01b03909316929092179290921790555185907ff3527ce96a8e9d79a33d2fc4b518f519188077801db8a76b478cd13be6b08efd90611cf190879087904290612b99565b60405180910390a25050505050565b611d0a8133611efc565b50565b6000611d1983836111c4565b611d97576000838152602081815260408083206001600160a01b03861684529091529020805460ff19166001179055611d4f3390565b6001600160a01b0316826001600160a01b0316847f2f8788117e7eff1d82e926ec794901d17c78024a50270940304540a733656f0d60405160405180910390a4506001610743565b506000610743565b6000611dab83836111c4565b15611d97576000838152602081815260408083206001600160a01b0386168085529252808320805460ff1916905551339286917ff6391f5c32d9c69d2a47ea670b442974b53935d1edc7fd64eb21e047a839171b9190a4506001610743565b6000818152600360205260409020600181015415801590611e305750600481015460ff16155b156115ac5760018082018054600092611e4891612bcf565b81548110611e5857611e586127b6565b906000526020600020015490506003826001018054905010610fbb57600482018054600160ff19918216811790925542600385019081556000868152600760205260408120805490931690931790915560028401549054611eb99190612bcf565b6040805182815242602082015291925085917f42192da3b77c0a6648b35309b160b2e59841dbf678a1bdb70b5423dcdf7d93cc910160405180910390a250505050565b611f0682826111c4565b6115ac5760405163e2517d3f60e01b81526001600160a01b038216600482015260248101839052604401610941565b600060208284031215611f4757600080fd5b5035919050565b60005b83811015611f69578181015183820152602001611f51565b50506000910152565b60008151808452611f8a816020860160208601611f4e565b601f01601f19169290920160200192915050565b60006020808301818452808551808352604092508286019150828160051b87010184880160005b8381101561204a57603f19898403018552815160c08151818652611feb82870182611f72565b915050888201518582038a8701526120038282611f72565b838a0151878b0152606080850151908801526080808501516001600160a01b03169088015260a0938401511515939096019290925250509386019390860190600101611fc5565b509098975050505050505050565b60006020828403121561206a57600080fd5b81356001600160e01b03198116811461208257600080fd5b9392505050565b6000806040838503121561209c57600080fd5b50508035926020909101359150565b60c0815260006120be60c0830189611f72565b82810360208401526120d08189611f72565b6040840197909752505060608101939093526001600160a01b03919091166080830152151560a09091015292915050565b634e487b7160e01b600052604160045260246000fd5b604051601f8201601f1916810167ffffffffffffffff8111828210171561214057612140612101565b604052919050565b600067ffffffffffffffff82111561216257612162612101565b50601f01601f191660200190565b600082601f83011261218157600080fd5b813561219461218f82612148565b612117565b8181528460208386010111156121a957600080fd5b816020850160208301376000918101602001919091529392505050565b600082601f8301126121d757600080fd5b8135602067ffffffffffffffff8211156121f3576121f3612101565b8160051b612202828201612117565b928352848101820192828101908785111561221c57600080fd5b83870192505b8483101561223b57823582529183019190830190612222565b979650505050505050565b60008060008060008060c0878903121561225f57600080fd5b863567ffffffffffffffff8082111561227757600080fd5b6122838a838b01612170565b97506020890135965060408901359150808211156122a057600080fd5b6122ac8a838b01612170565b955060608901359150808211156122c257600080fd5b6122ce8a838b01612170565b945060808901359150808211156122e457600080fd5b6122f08a838b01612170565b935060a089013591508082111561230657600080fd5b5061231389828a016121c6565b9150509295509295509295565b858152846020820152836040820152821515606082015260a06080820152600061223b60a0830184611f72565b6000602080830181845280855180835260408601915060408160051b870101925083870160005b828110156123a257603f19888603018452612390858351611f72565b94509285019290850190600101612374565b5092979650505050505050565b6001600160a01b0381168114611d0a57600080fd5b600080604083850312156123d757600080fd5b8235915060208301356123e9816123af565b809150509250929050565b6000806040838503121561240757600080fd5b82359150602083013567ffffffffffffffff81111561242557600080fd5b61243185828601612170565b9150509250929050565b60006020828403121561244d57600080fd5b8135612082816123af565b6000806040838503121561246b57600080fd5b8235612476816123af565b946020939093013593505050565b60008060006060848603121561249957600080fd5b8335925060208401359150604084013567ffffffffffffffff8111156124be57600080fd5b6124ca86828701612170565b9150509250925092565b8481526080602082015260006124ed6080830186611f72565b846040840152828103606084015261223b8185611f72565b82151581526040602082015260006125206040830184611f72565b949350505050565b6020815260006120826020830184611f72565b60a0808252865190820181905260009060209060c0840190828a01845b8281101561257457815184529284019290840190600101612558565b50505087828501528660408501528515156060850152838103608085015261259c8186611f72565b9998505050505050505050565b600080600080608085870312156125bf57600080fd5b84359350602085013567ffffffffffffffff808211156125de57600080fd5b6125ea88838901612170565b9450604087013591508082111561260057600080fd5b5061260d87828801612170565b949793965093946060013593505050565b600181811c9082168061263257607f821691505b60208210810361265257634e487b7160e01b600052602260045260246000fd5b50919050565b60808152600061266b6080830187611f72565b85602084015282810360408401526126838186611f72565b9050828103606084015261223b8185611f72565b6000602082840312156126a957600080fd5b5051919050565b601f821115610fbb57600081815260208120601f850160051c810160208610156126d75750805b601f850160051c820191505b8181101561114a578281556001016126e3565b815167ffffffffffffffff81111561271057612710612101565b6127248161271e845461261e565b846126b0565b602080601f83116001811461275957600084156127415750858301515b600019600386901b1c1916600185901b17855561114a565b600085815260208120601f198616915b8281101561278857888601518255948401946001909101908401612769565b50858210156127a65787850151600019600388901b60f8161c191681555b5050505050600190811b01905550565b634e487b7160e01b600052603260045260246000fd5b634e487b7160e01b600052601160045260246000fd5b6000600182016127f4576127f46127cc565b5060010190565b80820180821115610743576107436127cc565b6b021b2b93a34b334b1b0ba32960a51b81526000825161283581600c850160208701611f4e565b6c1032bc3834b932b99039b7b7b760991b600c939091019283015250601901919050565b60608152601460608201527343455254494649434154455f4558504952494e4760601b608082015260a06020820152600061289760a0830185611f72565b90508260408301529392505050565b6b021b2b93a34b334b1b0ba32960a51b8152600082516128cd81600c850160208701611f4e565b6b081a185cc8195e1c1a5c995960a21b600c939091019283015250601801919050565b60608152601360608201527210d1549512519250d0551157d1561412549151606a1b608082015260a06020820152600061289760a0830185611f72565b60208082526019908201527f537570706c79436861696e3a20556e617574686f72697a656400000000000000604082015260600190565b6040815260006129776040830185611f72565b90508260208301529392505050565b8381528260208201526060604082015260006129a56060830184611f72565b95945050505050565b600082601f8301126129bf57600080fd5b81516129cd61218f82612148565b8181528460208386010111156129e257600080fd5b612520826020830160208701611f4e565b600080600060608486031215612a0857600080fd5b83519250602084015167ffffffffffffffff80821115612a2757600080fd5b612a33878388016129ae565b93506040860151915080821115612a4957600080fd5b506124ca868287016129ae565b8051612a61816123af565b919050565b805160048110612a6157600080fd5b60008060008060008060008060006101208a8c031215612a9457600080fd5b8951985060208a015167ffffffffffffffff80821115612ab357600080fd5b612abf8d838e016129ae565b995060408c01519850612ad460608d01612a56565b975060808c0151915080821115612aea57600080fd5b612af68d838e016129ae565b965060a08c01519550612b0b60c08d01612a66565b945060e08c0151915080821115612b2157600080fd5b612b2d8d838e016129ae565b93506101008c0151915080821115612b4457600080fd5b50612b518c828d016129ae565b9150509295985092959850929598565b634e487b7160e01b600052602160045260246000fd5b600060208284031215612b8957600080fd5b8151801515811461208257600080fd5b606081526000612bac6060830186611f72565b8281036020840152612bbe8186611f72565b915050826040830152949350505050565b81810381811115610743576107436127cc56feded9b5e0e0e3a2b3f09a0bc36ec64b9bf7a7c2319f3c4d9cff5ce48714257b21eefb95e842a3287179d933b4460be539a1d5af11aa8b325bb45c5c8dc92de4edd1ae8bbdabd60d63e418b84f5ad6f9cba90092c9816d7724d85f0d4e4bea2c60a264697066735822122010074fd96a7dbf334c662dca78c2c8a20f90649c58f9a1f357971c3236878b1064736f6c63430008140033",
  "linkReferences": {},
  "deployedLinkReferences": {}
}