{
  "_format": "hh-sol-artifact-1",
  "contractName": "NodeTrackingContract",
  "sourceName": "blockchain/contracts/NodeTrackingContract.sol",
  "abi": [
    {
      "inputs": [],
      "stateMutability": "nonpayable",
      "type": "constructor"
    },
    {
      "inputs": [],
      "name": "AccessControlBadConfirmation",
      "type": "error"
    },
    {
      "inputs": [
        {
          "internalType": "address",
          "name": "account",
          "type": "address"
        },
        {
          "internalType": "bytes32",
          "name": "neededRole",
          "type": "bytes32"
        }
      ],
      "name": "AccessControlUnauthorizedAccount",
      "type": "error"
    },
    {
      "anonymous": false,
      "inputs": [
        {
          "indexed": true,
          "internalType": "uint256",
          "name": "batchId",
          "type": "uint256"
        },
        {
          "indexed": true,
          "internalType": "uint256",
          "name": "nodeId",
          "type": "uint256"
        },
        {
          "indexed": true,
          "internalType": "address",
          "name": "scanner",
          "type": "address"
        },
        {
          "indexed": false,
          "internalType": "uint256",
          "name": "timestamp",
          "type": "uint256"
        },
        {
          "indexed": false,
          "internalType": "string",
          "name": "notes",
          "type": "string"
        }
      ],
      "name": "BatchEnteredNode",
      "type": "event"
    },
    {
      "anonymous": false,
      "inputs": [
        {
          "indexed": true,
          "internalType": "uint256",
          "name": "batchId",
          "type": "uint256"
        },
        {
          "indexed": true,
          "internalType": "uint256",
          "name": "nodeId",
          "type": "uint256"
        },
        {
          "indexed": true,
          "internalType": "address",
          "name": "scanner",
          "type": "address"
        },
        {
          "indexed": false,
          "internalType": "uint256",
          "name": "timestamp",
          "type": "uint256"
        }
      ],
      "name": "BatchExitedNode",
      "type": "event"
    },
    {
      "anonymous": false,
      "inputs": [
        {
          "indexed": true,
          "internalType": "uint256",
          "name": "nodeId",
          "type": "uint256"
        },
        {
          "indexed": false,
          "internalType": "string",
          "name": "name",
          "type": "string"
        },
        {
          "indexed": false,
          "internalType": "string",
          "name": "location",
          "type": "string"
        },
        {
          "indexed": false,
          "internalType": "enum NodeTrackingContract.NodeType",
          "name": "nodeType",
          "type": "uint8"
        },
        {
          "indexed": true,
          "internalType": "address",
          "name": "operator",
          "type": "address"
        },
        {
          "indexed": false,
          "internalType": "uint256",
          "name": "timestamp",
          "type": "uint256"
        }
      ],
      "name": "NodeCreated",
      "type": "event"
    },
    {
      "anonymous": false,
      "inputs": [
        {
          "indexed": true,
          "internalType": "uint256",
          "name": "nodeId",
          "type": "uint256"
        },
        {
          "indexed": false,
          "internalType": "enum NodeTrackingContract.NodeStatus",
          "name": "newStatus",
          "type": "uint8"
        },
        {
          "indexed": false,
          "internalType": "uint256",
          "name": "timestamp",
          "type": "uint256"
        }
      ],
      "name": "NodeStatusUpdated",
      "type": "event"
    },
    {
      "anonymous": false,
      "inputs": [
        {
          "indexed": true,
          "internalType": "bytes32",
          "name": "role",
          "type": "bytes32"
        },
        {
          "indexed": true,
          "internalType": "bytes32",
          "name": "previousAdminRole",
          "type": "bytes32"
        },
        {
          "indexed": true,
          "internalType": "bytes32",
          "name": "newAdminRole",
          "type": "bytes32"
        }
      ],
      "name": "RoleAdminChanged",
      "type": "event"
    },
    {
      "anonymous": false,
      "inputs": [
        {
          "indexed": true,
          "internalType": "bytes32",
          "name": "role",
          "type": "bytes32"
        },
        {
          "indexed": true,
          "internalType": "address",
          "name": "account",
          "type": "address"
        },
        {
          "indexed": true,
          "internalType": "address",
          "name": "sender",
          "type": "address"
        }
      ],
      "name": "RoleGranted",
      "type": "event"
    },
    {
      "anonymous": false,
      "inputs": [
        {
          "indexed": true,
          "internalType": "bytes32",
          "name": "role",
          "type": "bytes32"
        },
        {
          "indexed": true,
          "internalType": "address",
          "name": "account",
          "type": "address"
        },
        {
          "indexed": true,
          "internalType": "address",
          "name": "sender",
          "type": "address"
        }
      ],
      "name": "RoleRevoked",
      "type": "event"
    },
    {
      "anonymous": false,
      "inputs": [
        {
          "indexed": true,
          "internalType": "uint256",
          "name": "batchId",
          "type": "uint256"
        },
        {
          "indexed": true,
          "internalType": "uint256",
          "name": "nodeId",
          "type": "uint256"
        },
        {
          "indexed": false,
          "internalType": "string",
          "name": "verificationHash",
          "type": "string"
        },
        {
          "indexed": false,
          "internalType": "uint256",
          "name": "timestamp",
          "type": "uint256"
        }
      ],
      "name": "TransitVerified",
      "type": "event"
    },
    {
      "inputs": [],
      "name": "DEFAULT_ADMIN_ROLE",
      "outputs": [
        {
          "internalType": "bytes32",
          "name": "",
          "type": "bytes32"
        }
      ],
      "stateMutability": "view",
      "type": "function"
    },
    {
      "inputs": [],
      "name": "LOGISTICS_ROLE",
      "outputs": [
        {
          "internalType": "bytes32",
          "name": "",
          "type": "bytes32"
        }
      ],
      "stateMutability": "view",
      "type": "function"
    },
    {
      "inputs": [],
      "name": "MANUFACTURER_ROLE",
      "outputs": [
        {
          "internalType": "bytes32",
          "name": "",
          "type": "bytes32"
        }
      ],
      "stateMutability": "view",
      "type": "function"
    },
    {
      "inputs": [],
      "name": "NODE_OPERATOR_ROLE",
      "outputs": [
        {
          "internalType": "bytes32",
          "name": "",
          "type": "bytes32"
        }
      ],
      "stateMutability": "view",
      "type": "function"
    },
    {
      "inputs": [],
      "name": "SUPPLIER_ROLE",
      "outputs": [
        {
          "internalType": "bytes32",
          "name": "",
          "type": "bytes32"
        }
      ],
      "stateMutability": "view",
      "type": "function"
    },
    {
      "inputs": [
        {
          "internalType": "uint256",
          "name": "",
          "type": "uint256"
        },
        {
          "internalType": "uint256",
          "name": "",
          "type": "uint256"
        }
      ],
      "name": "batchAtNode",
      "outputs": [
        {
          "internalType": "bool",
          "name": "",
          "type": "bool"
        }
      ],
      "stateMutability": "view",
      "type": "function"
    },
    {
      "inputs": [
        {
          "internalType": "uint256",
          "name": "",
          "type": "uint256"
        },
        {
          "internalType": "uint256",
          "name": "",
          "type": "uint256"
        }
      ],
      "name": "batchTransitHistory",
      "outputs": [
        {
          "internalType": "uint256",
          "name": "nodeId",
          "type": "uint256"
        },
        {
          "internalType": "uint256",
          "name": "batchId",
          "type": "uint256"
        },
        {
          "internalType": "uint256",
          "name": "timestamp",
          "type": "uint256"
        },
        {
          "internalType": "address",
          "name": "scanner",
          "type": "address"
        },
        {
          "internalType": "string",
          "name": "notes",
          "type": "string"
        },
        {
          "internalType": "bool",
          "name": "isEntryPoint",
          "type": "bool"
        },
        {
          "internalType": "bool",
          "name": "isExitPoint",
          "type": "bool"
        },
        {
          "internalType": "string",
          "name": "verificationHash",
          "type": "string"
        }
      ],
      "stateMutability": "view",
      "type": "function"
    },
    {
      "inputs": [
        {
          "internalType": "string",
          "name": "_name",
          "type": "string"
        },
        {
          "internalType": "string",
          "name": "_location",
          "type": "string"
        },
        {
          "internalType": "enum NodeTrackingContract.NodeType",
          "name": "_nodeType",
          "type": "uint8"
        },
        {
          "internalType": "address",
          "name": "_operator",
          "type": "address"
        },
        {
          "internalType": "string",
          "name": "_coordinates",
          "type": "string"
        }
      ],
      "name": "createNode",
      "outputs": [
        {
          "internalType": "uint256",
          "name": "",
          "type": "uint256"
        }
      ],
      "stateMutability": "nonpayable",
      "type": "function"
    },
    {
      "inputs": [
        {
          "internalType": "uint256",
          "name": "",
          "type": "uint256"
        }
      ],
      "name": "currentNodeLocation",
      "outputs": [
        {
          "internalType": "uint256",
          "name": "",
          "type": "uint256"
        }
      ],
      "stateMutability": "view",
      "type": "function"
    },
    {
      "inputs": [
        {
          "internalType": "uint256",
          "name": "_batchId",
          "type": "uint256"
        }
      ],
      "name": "getCurrentLocation",
      "outputs": [
        {
          "internalType": "uint256",
          "name": "nodeId",
          "type": "uint256"
        },
        {
          "internalType": "string",
          "name": "nodeName",
          "type": "string"
        },
        {
          "internalType": "string",
          "name": "location",
          "type": "string"
        }
      ],
      "stateMutability": "view",
      "type": "function"
    },
    {
      "inputs": [
        {
          "internalType": "bytes32",
          "name": "role",
          "type": "bytes32"
        }
      ],
      "name": "getRoleAdmin",
      "outputs": [
        {
          "internalType": "bytes32",
          "name": "",
          "type": "bytes32"
        }
      ],
      "stateMutability": "view",
      "type": "function"
    },
    {
      "inputs": [
        {
          "internalType": "uint256",
          "name": "_batchId",
          "type": "uint256"
        }
      ],
      "name": "getTransitHistory",
      "outputs": [
        {
          "components": [
            {
              "internalType": "uint256",
              "name": "nodeId",
              "type": "uint256"
            },
            {
              "internalType": "uint256",
              "name": "batchId",
              "type": "uint256"
            },
            {
              "internalType": "uint256",
              "name": "timestamp",
              "type": "uint256"
            },
            {
              "internalType": "address",
              "name": "scanner",
              "type": "address"
            },
            {
              "internalType": "string",
              "name": "notes",
              "type": "string"
            },
            {
              "internalType": "bool",
              "name": "isEntryPoint",
              "type": "bool"
            },
            {
              "internalType": "bool",
              "name": "isExitPoint",
              "type": "bool"
            },
            {
              "internalType": "string",
              "name": "verificationHash",
              "type": "string"
            }
          ],
          "internalType": "struct NodeTrackingContract.TransitRecord[]",
          "name": "",
          "type": "tuple[]"
        }
      ],
      "stateMutability": "view",
      "type": "function"
    },
    {
      "inputs": [
        {
          "internalType": "bytes32",
          "name": "role",
          "type": "bytes32"
        },
        {
          "internalType": "address",
          "name": "account",
          "type": "address"
        }
      ],
      "name": "grantRole",
      "outputs": [],
      "stateMutability": "nonpayable",
      "type": "function"
    },
    {
      "inputs": [
        {
          "internalType": "bytes32",
          "name": "role",
          "type": "bytes32"
        },
        {
          "internalType": "address",
          "name": "account",
          "type": "address"
        }
      ],
      "name": "hasRole",
      "outputs": [
        {
          "internalType": "bool",
          "name": "",
          "type": "bool"
        }
      ],
      "stateMutability": "view",
      "type": "function"
    },
    {
      "inputs": [
        {
          "internalType": "uint256",
          "name": "",
          "type": "uint256"
        }
      ],
      "name": "nodes",
      "outputs": [
        {
          "internalType": "uint256",
          "name": "id",
          "type": "uint256"
        },
        {
          "internalType": "string",
          "name": "name",
          "type": "string"
        },
        {
          "internalType": "string",
          "name": "location",
          "type": "string"
        },
        {
          "internalType": "enum NodeTrackingContract.NodeType",
          "name": "nodeType",
          "type": "uint8"
        },
        {
          "internalType": "enum NodeTrackingContract.NodeStatus",
          "name": "status",
          "type": "uint8"
        },
        {
          "internalType": "address",
          "name": "operator",
          "type": "address"
        },
        {
          "internalType": "uint256",
          "name": "createdAt",
          "type": "uint256"
        },
        {
          "internalType": "string",
          "name": "coordinates",
          "type": "string"
        },
        {
          "internalType": "bool",
          "name": "exists",
          "type": "bool"
        }
      ],
      "stateMutability": "view",
      "type": "function"
    },
    {
      "inputs": [
        {
          "internalType": "address",
          "name": "",
          "type": "address"
        },
        {
          "internalType": "uint256",
          "name": "",
          "type": "uint256"
        }
      ],
      "name": "operatorNodes",
      "outputs": [
        {
          "internalType": "uint256",
          "name": "",
          "type": "uint256"
        }
      ],
      "stateMutability": "view",
      "type": "function"
    },
    {
      "inputs": [
        {
          "internalType": "uint256",
          "name": "_batchId",
          "type": "uint256"
        },
        {
          "internalType": "uint256",
          "name": "_nodeId",
          "type": "uint256"
        },
        {
          "internalType": "string",
          "name": "_notes",
          "type": "string"
        }
      ],
      "name": "recordBatchEntry",
      "outputs": [],
      "stateMutability": "nonpayable",
      "type": "function"
    },
    {
      "inputs": [
        {
          "internalType": "uint256",
          "name": "_batchId",
          "type": "uint256"
        },
        {
          "internalType": "uint256",
          "name": "_nodeId",
          "type": "uint256"
        }
      ],
      "name": "recordBatchExit",
      "outputs": [],
      "stateMutability": "nonpayable",
      "type": "function"
    },
    {
      "inputs": [
        {
          "internalType": "bytes32",
          "name": "role",
          "type": "bytes32"
        },
        {
          "internalType": "address",
          "name": "callerConfirmation",
          "type": "address"
        }
      ],
      "name": "renounceRole",
      "outputs": [],
      "stateMutability": "nonpayable",
      "type": "function"
    },
    {
      "inputs": [
        {
          "internalType": "bytes32",
          "name": "role",
          "type": "bytes32"
        },
        {
          "internalType": "address",
          "name": "account",
          "type": "address"
        }
      ],
      "name": "revokeRole",
      "outputs": [],
      "stateMutability": "nonpayable",
      "type": "function"
    },
    {
      "inputs": [
        {
          "internalType": "bytes4",
          "name": "interfaceId",
          "type": "bytes4"
        }
      ],
      "name": "supportsInterface",
      "outputs": [
        {
          "internalType": "bool",
          "name": "",
          "type": "bool"
        }
      ],
      "stateMutability": "view",
      "type": "function"
    }
  ],
  "bytecode": "0x60806040523480156200001157600080fd5b506200001f60003362000026565b50620000d5565b6000828152602081815260408083206001600160a01b038516845290915281205460ff16620000cb576000838152602081815260408083206001600160a01b03861684529091529020805460ff19166001179055620000823390565b6001600160a01b0316826001600160a01b0316847f2f8788117e7eff1d82e926ec794901d17c78024a50270940304540a733656f0d60405160405180910390a4506001620000cf565b5060005b92915050565b61206580620000e56000396000f3fe608060405234801561001057600080fd5b50600436106101375760003560e01c806391d14854116100b8578063a4a089a01161007c578063a4a089a014610311578063bd80537b14610324578063c602d3fb14610337578063cf3eb3401461035e578063d547741f14610371578063ff3082fe1461038457600080fd5b806391d1485414610295578063965288b0146102a85780639b070b00146102cf578063a217fddf146102e2578063a29508fc146102ea57600080fd5b80632f2ff15d116100ff5780632f2ff15d146101ff57806336568abe146102145780635cd7bf24146102275780637dfd1fea1461024e57806389581b491461026e57600080fd5b806301ffc9a71461013c578063049193dd146101645780631c53c2801461019257806323bb1835146101ba578063248a9ca3146101dc575b600080fd5b61014f61014a3660046118ab565b6103b2565b60405190151581526020015b60405180910390f35b6101846101723660046118dc565b60066020526000908152604090205481565b60405190815260200161015b565b6101a56101a03660046118dc565b6103e9565b60405161015b99989796959493929190611965565b6101cd6101c83660046118dc565b6105e1565b60405161015b939291906119fb565b6101846101ea3660046118dc565b60009081526020819052604090206001015490565b61021261020d366004611a4c565b6108e8565b005b610212610222366004611a4c565b610913565b6101847fa8c345a04d2a8ac0607aad39bfdb2ca6e358d1265f2dd655687a0837b5d74b0881565b61026161025c3660046118dc565b61094b565b60405161015b9190611a78565b61028161027c366004611b57565b610b3a565b60405161015b989796959493929190611b79565b61014f6102a3366004611a4c565b610cc3565b6101847feefb95e842a3287179d933b4460be539a1d5af11aa8b325bb45c5c8dc92de4ed81565b6101846102dd366004611be0565b610cec565b610184600081565b6101847fd1ae8bbdabd60d63e418b84f5ad6f9cba90092c9816d7724d85f0d4e4bea2c6081565b61018461031f366004611cad565b610d1d565b610212610332366004611d60565b611008565b6101847fded9b5e0e0e3a2b3f09a0bc36ec64b9bf7a7c2319f3c4d9cff5ce48714257b2181565b61021261036c366004611b57565b6112e8565b61021261037f366004611a4c565b611578565b61014f610392366004611b57565b600460209081526000928352604080842090915290825290205460ff1681565b60006001600160e01b03198216637965db0b60e01b14806103e357506301ffc9a760e01b6001600160e01b03198316145b92915050565b6002602052600090815260409020805460018201805491929161040b90611db0565b80601f016020809104026020016040519081016040528092919081815260200182805461043790611db0565b80156104845780601f1061045957610100808354040283529160200191610484565b820191906000526020600020905b81548152906001019060200180831161046757829003601f168201915b50505050509080600201805461049990611db0565b80601f01602080910402602001604051908101604052809291908181526020018280546104c590611db0565b80156105125780601f106104e757610100808354040283529160200191610512565b820191906000526020600020905b8154815290600101906020018083116104f557829003601f168201915b5050505060038301546004840154600585018054949560ff8085169661010086049091169550620100009094046001600160a01b03169390919061055590611db0565b80601f016020809104026020016040519081016040528092919081815260200182805461058190611db0565b80156105ce5780601f106105a3576101008083540402835291602001916105ce565b820191906000526020600020905b8154815290600101906020018083116105b157829003601f168201915b5050506006909301549192505060ff1689565b600081815260066020526040812054606090819080840361064a576000604051806040016040528060078152602001662ab735b737bbb760c91b815250604051806040016040528060078152602001662ab735b737bbb760c91b815250935093509350506108e1565b600060026000838152602001908152602001600020604051806101200160405290816000820154815260200160018201805461068590611db0565b80601f01602080910402602001604051908101604052809291908181526020018280546106b190611db0565b80156106fe5780601f106106d3576101008083540402835291602001916106fe565b820191906000526020600020905b8154815290600101906020018083116106e157829003601f168201915b5050505050815260200160028201805461071790611db0565b80601f016020809104026020016040519081016040528092919081815260200182805461074390611db0565b80156107905780601f1061076557610100808354040283529160200191610790565b820191906000526020600020905b81548152906001019060200180831161077357829003601f168201915b5050509183525050600382015460209091019060ff1660058111156107b7576107b761193b565b60058111156107c8576107c861193b565b81526020016003820160019054906101000a900460ff1660038111156107f0576107f061193b565b60038111156108015761080161193b565b815260038201546201000090046001600160a01b031660208201526004820154604082015260058201805460609092019161083b90611db0565b80601f016020809104026020016040519081016040528092919081815260200182805461086790611db0565b80156108b45780601f10610889576101008083540402835291602001916108b4565b820191906000526020600020905b81548152906001019060200180831161089757829003601f168201915b50505091835250506006919091015460ff1615156020918201528101516040909101519295509350909150505b9193909250565b6000828152602081905260409020600101546109038161159d565b61090d83836115aa565b50505050565b6001600160a01b038116331461093c5760405163334bd91960e11b815260040160405180910390fd5b610946828261163c565b505050565b606060036000838152602001908152602001600020805480602002602001604051908101604052809291908181526020016000905b82821015610b2f5760008481526020908190206040805161010081018252600786029092018054835260018101549383019390935260028301549082015260038201546001600160a01b031660608201526004820180549192916080840191906109e990611db0565b80601f0160208091040260200160405190810160405280929190818152602001828054610a1590611db0565b8015610a625780601f10610a3757610100808354040283529160200191610a62565b820191906000526020600020905b815481529060010190602001808311610a4557829003601f168201915b5050509183525050600582015460ff808216151560208401526101009091041615156040820152600682018054606090920191610a9e90611db0565b80601f0160208091040260200160405190810160405280929190818152602001828054610aca90611db0565b8015610b175780601f10610aec57610100808354040283529160200191610b17565b820191906000526020600020905b815481529060010190602001808311610afa57829003601f168201915b50505050508152505081526020019060010190610980565b505050509050919050565b60036020528160005260406000208181548110610b5657600080fd5b60009182526020909120600790910201805460018201546002830154600384015460048501805494975092955090936001600160a01b0390911692909190610b9d90611db0565b80601f0160208091040260200160405190810160405280929190818152602001828054610bc990611db0565b8015610c165780601f10610beb57610100808354040283529160200191610c16565b820191906000526020600020905b815481529060010190602001808311610bf957829003601f168201915b505050506005830154600684018054939460ff8084169561010090940416935091610c4090611db0565b80601f0160208091040260200160405190810160405280929190818152602001828054610c6c90611db0565b8015610cb95780601f10610c8e57610100808354040283529160200191610cb9565b820191906000526020600020905b815481529060010190602001808311610c9c57829003601f168201915b5050505050905088565b6000918252602082815260408084206001600160a01b0393909316845291905290205460ff1690565b60056020528160005260406000208181548110610d0857600080fd5b90600052602060002001600091509150505481565b600080610d298161159d565b6000875111610d7f5760405162461bcd60e51b815260206004820181905260248201527f4e6f6465547261636b696e673a204e6f6465206e616d6520726571756972656460448201526064015b60405180910390fd5b6001600160a01b038416610de45760405162461bcd60e51b815260206004820152602660248201527f4e6f6465547261636b696e673a20496e76616c6964206f70657261746f72206160448201526564647265737360d01b6064820152608401610d76565b60018054906000610df483611e00565b919050555060006001549050604051806101200160405280828152602001898152602001888152602001876005811115610e3057610e3061193b565b8152602001600081526001600160a01b0387166020808301919091524260408084019190915260608301889052600160809093018390526000858152600283522083518155908301519091820190610e889082611e67565b5060408201516002820190610e9d9082611e67565b50606082015160038201805460ff19166001836005811115610ec157610ec161193b565b021790555060808201518160030160016101000a81548160ff02191690836003811115610ef057610ef061193b565b021790555060a08201516003820180546001600160a01b03909216620100000262010000600160b01b031990921691909117905560c0820151600482015560e08201516005820190610f429082611e67565b5061010091909101516006909101805460ff19169115159190911790556001600160a01b038516600090815260056020908152604082208054600181018255908352912001819055610fb47fa8c345a04d2a8ac0607aad39bfdb2ca6e358d1265f2dd655687a0837b5d74b08866115aa565b50846001600160a01b0316817fa187ce02895221d806eba603ff2e9cea5763f5637db36d120a238bc5b1c42adb8a8a8a42604051610ff59493929190611f27565b60405180910390a3979650505050505050565b60008281526002602052604090206006015460ff166110395760405162461bcd60e51b8152600401610d7690611f6b565b6110637fa8c345a04d2a8ac0607aad39bfdb2ca6e358d1265f2dd655687a0837b5d74b0833610cc3565b8061109357506110937fded9b5e0e0e3a2b3f09a0bc36ec64b9bf7a7c2319f3c4d9cff5ce48714257b2133610cc3565b806110c357506110c37feefb95e842a3287179d933b4460be539a1d5af11aa8b325bb45c5c8dc92de4ed33610cc3565b61111a5760405162461bcd60e51b815260206004820152602260248201527f4e6f6465547261636b696e673a20556e617574686f72697a6564207363616e6e60448201526132b960f11b6064820152608401610d76565b6000604051806101000160405280848152602001858152602001428152602001336001600160a01b0316815260200183815260200160011515815260200160001515815260200161116c8686426116a7565b9052600085815260036020818152604080842080546001808201835591865294839020865160079096020194855591850151918401919091558301516002830155606083015190820180546001600160a01b0319166001600160a01b039092169190911790556080820151919250829160048201906111eb9082611e67565b5060a082015160058201805460c085015115156101000261ff00199315159390931661ffff199091161791909117905560e0820151600682019061122f9082611e67565b50505060008481526004602090815260408083208684528252808320805460ff19166001179055868352600690915290819020849055513390849086907f0d47f9c3df9f6a257df9f4a38cb39a95ba3297e3f571266cb95228535273fbbd9061129b9042908890611fac565b60405180910390a482847fecf765098d5f419473319235a2266e4aa40d876d9465b486501ff8c44421a8198360e00151426040516112da929190611fcd565b60405180910390a350505050565b60008181526002602052604090206006015460ff166113195760405162461bcd60e51b8152600401610d7690611f6b565b600082815260046020908152604080832084845290915290205460ff166113995760405162461bcd60e51b815260206004820152602e60248201527f4e6f6465547261636b696e673a204261746368206e6f742063757272656e746c60448201526d792061742074686973206e6f646560901b6064820152608401610d76565b6000604051806101000160405280838152602001848152602001428152602001336001600160a01b031681526020016040518060400160405280600e81526020016d10985d18da0819195c185c9d195960921b81525081526020016000151581526020016001151581526020016114118585426116a7565b9052600084815260036020818152604080842080546001808201835591865294839020865160079096020194855591850151918401919091558301516002830155606083015190820180546001600160a01b0319166001600160a01b039092169190911790556080820151919250829160048201906114909082611e67565b5060a082015160058201805460c085015115156101000261ff00199315159390931661ffff199091161791909117905560e082015160068201906114d49082611e67565b50505060008381526004602090815260408083208584528252808320805460ff19169055600290915290206003015460059060ff16818111156115195761151961193b565b0361152e576000838152600660205260408120555b336001600160a01b031682847f96050233a5095bb67a0e5abf54b4150f08b9c8e846bdba4ceecb7da538bacc024260405161156b91815260200190565b60405180910390a4505050565b6000828152602081905260409020600101546115938161159d565b61090d838361163c565b6115a7813361170e565b50565b60006115b68383610cc3565b611634576000838152602081815260408083206001600160a01b03861684529091529020805460ff191660011790556115ec3390565b6001600160a01b0316826001600160a01b0316847f2f8788117e7eff1d82e926ec794901d17c78024a50270940304540a733656f0d60405160405180910390a45060016103e3565b5060006103e3565b60006116488383610cc3565b15611634576000838152602081815260408083206001600160a01b0386168085529252808320805460ff1916905551339286917ff6391f5c32d9c69d2a47ea670b442974b53935d1edc7fd64eb21e047a839171b9190a45060016103e3565b604080516020810185905290810183905260608181018390526bffffffffffffffffffffffff1933821b1660808301524460948301529060009060b4016040516020818303038152906040528051906020012090506117058161174b565b95945050505050565b6117188282610cc3565b6117475760405163e2517d3f60e01b81526001600160a01b038216600482015260248101839052604401610d76565b5050565b604080518082018252601081526f181899199a1a9b1b9c1cb0b131b232b360811b6020820152815182815260608181018452926000919060208201818036833701905050905060005b60208110156118a3578260048683602081106117b2576117b2611fef565b1a60f81b6001600160f81b031916901c60f81c60ff16815181106117d8576117d8611fef565b01602001516001600160f81b031916826117f3836002612005565b8151811061180357611803611fef565b60200101906001600160f81b031916908160001a9053508285826020811061182d5761182d611fef565b825191901a600f1690811061184457611844611fef565b01602001516001600160f81b0319168261185f836002612005565b61186a90600161201c565b8151811061187a5761187a611fef565b60200101906001600160f81b031916908160001a9053508061189b81611e00565b915050611794565b509392505050565b6000602082840312156118bd57600080fd5b81356001600160e01b0319811681146118d557600080fd5b9392505050565b6000602082840312156118ee57600080fd5b5035919050565b6000815180845260005b8181101561191b576020818501810151868301820152016118ff565b506000602082860101526020601f19601f83011685010191505092915050565b634e487b7160e01b600052602160045260246000fd5b600681106119615761196161193b565b9052565b60006101208b835280602084015261197f8184018c6118f5565b90508281036040840152611993818b6118f5565b90506119a2606084018a611951565b600488106119b2576119b261193b565b608083018890526001600160a01b03871660a084015260c0830186905282810360e08401526119e181866118f5565b9150508215156101008301529a9950505050505050505050565b838152606060208201526000611a1460608301856118f5565b8281036040840152611a2681856118f5565b9695505050505050565b80356001600160a01b0381168114611a4757600080fd5b919050565b60008060408385031215611a5f57600080fd5b82359150611a6f60208401611a30565b90509250929050565b60006020808301818452808551808352604092508286019150828160051b87010184880160005b83811015611b4957888303603f19018552815180518452878101518885015286810151878501526060808201516001600160a01b0316908501526080808201516101008287018190529190611af6838801826118f5565b9250505060a080830151611b0d8288018215159052565b505060c08281015115159086015260e09182015185820392860192909252611b3581836118f5565b968901969450505090860190600101611a9f565b509098975050505050505050565b60008060408385031215611b6a57600080fd5b50508035926020909101359150565b60006101008a835289602084015288604084015260018060a01b0388166060840152806080840152611bad818401886118f5565b905085151560a084015284151560c084015282810360e0840152611bd181856118f5565b9b9a5050505050505050505050565b60008060408385031215611bf357600080fd5b611bfc83611a30565b946020939093013593505050565b634e487b7160e01b600052604160045260246000fd5b600082601f830112611c3157600080fd5b813567ffffffffffffffff80821115611c4c57611c4c611c0a565b604051601f8301601f19908116603f01168101908282118183101715611c7457611c74611c0a565b81604052838152866020858801011115611c8d57600080fd5b836020870160208301376000602085830101528094505050505092915050565b600080600080600060a08688031215611cc557600080fd5b853567ffffffffffffffff80821115611cdd57600080fd5b611ce989838a01611c20565b96506020880135915080821115611cff57600080fd5b611d0b89838a01611c20565b95506040880135915060068210611d2157600080fd5b819450611d3060608901611a30565b93506080880135915080821115611d4657600080fd5b50611d5388828901611c20565b9150509295509295909350565b600080600060608486031215611d7557600080fd5b8335925060208401359150604084013567ffffffffffffffff811115611d9a57600080fd5b611da686828701611c20565b9150509250925092565b600181811c90821680611dc457607f821691505b602082108103611de457634e487b7160e01b600052602260045260246000fd5b50919050565b634e487b7160e01b600052601160045260246000fd5b600060018201611e1257611e12611dea565b5060010190565b601f82111561094657600081815260208120601f850160051c81016020861015611e405750805b601f850160051c820191505b81811015611e5f57828155600101611e4c565b505050505050565b815167ffffffffffffffff811115611e8157611e81611c0a565b611e9581611e8f8454611db0565b84611e19565b602080601f831160018114611eca5760008415611eb25750858301515b600019600386901b1c1916600185901b178555611e5f565b600085815260208120601f198616915b82811015611ef957888601518255948401946001909101908401611eda565b5085821015611f175787850151600019600388901b60f8161c191681555b5050505050600190811b01905550565b608081526000611f3a60808301876118f5565b8281036020840152611f4c81876118f5565b915050611f5c6040830185611951565b82606083015295945050505050565b60208082526021908201527f4e6f6465547261636b696e673a204e6f646520646f6573206e6f7420657869736040820152601d60fa1b606082015260800190565b828152604060208201526000611fc560408301846118f5565b949350505050565b604081526000611fe060408301856118f5565b90508260208301529392505050565b634e487b7160e01b600052603260045260246000fd5b80820281158282048414176103e3576103e3611dea565b808201808211156103e3576103e3611dea56fea26469706673582212207828a7be6163ab6a76f00f01ae9f10da1472f2169afd6b7f968556c121952a7a64736f6c63430008140033",
  "linkReferences": {},
  "deployedLinkReferences": {}
}