{"blockchain/contracts/NodeTrackingContract.sol":{"NodeTrackingContract":{"abi":[{"inputs":[],"stateMutability":"nonpayable","type":"constructor"},{"inputs":[],"name":"AccessControlBadConfirmation","type":"error"},{"inputs":[{"internalType":"address","name":"account","type":"address"},{"internalType":"bytes32","name":"neededRole","type":"bytes32"}],"name":"AccessControlUnauthorizedAccount","type":"error"},{"anonymous":false,"inputs":[{"indexed":true,"internalType":"uint256","name":"batchId","type":"uint256"},{"indexed":true,"internalType":"uint256","name":"nodeId","type":"uint256"},{"indexed":true,"internalType":"address","name":"scanner","type":"address"},{"indexed":false,"internalType":"uint256","name":"timestamp","type":"uint256"},{"indexed":false,"internalType":"string","name":"notes","type":"string"}],"name":"BatchEnteredNode","type":"event"},{"anonymous":false,"inputs":[{"indexed":true,"internalType":"uint256","name":"batchId","type":"uint256"},{"indexed":true,"internalType":"uint256","name":"nodeId","type":"uint256"},{"indexed":true,"internalType":"address","name":"scanner","type":"address"},{"indexed":false,"internalType":"uint256","name":"timestamp","type":"uint256"}],"name":"BatchExitedNode","type":"event"},{"anonymous":false,"inputs":[{"indexed":true,"internalType":"uint256","name":"nodeId","type":"uint256"},{"indexed":false,"internalType":"string","name":"name","type":"string"},{"indexed":false,"internalType":"string","name":"location","type":"string"},{"indexed":false,"internalType":"enum NodeTrackingContract.NodeType","name":"nodeType","type":"uint8"},{"indexed":true,"internalType":"address","name":"operator","type":"address"},{"indexed":false,"internalType":"uint256","name":"timestamp","type":"uint256"}],"name":"NodeCreated","type":"event"},{"anonymous":false,"inputs":[{"indexed":true,"internalType":"uint256","name":"nodeId","type":"uint256"},{"indexed":false,"internalType":"enum NodeTrackingContract.NodeStatus","name":"newStatus","type":"uint8"},{"indexed":false,"internalType":"uint256","name":"timestamp","type":"uint256"}],"name":"NodeStatusUpdated","type":"event"},{"anonymous":false,"inputs":[{"indexed":true,"internalType":"bytes32","name":"role","type":"bytes32"},{"indexed":true,"internalType":"bytes32","name":"previousAdminRole","type":"bytes32"},{"indexed":true,"internalType":"bytes32","name":"newAdminRole","type":"bytes32"}],"name":"RoleAdminChanged","type":"event"},{"anonymous":false,"inputs":[{"indexed":true,"internalType":"bytes32","name":"role","type":"bytes32"},{"indexed":true,"internalType":"address","name":"account","type":"address"},{"indexed":true,"internalType":"address","name":"sender","type":"address"}],"name":"RoleGranted","type":"event"},{"anonymous":false,"inputs":[{"indexed":true,"internalType":"bytes32","name":"role","type":"bytes32"},{"indexed":true,"internalType":"address","name":"account","type":"address"},{"indexed":true,"internalType":"address","name":"sender","type":"address"}],"name":"RoleRevoked","type":"event"},{"anonymous":false,"inputs":[{"indexed":true,"internalType":"uint256","name":"batchId","type":"uint256"},{"indexed":true,"internalType":"uint256","name":"nodeId","type":"uint256"},{"indexed":false,"internalType":"string","name":"verificationHash","type":"string"},{"indexed":false,"internalType":"uint256","name":"timestamp","type":"uint256"}],"name":"TransitVerified","type":"event"},{"inputs":[],"name":"DEFAULT_ADMIN_ROLE","outputs":[{"internalType":"bytes32","name":"","type":"bytes32"}],"stateMutability":"view","type":"function"},{"inputs":[],"name":"LOGISTICS_ROLE","outputs":[{"internalType":"bytes32","name":"","type":"bytes32"}],"stateMutability":"view","type":"function"},{"inputs":[],"name":"MANUFACTURER_ROLE","outputs":[{"internalType":"bytes32","name":"","type":"bytes32"}],"stateMutability":"view","type":"function"},{"inputs":[],"name":"NODE_OPERATOR_ROLE","outputs":[{"internalType":"bytes32","name":"","type":"bytes32"}],"stateMutability":"view","type":"function"},{"inputs":[],"name":"SUPPLIER_ROLE","outputs":[{"internalType":"bytes32","name":"","type":"bytes32"}],"stateMutability":"view","type":"function"},{"inputs":[{"internalType":"uint256","name":"","type":"uint256"},{"internalType":"uint256","name":"","type":"uint256"}],"name":"batchAtNode","outputs":[{"internalType":"bool","name":"","type":"bool"}],"stateMutability":"view","type":"function"},{"inputs":[{"internalType":"uint256","name":"","type":"uint256"},{"internalType":"uint256","name":"","type":"uint256"}],"name":"batchTransitHistory","outputs":[{"internalType":"uint256","name":"nodeId","type":"uint256"},{"internalType":"uint256","name":"batchId","type":"uint256"},{"internalType":"uint256","name":"timestamp","type":"uint256"},{"internalType":"address","name":"scanner","type":"address"},{"internalType":"string","name":"notes","type":"string"},{"internalType":"bool","name":"isEntryPoint","type":"bool"},{"internalType":"bool","name":"isExitPoint","type":"bool"},{"internalType":"string","name":"verificationHash","type":"string"}],"stateMutability":"view","type":"function"},{"inputs":[{"internalType":"string","name":"_name","type":"string"},{"internalType":"string","name":"_location","type":"string"},{"internalType":"enum NodeTrackingContract.NodeType","name":"_nodeType","type":"uint8"},{"internalType":"address","name":"_operator","type":"address"},{"internalType":"string","name":"_coordinates","type":"string"}],"name":"createNode","outputs":[{"internalType":"uint256","name":"","type":"uint256"}],"stateMutability":"nonpayable","type":"function"},{"inputs":[{"internalType":"uint256","name":"","type":"uint256"}],"name":"currentNodeLocation","outputs":[{"internalType":"uint256","name":"","type":"uint256"}],"stateMutability":"view","type":"function"},{"inputs":[{"internalType":"uint256","name":"_batchId","type":"uint256"}],"name":"getCurrentLocation","outputs":[{"internalType":"uint256","name":"nodeId","type":"uint256"},{"internalType":"string","name":"nodeName","type":"string"},{"internalType":"string","name":"location","type":"string"}],"stateMutability":"view","type":"function"},{"inputs":[{"internalType":"bytes32","name":"role","type":"bytes32"}],"name":"getRoleAdmin","outputs":[{"internalType":"bytes32","name":"","type":"bytes32"}],"stateMutability":"view","type":"function"},{"inputs":[{"internalType":"uint256","name":"_batchId","type":"uint256"}],"name":"getTransitHistory","outputs":[{"components":[{"internalType":"uint256","name":"nodeId","type":"uint256"},{"internalType":"uint256","name":"batchId","type":"uint256"},{"internalType":"uint256","name":"timestamp","type":"uint256"},{"internalType":"address","name":"scanner","type":"address"},{"internalType":"string","name":"notes","type":"string"},{"internalType":"bool","name":"isEntryPoint","type":"bool"},{"internalType":"bool","name":"isExitPoint","type":"bool"},{"internalType":"string","name":"verificationHash","type":"string"}],"internalType":"struct NodeTrackingContract.TransitRecord[]","name":"","type":"tuple[]"}],"stateMutability":"view","type":"function"},{"inputs":[{"internalType":"bytes32","name":"role","type":"bytes32"},{"internalType":"address","name":"account","type":"address"}],"name":"grantRole","outputs":[],"stateMutability":"nonpayable","type":"function"},{"inputs":[{"internalType":"bytes32","name":"role","type":"bytes32"},{"internalType":"address","name":"account","type":"address"}],"name":"hasRole","outputs":[{"internalType":"bool","name":"","type":"bool"}],"stateMutability":"view","type":"function"},{"inputs":[{"internalType":"uint256","name":"","type":"uint256"}],"name":"nodes","outputs":[{"internalType":"uint256","name":"id","type":"uint256"},{"internalType":"string","name":"name","type":"string"},{"internalType":"string","name":"location","type":"string"},{"internalType":"enum NodeTrackingContract.NodeType","name":"nodeType","type":"uint8"},{"internalType":"enum NodeTrackingContract.NodeStatus","name":"status","type":"uint8"},{"internalType":"address","name":"operator","type":"address"},{"internalType":"uint256","name":"createdAt","type":"uint256"},{"internalType":"string","name":"coordinates","type":"string"},{"internalType":"bool","name":"exists","type":"bool"}],"stateMutability":"view","type":"function"},{"inputs":[{"internalType":"address","name":"","type":"address"},{"internalType":"uint256","name":"","type":"uint256"}],"name":"operatorNodes","outputs":[{"internalType":"uint256","name":"","type":"uint256"}],"stateMutability":"view","type":"function"},{"inputs":[{"internalType":"uint256","name":"_batchId","type":"uint256"},{"internalType":"uint256","name":"_nodeId","type":"uint256"},{"internalType":"string","name":"_notes","type":"string"}],"name":"recordBatchEntry","outputs":[],"stateMutability":"nonpayable","type":"function"},{"inputs":[{"internalType":"uint256","name":"_batchId","type":"uint256"},{"internalType":"uint256","name":"_nodeId","type":"uint256"}],"name":"recordBatchExit","outputs":[],"stateMutability":"nonpayable","type":"function"},{"inputs":[{"internalType":"bytes32","name":"role","type":"bytes32"},{"internalType":"address","name":"callerConfirmation","type":"address"}],"name":"renounceRole","outputs":[],"stateMutability":"nonpayable","type":"function"},{"inputs":[{"internalType":"bytes32","name":"role","type":"bytes32"},{"internalType":"address","name":"account","type":"address"}],"name":"revokeRole","outputs":[],"stateMutability":"nonpayable","type":"function"},{"inputs":[{"internalType":"bytes4","name":"interfaceId","type":"bytes4"}],"name":"supportsInterface","outputs":[{"internalType":"bool","name":"","type":"bool"}],"stateMutability":"view","type":"function"}],"evm":{"bytecode":{"linkReferences":{},"object":"60806040523480156200001157600080fd5b506200001f60003362000026565b50620000d5565b6000828152602081815260408083206001600160a01b038516845290915281205460ff16620000cb576000838152602081815260408083206001600160a01b03861684529091529020805460ff19166001179055620000823390565b6001600160a01b0316826001600160a01b0316847f2f8788117e7eff1d82e926ec794901d17c78024a50270940304540a733656f0d60405160405180910390a4506001620000cf565b5060005b92915050565b61206580620000e56000396000f3fe608060405234801561001057600080fd5b50600436106101375760003560e01c806391d14854116100b8578063a4a089a01161007c578063a4a089a014610311578063bd80537b14610324578063c602d3fb14610337578063cf3eb3401461035e578063d547741f14610371578063ff3082fe1461038457600080fd5b806391d1485414610295578063965288b0146102a85780639b070b00146102cf578063a217fddf146102e2578063a29508fc146102ea57600080fd5b80632f2ff15d116100ff5780632f2ff15d146101ff57806336568abe146102145780635cd7bf24146102275780637dfd1fea1461024e57806389581b491461026e57600080fd5b806301ffc9a71461013c578063049193dd146101645780631c53c2801461019257806323bb1835146101ba578063248a9ca3146101dc575b600080fd5b61014f61014a3660046118ab565b6103b2565b60405190151581526020015b60405180910390f35b6101846101723660046118dc565b60066020526000908152604090205481565b60405190815260200161015b565b6101a56101a03660046118dc565b6103e9565b60405161015b99989796959493929190611965565b6101cd6101c83660046118dc565b6105e1565b60405161015b939291906119fb565b6101846101ea3660046118dc565b60009081526020819052604090206001015490565b61021261020d366004611a4c565b6108e8565b005b610212610222366004611a4c565b610913565b6101847fa8c345a04d2a8ac0607aad39bfdb2ca6e358d1265f2dd655687a0837b5d74b0881565b61026161025c3660046118dc565b61094b565b60405161015b9190611a78565b61028161027c366004611b57565b610b3a565b60405161015b989796959493929190611b79565b61014f6102a3366004611a4c565b610cc3565b6101847feefb95e842a3287179d933b4460be539a1d5af11aa8b325bb45c5c8dc92de4ed81565b6101846102dd366004611be0565b610cec565b610184600081565b6101847fd1ae8bbdabd60d63e418b84f5ad6f9cba90092c9816d7724d85f0d4e4bea2c6081565b61018461031f366004611cad565b610d1d565b610212610332366004611d60565b611008565b6101847fded9b5e0e0e3a2b3f09a0bc36ec64b9bf7a7c2319f3c4d9cff5ce48714257b2181565b61021261036c366004611b57565b6112e8565b61021261037f366004611a4c565b611578565b61014f610392366004611b57565b600460209081526000928352604080842090915290825290205460ff1681565b60006001600160e01b03198216637965db0b60e01b14806103e357506301ffc9a760e01b6001600160e01b03198316145b92915050565b6002602052600090815260409020805460018201805491929161040b90611db0565b80601f016020809104026020016040519081016040528092919081815260200182805461043790611db0565b80156104845780601f1061045957610100808354040283529160200191610484565b820191906000526020600020905b81548152906001019060200180831161046757829003601f168201915b50505050509080600201805461049990611db0565b80601f01602080910402602001604051908101604052809291908181526020018280546104c590611db0565b80156105125780601f106104e757610100808354040283529160200191610512565b820191906000526020600020905b8154815290600101906020018083116104f557829003601f168201915b5050505060038301546004840154600585018054949560ff8085169661010086049091169550620100009094046001600160a01b03169390919061055590611db0565b80601f016020809104026020016040519081016040528092919081815260200182805461058190611db0565b80156105ce5780601f106105a3576101008083540402835291602001916105ce565b820191906000526020600020905b8154815290600101906020018083116105b157829003601f168201915b5050506006909301549192505060ff1689565b600081815260066020526040812054606090819080840361064a576000604051806040016040528060078152602001662ab735b737bbb760c91b815250604051806040016040528060078152602001662ab735b737bbb760c91b815250935093509350506108e1565b600060026000838152602001908152602001600020604051806101200160405290816000820154815260200160018201805461068590611db0565b80601f01602080910402602001604051908101604052809291908181526020018280546106b190611db0565b80156106fe5780601f106106d3576101008083540402835291602001916106fe565b820191906000526020600020905b8154815290600101906020018083116106e157829003601f168201915b5050505050815260200160028201805461071790611db0565b80601f016020809104026020016040519081016040528092919081815260200182805461074390611db0565b80156107905780601f1061076557610100808354040283529160200191610790565b820191906000526020600020905b81548152906001019060200180831161077357829003601f168201915b5050509183525050600382015460209091019060ff1660058111156107b7576107b761193b565b60058111156107c8576107c861193b565b81526020016003820160019054906101000a900460ff1660038111156107f0576107f061193b565b60038111156108015761080161193b565b815260038201546201000090046001600160a01b031660208201526004820154604082015260058201805460609092019161083b90611db0565b80601f016020809104026020016040519081016040528092919081815260200182805461086790611db0565b80156108b45780601f10610889576101008083540402835291602001916108b4565b820191906000526020600020905b81548152906001019060200180831161089757829003601f168201915b50505091835250506006919091015460ff1615156020918201528101516040909101519295509350909150505b9193909250565b6000828152602081905260409020600101546109038161159d565b61090d83836115aa565b50505050565b6001600160a01b038116331461093c5760405163334bd91960e11b815260040160405180910390fd5b610946828261163c565b505050565b606060036000838152602001908152602001600020805480602002602001604051908101604052809291908181526020016000905b82821015610b2f5760008481526020908190206040805161010081018252600786029092018054835260018101549383019390935260028301549082015260038201546001600160a01b031660608201526004820180549192916080840191906109e990611db0565b80601f0160208091040260200160405190810160405280929190818152602001828054610a1590611db0565b8015610a625780601f10610a3757610100808354040283529160200191610a62565b820191906000526020600020905b815481529060010190602001808311610a4557829003601f168201915b5050509183525050600582015460ff808216151560208401526101009091041615156040820152600682018054606090920191610a9e90611db0565b80601f0160208091040260200160405190810160405280929190818152602001828054610aca90611db0565b8015610b175780601f10610aec57610100808354040283529160200191610b17565b820191906000526020600020905b815481529060010190602001808311610afa57829003601f168201915b50505050508152505081526020019060010190610980565b505050509050919050565b60036020528160005260406000208181548110610b5657600080fd5b60009182526020909120600790910201805460018201546002830154600384015460048501805494975092955090936001600160a01b0390911692909190610b9d90611db0565b80601f0160208091040260200160405190810160405280929190818152602001828054610bc990611db0565b8015610c165780601f10610beb57610100808354040283529160200191610c16565b820191906000526020600020905b815481529060010190602001808311610bf957829003601f168201915b505050506005830154600684018054939460ff8084169561010090940416935091610c4090611db0565b80601f0160208091040260200160405190810160405280929190818152602001828054610c6c90611db0565b8015610cb95780601f10610c8e57610100808354040283529160200191610cb9565b820191906000526020600020905b815481529060010190602001808311610c9c57829003601f168201915b5050505050905088565b6000918252602082815260408084206001600160a01b0393909316845291905290205460ff1690565b60056020528160005260406000208181548110610d0857600080fd5b90600052602060002001600091509150505481565b600080610d298161159d565b6000875111610d7f5760405162461bcd60e51b815260206004820181905260248201527f4e6f6465547261636b696e673a204e6f6465206e616d6520726571756972656460448201526064015b60405180910390fd5b6001600160a01b038416610de45760405162461bcd60e51b815260206004820152602660248201527f4e6f6465547261636b696e673a20496e76616c6964206f70657261746f72206160448201526564647265737360d01b6064820152608401610d76565b60018054906000610df483611e00565b919050555060006001549050604051806101200160405280828152602001898152602001888152602001876005811115610e3057610e3061193b565b8152602001600081526001600160a01b0387166020808301919091524260408084019190915260608301889052600160809093018390526000858152600283522083518155908301519091820190610e889082611e67565b5060408201516002820190610e9d9082611e67565b50606082015160038201805460ff19166001836005811115610ec157610ec161193b565b021790555060808201518160030160016101000a81548160ff02191690836003811115610ef057610ef061193b565b021790555060a08201516003820180546001600160a01b03909216620100000262010000600160b01b031990921691909117905560c0820151600482015560e08201516005820190610f429082611e67565b5061010091909101516006909101805460ff19169115159190911790556001600160a01b038516600090815260056020908152604082208054600181018255908352912001819055610fb47fa8c345a04d2a8ac0607aad39bfdb2ca6e358d1265f2dd655687a0837b5d74b08866115aa565b50846001600160a01b0316817fa187ce02895221d806eba603ff2e9cea5763f5637db36d120a238bc5b1c42adb8a8a8a42604051610ff59493929190611f27565b60405180910390a3979650505050505050565b60008281526002602052604090206006015460ff166110395760405162461bcd60e51b8152600401610d7690611f6b565b6110637fa8c345a04d2a8ac0607aad39bfdb2ca6e358d1265f2dd655687a0837b5d74b0833610cc3565b8061109357506110937fded9b5e0e0e3a2b3f09a0bc36ec64b9bf7a7c2319f3c4d9cff5ce48714257b2133610cc3565b806110c357506110c37feefb95e842a3287179d933b4460be539a1d5af11aa8b325bb45c5c8dc92de4ed33610cc3565b61111a5760405162461bcd60e51b815260206004820152602260248201527f4e6f6465547261636b696e673a20556e617574686f72697a6564207363616e6e60448201526132b960f11b6064820152608401610d76565b6000604051806101000160405280848152602001858152602001428152602001336001600160a01b0316815260200183815260200160011515815260200160001515815260200161116c8686426116a7565b9052600085815260036020818152604080842080546001808201835591865294839020865160079096020194855591850151918401919091558301516002830155606083015190820180546001600160a01b0319166001600160a01b039092169190911790556080820151919250829160048201906111eb9082611e67565b5060a082015160058201805460c085015115156101000261ff00199315159390931661ffff199091161791909117905560e0820151600682019061122f9082611e67565b50505060008481526004602090815260408083208684528252808320805460ff19166001179055868352600690915290819020849055513390849086907f0d47f9c3df9f6a257df9f4a38cb39a95ba3297e3f571266cb95228535273fbbd9061129b9042908890611fac565b60405180910390a482847fecf765098d5f419473319235a2266e4aa40d876d9465b486501ff8c44421a8198360e00151426040516112da929190611fcd565b60405180910390a350505050565b60008181526002602052604090206006015460ff166113195760405162461bcd60e51b8152600401610d7690611f6b565b600082815260046020908152604080832084845290915290205460ff166113995760405162461bcd60e51b815260206004820152602e60248201527f4e6f6465547261636b696e673a204261746368206e6f742063757272656e746c60448201526d792061742074686973206e6f646560901b6064820152608401610d76565b6000604051806101000160405280838152602001848152602001428152602001336001600160a01b031681526020016040518060400160405280600e81526020016d10985d18da0819195c185c9d195960921b81525081526020016000151581526020016001151581526020016114118585426116a7565b9052600084815260036020818152604080842080546001808201835591865294839020865160079096020194855591850151918401919091558301516002830155606083015190820180546001600160a01b0319166001600160a01b039092169190911790556080820151919250829160048201906114909082611e67565b5060a082015160058201805460c085015115156101000261ff00199315159390931661ffff199091161791909117905560e082015160068201906114d49082611e67565b50505060008381526004602090815260408083208584528252808320805460ff19169055600290915290206003015460059060ff16818111156115195761151961193b565b0361152e576000838152600660205260408120555b336001600160a01b031682847f96050233a5095bb67a0e5abf54b4150f08b9c8e846bdba4ceecb7da538bacc024260405161156b91815260200190565b60405180910390a4505050565b6000828152602081905260409020600101546115938161159d565b61090d838361163c565b6115a7813361170e565b50565b60006115b68383610cc3565b611634576000838152602081815260408083206001600160a01b03861684529091529020805460ff191660011790556115ec3390565b6001600160a01b0316826001600160a01b0316847f2f8788117e7eff1d82e926ec794901d17c78024a50270940304540a733656f0d60405160405180910390a45060016103e3565b5060006103e3565b60006116488383610cc3565b15611634576000838152602081815260408083206001600160a01b0386168085529252808320805460ff1916905551339286917ff6391f5c32d9c69d2a47ea670b442974b53935d1edc7fd64eb21e047a839171b9190a45060016103e3565b604080516020810185905290810183905260608181018390526bffffffffffffffffffffffff1933821b1660808301524460948301529060009060b4016040516020818303038152906040528051906020012090506117058161174b565b95945050505050565b6117188282610cc3565b6117475760405163e2517d3f60e01b81526001600160a01b038216600482015260248101839052604401610d76565b5050565b604080518082018252601081526f181899199a1a9b1b9c1cb0b131b232b360811b6020820152815182815260608181018452926000919060208201818036833701905050905060005b60208110156118a3578260048683602081106117b2576117b2611fef565b1a60f81b6001600160f81b031916901c60f81c60ff16815181106117d8576117d8611fef565b01602001516001600160f81b031916826117f3836002612005565b8151811061180357611803611fef565b60200101906001600160f81b031916908160001a9053508285826020811061182d5761182d611fef565b825191901a600f1690811061184457611844611fef565b01602001516001600160f81b0319168261185f836002612005565b61186a90600161201c565b8151811061187a5761187a611fef565b60200101906001600160f81b031916908160001a9053508061189b81611e00565b915050611794565b509392505050565b6000602082840312156118bd57600080fd5b81356001600160e01b0319811681146118d557600080fd5b9392505050565b6000602082840312156118ee57600080fd5b5035919050565b6000815180845260005b8181101561191b576020818501810151868301820152016118ff565b506000602082860101526020601f19601f83011685010191505092915050565b634e487b7160e01b600052602160045260246000fd5b600681106119615761196161193b565b9052565b60006101208b835280602084015261197f8184018c6118f5565b90508281036040840152611993818b6118f5565b90506119a2606084018a611951565b600488106119b2576119b261193b565b608083018890526001600160a01b03871660a084015260c0830186905282810360e08401526119e181866118f5565b9150508215156101008301529a9950505050505050505050565b838152606060208201526000611a1460608301856118f5565b8281036040840152611a2681856118f5565b9695505050505050565b80356001600160a01b0381168114611a4757600080fd5b919050565b60008060408385031215611a5f57600080fd5b82359150611a6f60208401611a30565b90509250929050565b60006020808301818452808551808352604092508286019150828160051b87010184880160005b83811015611b4957888303603f19018552815180518452878101518885015286810151878501526060808201516001600160a01b0316908501526080808201516101008287018190529190611af6838801826118f5565b9250505060a080830151611b0d8288018215159052565b505060c08281015115159086015260e09182015185820392860192909252611b3581836118f5565b968901969450505090860190600101611a9f565b509098975050505050505050565b60008060408385031215611b6a57600080fd5b50508035926020909101359150565b60006101008a835289602084015288604084015260018060a01b0388166060840152806080840152611bad818401886118f5565b905085151560a084015284151560c084015282810360e0840152611bd181856118f5565b9b9a5050505050505050505050565b60008060408385031215611bf357600080fd5b611bfc83611a30565b946020939093013593505050565b634e487b7160e01b600052604160045260246000fd5b600082601f830112611c3157600080fd5b813567ffffffffffffffff80821115611c4c57611c4c611c0a565b604051601f8301601f19908116603f01168101908282118183101715611c7457611c74611c0a565b81604052838152866020858801011115611c8d57600080fd5b836020870160208301376000602085830101528094505050505092915050565b600080600080600060a08688031215611cc557600080fd5b853567ffffffffffffffff80821115611cdd57600080fd5b611ce989838a01611c20565b96506020880135915080821115611cff57600080fd5b611d0b89838a01611c20565b95506040880135915060068210611d2157600080fd5b819450611d3060608901611a30565b93506080880135915080821115611d4657600080fd5b50611d5388828901611c20565b9150509295509295909350565b600080600060608486031215611d7557600080fd5b8335925060208401359150604084013567ffffffffffffffff811115611d9a57600080fd5b611da686828701611c20565b9150509250925092565b600181811c90821680611dc457607f821691505b602082108103611de457634e487b7160e01b600052602260045260246000fd5b50919050565b634e487b7160e01b600052601160045260246000fd5b600060018201611e1257611e12611dea565b5060010190565b601f82111561094657600081815260208120601f850160051c81016020861015611e405750805b601f850160051c820191505b81811015611e5f57828155600101611e4c565b505050505050565b815167ffffffffffffffff811115611e8157611e81611c0a565b611e9581611e8f8454611db0565b84611e19565b602080601f831160018114611eca5760008415611eb25750858301515b600019600386901b1c1916600185901b178555611e5f565b600085815260208120601f198616915b82811015611ef957888601518255948401946001909101908401611eda565b5085821015611f175787850151600019600388901b60f8161c191681555b5050505050600190811b01905550565b608081526000611f3a60808301876118f5565b8281036020840152611f4c81876118f5565b915050611f5c6040830185611951565b82606083015295945050505050565b60208082526021908201527f4e6f6465547261636b696e673a204e6f646520646f6573206e6f7420657869736040820152601d60fa1b606082015260800190565b828152604060208201526000611fc560408301846118f5565b949350505050565b604081526000611fe060408301856118f5565b90508260208301529392505050565b634e487b7160e01b600052603260045260246000fd5b80820281158282048414176103e3576103e3611dea565b808201808211156103e3576103e3611dea56fea26469706673582212207828a7be6163ab6a76f00f01ae9f10da1472f2169afd6b7f968556c121952a7a64736f6c63430008140033","opcodes":"PUSH1 0x80 PUSH1 0x40 MSTORE CALLVALUE DUP1 ISZERO PUSH3 0x11 JUMPI PUSH1 0x0 DUP1 REVERT JUMPDEST POP PUSH3 0x1F PUSH1 0x0 CALLER PUSH3 0x26 JUMP JUMPDEST POP PUSH3 0xD5 JUMP JUMPDEST PUSH1 0x0 DUP3 DUP2 MSTORE PUSH1 0x20 DUP2 DUP2 MSTORE PUSH1 0x40 DUP1 DUP4 KECCAK256 PUSH1 0x1 PUSH1 0x1 PUSH1 0xA0 SHL SUB DUP6 AND DUP5 MSTORE SWAP1 SWAP2 MSTORE DUP2 KECCAK256 SLOAD PUSH1 0xFF AND PUSH3 0xCB JUMPI PUSH1 0x0 DUP4 DUP2 MSTORE PUSH1 0x20 DUP2 DUP2 MSTORE PUSH1 0x40 DUP1 DUP4 KECCAK256 PUSH1 0x1 PUSH1 0x1 PUSH1 0xA0 SHL SUB DUP7 AND DUP5 MSTORE SWAP1 SWAP2 MSTORE SWAP1 KECCAK256 DUP1 SLOAD PUSH1 0xFF NOT AND PUSH1 0x1 OR SWAP1 SSTORE PUSH3 0x82 CALLER SWAP1 JUMP JUMPDEST PUSH1 0x1 PUSH1 0x1 PUSH1 0xA0 SHL SUB AND DUP3 PUSH1 0x1 PUSH1 0x1 PUSH1 0xA0 SHL SUB AND DUP5 PUSH32 0x2F8788117E7EFF1D82E926EC794901D17C78024A50270940304540A733656F0D PUSH1 0x40 MLOAD PUSH1 0x40 MLOAD DUP1 SWAP2 SUB SWAP1 LOG4 POP PUSH1 0x1 PUSH3 0xCF JUMP JUMPDEST POP PUSH1 0x0 JUMPDEST SWAP3 SWAP2 POP POP JUMP JUMPDEST PUSH2 0x2065 DUP1 PUSH3 0xE5 PUSH1 0x0 CODECOPY PUSH1 0x0 RETURN INVALID PUSH1 0x80 PUSH1 0x40 MSTORE CALLVALUE DUP1 ISZERO PUSH2 0x10 JUMPI PUSH1 0x0 DUP1 REVERT JUMPDEST POP PUSH1 0x4 CALLDATASIZE LT PUSH2 0x137 JUMPI PUSH1 0x0 CALLDATALOAD PUSH1 0xE0 SHR DUP1 PUSH4 0x91D14854 GT PUSH2 0xB8 JUMPI DUP1 PUSH4 0xA4A089A0 GT PUSH2 0x7C JUMPI DUP1 PUSH4 0xA4A089A0 EQ PUSH2 0x311 JUMPI DUP1 PUSH4 0xBD80537B EQ PUSH2 0x324 JUMPI DUP1 PUSH4 0xC602D3FB EQ PUSH2 0x337 JUMPI DUP1 PUSH4 0xCF3EB340 EQ PUSH2 0x35E JUMPI DUP1 PUSH4 0xD547741F EQ PUSH2 0x371 JUMPI DUP1 PUSH4 0xFF3082FE EQ PUSH2 0x384 JUMPI PUSH1 0x0 DUP1 REVERT JUMPDEST DUP1 PUSH4 0x91D14854 EQ PUSH2 0x295 JUMPI DUP1 PUSH4 0x965288B0 EQ PUSH2 0x2A8 JUMPI DUP1 PUSH4 0x9B070B00 EQ PUSH2 0x2CF JUMPI DUP1 PUSH4 0xA217FDDF EQ PUSH2 0x2E2 JUMPI DUP1 PUSH4 0xA29508FC EQ PUSH2 0x2EA JUMPI PUSH1 0x0 DUP1 REVERT JUMPDEST DUP1 PUSH4 0x2F2FF15D GT PUSH2 0xFF JUMPI DUP1 PUSH4 0x2F2FF15D EQ PUSH2 0x1FF JUMPI DUP1 PUSH4 0x36568ABE EQ PUSH2 0x214 JUMPI DUP1 PUSH4 0x5CD7BF24 EQ PUSH2 0x227 JUMPI DUP1 PUSH4 0x7DFD1FEA EQ PUSH2 0x24E JUMPI DUP1 PUSH4 0x89581B49 EQ PUSH2 0x26E JUMPI PUSH1 0x0 DUP1 REVERT JUMPDEST DUP1 PUSH4 0x1FFC9A7 EQ PUSH2 0x13C JUMPI DUP1 PUSH4 0x49193DD EQ PUSH2 0x164 JUMPI DUP1 PUSH4 0x1C53C280 EQ PUSH2 0x192 JUMPI DUP1 PUSH4 0x23BB1835 EQ PUSH2 0x1BA JUMPI DUP1 PUSH4 0x248A9CA3 EQ PUSH2 0x1DC JUMPI JUMPDEST PUSH1 0x0 DUP1 REVERT JUMPDEST PUSH2 0x14F PUSH2 0x14A CALLDATASIZE PUSH1 0x4 PUSH2 0x18AB JUMP JUMPDEST PUSH2 0x3B2 JUMP JUMPDEST PUSH1 0x40 MLOAD SWAP1 ISZERO ISZERO DUP2 MSTORE PUSH1 0x20 ADD JUMPDEST PUSH1 0x40 MLOAD DUP1 SWAP2 SUB SWAP1 RETURN JUMPDEST PUSH2 0x184 PUSH2 0x172 CALLDATASIZE PUSH1 0x4 PUSH2 0x18DC JUMP JUMPDEST PUSH1 0x6 PUSH1 0x20 MSTORE PUSH1 0x0 SWAP1 DUP2 MSTORE PUSH1 0x40 SWAP1 KECCAK256 SLOAD DUP2 JUMP JUMPDEST PUSH1 0x40 MLOAD SWAP1 DUP2 MSTORE PUSH1 0x20 ADD PUSH2 0x15B JUMP JUMPDEST PUSH2 0x1A5 PUSH2 0x1A0 CALLDATASIZE PUSH1 0x4 PUSH2 0x18DC JUMP JUMPDEST PUSH2 0x3E9 JUMP JUMPDEST PUSH1 0x40 MLOAD PUSH2 0x15B SWAP10 SWAP9 SWAP8 SWAP7 SWAP6 SWAP5 SWAP4 SWAP3 SWAP2 SWAP1 PUSH2 0x1965 JUMP JUMPDEST PUSH2 0x1CD PUSH2 0x1C8 CALLDATASIZE PUSH1 0x4 PUSH2 0x18DC JUMP JUMPDEST PUSH2 0x5E1 JUMP JUMPDEST PUSH1 0x40 MLOAD PUSH2 0x15B SWAP4 SWAP3 SWAP2 SWAP1 PUSH2 0x19FB JUMP JUMPDEST PUSH2 0x184 PUSH2 0x1EA CALLDATASIZE PUSH1 0x4 PUSH2 0x18DC JUMP JUMPDEST PUSH1 0x0 SWAP1 DUP2 MSTORE PUSH1 0x20 DUP2 SWAP1 MSTORE PUSH1 0x40 SWAP1 KECCAK256 PUSH1 0x1 ADD SLOAD SWAP1 JUMP JUMPDEST PUSH2 0x212 PUSH2 0x20D CALLDATASIZE PUSH1 0x4 PUSH2 0x1A4C JUMP JUMPDEST PUSH2 0x8E8 JUMP JUMPDEST STOP JUMPDEST PUSH2 0x212 PUSH2 0x222 CALLDATASIZE PUSH1 0x4 PUSH2 0x1A4C JUMP JUMPDEST PUSH2 0x913 JUMP JUMPDEST PUSH2 0x184 PUSH32 0xA8C345A04D2A8AC0607AAD39BFDB2CA6E358D1265F2DD655687A0837B5D74B08 DUP2 JUMP JUMPDEST PUSH2 0x261 PUSH2 0x25C CALLDATASIZE PUSH1 0x4 PUSH2 0x18DC JUMP JUMPDEST PUSH2 0x94B JUMP JUMPDEST PUSH1 0x40 MLOAD PUSH2 0x15B SWAP2 SWAP1 PUSH2 0x1A78 JUMP JUMPDEST PUSH2 0x281 PUSH2 0x27C CALLDATASIZE PUSH1 0x4 PUSH2 0x1B57 JUMP JUMPDEST PUSH2 0xB3A JUMP JUMPDEST PUSH1 0x40 MLOAD PUSH2 0x15B SWAP9 SWAP8 SWAP7 SWAP6 SWAP5 SWAP4 SWAP3 SWAP2 SWAP1 PUSH2 0x1B79 JUMP JUMPDEST PUSH2 0x14F PUSH2 0x2A3 CALLDATASIZE PUSH1 0x4 PUSH2 0x1A4C JUMP JUMPDEST PUSH2 0xCC3 JUMP JUMPDEST PUSH2 0x184 PUSH32 0xEEFB95E842A3287179D933B4460BE539A1D5AF11AA8B325BB45C5C8DC92DE4ED DUP2 JUMP JUMPDEST PUSH2 0x184 PUSH2 0x2DD CALLDATASIZE PUSH1 0x4 PUSH2 0x1BE0 JUMP JUMPDEST PUSH2 0xCEC JUMP JUMPDEST PUSH2 0x184 PUSH1 0x0 DUP2 JUMP JUMPDEST PUSH2 0x184 PUSH32 0xD1AE8BBDABD60D63E418B84F5AD6F9CBA90092C9816D7724D85F0D4E4BEA2C60 DUP2 JUMP JUMPDEST PUSH2 0x184 PUSH2 0x31F CALLDATASIZE PUSH1 0x4 PUSH2 0x1CAD JUMP JUMPDEST PUSH2 0xD1D JUMP JUMPDEST PUSH2 0x212 PUSH2 0x332 CALLDATASIZE PUSH1 0x4 PUSH2 0x1D60 JUMP JUMPDEST PUSH2 0x1008 JUMP JUMPDEST PUSH2 0x184 PUSH32 0xDED9B5E0E0E3A2B3F09A0BC36EC64B9BF7A7C2319F3C4D9CFF5CE48714257B21 DUP2 JUMP JUMPDEST PUSH2 0x212 PUSH2 0x36C CALLDATASIZE PUSH1 0x4 PUSH2 0x1B57 JUMP JUMPDEST PUSH2 0x12E8 JUMP JUMPDEST PUSH2 0x212 PUSH2 0x37F CALLDATASIZE PUSH1 0x4 PUSH2 0x1A4C JUMP JUMPDEST PUSH2 0x1578 JUMP JUMPDEST PUSH2 0x14F PUSH2 0x392 CALLDATASIZE PUSH1 0x4 PUSH2 0x1B57 JUMP JUMPDEST PUSH1 0x4 PUSH1 0x20 SWAP1 DUP2 MSTORE PUSH1 0x0 SWAP3 DUP4 MSTORE PUSH1 0x40 DUP1 DUP5 KECCAK256 SWAP1 SWAP2 MSTORE SWAP1 DUP3 MSTORE SWAP1 KECCAK256 SLOAD PUSH1 0xFF AND DUP2 JUMP JUMPDEST PUSH1 0x0 PUSH1 0x1 PUSH1 0x1 PUSH1 0xE0 SHL SUB NOT DUP3 AND PUSH4 0x7965DB0B PUSH1 0xE0 SHL EQ DUP1 PUSH2 0x3E3 JUMPI POP PUSH4 0x1FFC9A7 PUSH1 0xE0 SHL PUSH1 0x1 PUSH1 0x1 PUSH1 0xE0 SHL SUB NOT DUP4 AND EQ JUMPDEST SWAP3 SWAP2 POP POP JUMP JUMPDEST PUSH1 0x2 PUSH1 0x20 MSTORE PUSH1 0x0 SWAP1 DUP2 MSTORE PUSH1 0x40 SWAP1 KECCAK256 DUP1 SLOAD PUSH1 0x1 DUP3 ADD DUP1 SLOAD SWAP2 SWAP3 SWAP2 PUSH2 0x40B SWAP1 PUSH2 0x1DB0 JUMP JUMPDEST DUP1 PUSH1 0x1F ADD PUSH1 0x20 DUP1 SWAP2 DIV MUL PUSH1 0x20 ADD PUSH1 0x40 MLOAD SWAP1 DUP2 ADD PUSH1 0x40 MSTORE DUP1 SWAP3 SWAP2 SWAP1 DUP2 DUP2 MSTORE PUSH1 0x20 ADD DUP3 DUP1 SLOAD PUSH2 0x437 SWAP1 PUSH2 0x1DB0 JUMP JUMPDEST DUP1 ISZERO PUSH2 0x484 JUMPI DUP1 PUSH1 0x1F LT PUSH2 0x459 JUMPI PUSH2 0x100 DUP1 DUP4 SLOAD DIV MUL DUP4 MSTORE SWAP2 PUSH1 0x20 ADD SWAP2 PUSH2 0x484 JUMP JUMPDEST DUP3 ADD SWAP2 SWAP1 PUSH1 0x0 MSTORE PUSH1 0x20 PUSH1 0x0 KECCAK256 SWAP1 JUMPDEST DUP2 SLOAD DUP2 MSTORE SWAP1 PUSH1 0x1 ADD SWAP1 PUSH1 0x20 ADD DUP1 DUP4 GT PUSH2 0x467 JUMPI DUP3 SWAP1 SUB PUSH1 0x1F AND DUP3 ADD SWAP2 JUMPDEST POP POP POP POP POP SWAP1 DUP1 PUSH1 0x2 ADD DUP1 SLOAD PUSH2 0x499 SWAP1 PUSH2 0x1DB0 JUMP JUMPDEST DUP1 PUSH1 0x1F ADD PUSH1 0x20 DUP1 SWAP2 DIV MUL PUSH1 0x20 ADD PUSH1 0x40 MLOAD SWAP1 DUP2 ADD PUSH1 0x40 MSTORE DUP1 SWAP3 SWAP2 SWAP1 DUP2 DUP2 MSTORE PUSH1 0x20 ADD DUP3 DUP1 SLOAD PUSH2 0x4C5 SWAP1 PUSH2 0x1DB0 JUMP JUMPDEST DUP1 ISZERO PUSH2 0x512 JUMPI DUP1 PUSH1 0x1F LT PUSH2 0x4E7 JUMPI PUSH2 0x100 DUP1 DUP4 SLOAD DIV MUL DUP4 MSTORE SWAP2 PUSH1 0x20 ADD SWAP2 PUSH2 0x512 JUMP JUMPDEST DUP3 ADD SWAP2 SWAP1 PUSH1 0x0 MSTORE PUSH1 0x20 PUSH1 0x0 KECCAK256 SWAP1 JUMPDEST DUP2 SLOAD DUP2 MSTORE SWAP1 PUSH1 0x1 ADD SWAP1 PUSH1 0x20 ADD DUP1 DUP4 GT PUSH2 0x4F5 JUMPI DUP3 SWAP1 SUB PUSH1 0x1F AND DUP3 ADD SWAP2 JUMPDEST POP POP POP POP PUSH1 0x3 DUP4 ADD SLOAD PUSH1 0x4 DUP5 ADD SLOAD PUSH1 0x5 DUP6 ADD DUP1 SLOAD SWAP5 SWAP6 PUSH1 0xFF DUP1 DUP6 AND SWAP7 PUSH2 0x100 DUP7 DIV SWAP1 SWAP2 AND SWAP6 POP PUSH3 0x10000 SWAP1 SWAP5 DIV PUSH1 0x1 PUSH1 0x1 PUSH1 0xA0 SHL SUB AND SWAP4 SWAP1 SWAP2 SWAP1 PUSH2 0x555 SWAP1 PUSH2 0x1DB0 JUMP JUMPDEST DUP1 PUSH1 0x1F ADD PUSH1 0x20 DUP1 SWAP2 DIV MUL PUSH1 0x20 ADD PUSH1 0x40 MLOAD SWAP1 DUP2 ADD PUSH1 0x40 MSTORE DUP1 SWAP3 SWAP2 SWAP1 DUP2 DUP2 MSTORE PUSH1 0x20 ADD DUP3 DUP1 SLOAD PUSH2 0x581 SWAP1 PUSH2 0x1DB0 JUMP JUMPDEST DUP1 ISZERO PUSH2 0x5CE JUMPI DUP1 PUSH1 0x1F LT PUSH2 0x5A3 JUMPI PUSH2 0x100 DUP1 DUP4 SLOAD DIV MUL DUP4 MSTORE SWAP2 PUSH1 0x20 ADD SWAP2 PUSH2 0x5CE JUMP JUMPDEST DUP3 ADD SWAP2 SWAP1 PUSH1 0x0 MSTORE PUSH1 0x20 PUSH1 0x0 KECCAK256 SWAP1 JUMPDEST DUP2 SLOAD DUP2 MSTORE SWAP1 PUSH1 0x1 ADD SWAP1 PUSH1 0x20 ADD DUP1 DUP4 GT PUSH2 0x5B1 JUMPI DUP3 SWAP1 SUB PUSH1 0x1F AND DUP3 ADD SWAP2 JUMPDEST POP POP POP PUSH1 0x6 SWAP1 SWAP4 ADD SLOAD SWAP2 SWAP3 POP POP PUSH1 0xFF AND DUP10 JUMP JUMPDEST PUSH1 0x0 DUP2 DUP2 MSTORE PUSH1 0x6 PUSH1 0x20 MSTORE PUSH1 0x40 DUP2 KECCAK256 SLOAD PUSH1 0x60 SWAP1 DUP2 SWAP1 DUP1 DUP5 SUB PUSH2 0x64A JUMPI PUSH1 0x0 PUSH1 0x40 MLOAD DUP1 PUSH1 0x40 ADD PUSH1 0x40 MSTORE DUP1 PUSH1 0x7 DUP2 MSTORE PUSH1 0x20 ADD PUSH7 0x2AB735B737BBB7 PUSH1 0xC9 SHL DUP2 MSTORE POP PUSH1 0x40 MLOAD DUP1 PUSH1 0x40 ADD PUSH1 0x40 MSTORE DUP1 PUSH1 0x7 DUP2 MSTORE PUSH1 0x20 ADD PUSH7 0x2AB735B737BBB7 PUSH1 0xC9 SHL DUP2 MSTORE POP SWAP4 POP SWAP4 POP SWAP4 POP POP PUSH2 0x8E1 JUMP JUMPDEST PUSH1 0x0 PUSH1 0x2 PUSH1 0x0 DUP4 DUP2 MSTORE PUSH1 0x20 ADD SWAP1 DUP2 MSTORE PUSH1 0x20 ADD PUSH1 0x0 KECCAK256 PUSH1 0x40 MLOAD DUP1 PUSH2 0x120 ADD PUSH1 0x40 MSTORE SWAP1 DUP2 PUSH1 0x0 DUP3 ADD SLOAD DUP2 MSTORE PUSH1 0x20 ADD PUSH1 0x1 DUP3 ADD DUP1 SLOAD PUSH2 0x685 SWAP1 PUSH2 0x1DB0 JUMP JUMPDEST DUP1 PUSH1 0x1F ADD PUSH1 0x20 DUP1 SWAP2 DIV MUL PUSH1 0x20 ADD PUSH1 0x40 MLOAD SWAP1 DUP2 ADD PUSH1 0x40 MSTORE DUP1 SWAP3 SWAP2 SWAP1 DUP2 DUP2 MSTORE PUSH1 0x20 ADD DUP3 DUP1 SLOAD PUSH2 0x6B1 SWAP1 PUSH2 0x1DB0 JUMP JUMPDEST DUP1 ISZERO PUSH2 0x6FE JUMPI DUP1 PUSH1 0x1F LT PUSH2 0x6D3 JUMPI PUSH2 0x100 DUP1 DUP4 SLOAD DIV MUL DUP4 MSTORE SWAP2 PUSH1 0x20 ADD SWAP2 PUSH2 0x6FE JUMP JUMPDEST DUP3 ADD SWAP2 SWAP1 PUSH1 0x0 MSTORE PUSH1 0x20 PUSH1 0x0 KECCAK256 SWAP1 JUMPDEST DUP2 SLOAD DUP2 MSTORE SWAP1 PUSH1 0x1 ADD SWAP1 PUSH1 0x20 ADD DUP1 DUP4 GT PUSH2 0x6E1 JUMPI DUP3 SWAP1 SUB PUSH1 0x1F AND DUP3 ADD SWAP2 JUMPDEST POP POP POP POP POP DUP2 MSTORE PUSH1 0x20 ADD PUSH1 0x2 DUP3 ADD DUP1 SLOAD PUSH2 0x717 SWAP1 PUSH2 0x1DB0 JUMP JUMPDEST DUP1 PUSH1 0x1F ADD PUSH1 0x20 DUP1 SWAP2 DIV MUL PUSH1 0x20 ADD PUSH1 0x40 MLOAD SWAP1 DUP2 ADD PUSH1 0x40 MSTORE DUP1 SWAP3 SWAP2 SWAP1 DUP2 DUP2 MSTORE PUSH1 0x20 ADD DUP3 DUP1 SLOAD PUSH2 0x743 SWAP1 PUSH2 0x1DB0 JUMP JUMPDEST DUP1 ISZERO PUSH2 0x790 JUMPI DUP1 PUSH1 0x1F LT PUSH2 0x765 JUMPI PUSH2 0x100 DUP1 DUP4 SLOAD DIV MUL DUP4 MSTORE SWAP2 PUSH1 0x20 ADD SWAP2 PUSH2 0x790 JUMP JUMPDEST DUP3 ADD SWAP2 SWAP1 PUSH1 0x0 MSTORE PUSH1 0x20 PUSH1 0x0 KECCAK256 SWAP1 JUMPDEST DUP2 SLOAD DUP2 MSTORE SWAP1 PUSH1 0x1 ADD SWAP1 PUSH1 0x20 ADD DUP1 DUP4 GT PUSH2 0x773 JUMPI DUP3 SWAP1 SUB PUSH1 0x1F AND DUP3 ADD SWAP2 JUMPDEST POP POP POP SWAP2 DUP4 MSTORE POP POP PUSH1 0x3 DUP3 ADD SLOAD PUSH1 0x20 SWAP1 SWAP2 ADD SWAP1 PUSH1 0xFF AND PUSH1 0x5 DUP2 GT ISZERO PUSH2 0x7B7 JUMPI PUSH2 0x7B7 PUSH2 0x193B JUMP JUMPDEST PUSH1 0x5 DUP2 GT ISZERO PUSH2 0x7C8 JUMPI PUSH2 0x7C8 PUSH2 0x193B JUMP JUMPDEST DUP2 MSTORE PUSH1 0x20 ADD PUSH1 0x3 DUP3 ADD PUSH1 0x1 SWAP1 SLOAD SWAP1 PUSH2 0x100 EXP SWAP1 DIV PUSH1 0xFF AND PUSH1 0x3 DUP2 GT ISZERO PUSH2 0x7F0 JUMPI PUSH2 0x7F0 PUSH2 0x193B JUMP JUMPDEST PUSH1 0x3 DUP2 GT ISZERO PUSH2 0x801 JUMPI PUSH2 0x801 PUSH2 0x193B JUMP JUMPDEST DUP2 MSTORE PUSH1 0x3 DUP3 ADD SLOAD PUSH3 0x10000 SWAP1 DIV PUSH1 0x1 PUSH1 0x1 PUSH1 0xA0 SHL SUB AND PUSH1 0x20 DUP3 ADD MSTORE PUSH1 0x4 DUP3 ADD SLOAD PUSH1 0x40 DUP3 ADD MSTORE PUSH1 0x5 DUP3 ADD DUP1 SLOAD PUSH1 0x60 SWAP1 SWAP3 ADD SWAP2 PUSH2 0x83B SWAP1 PUSH2 0x1DB0 JUMP JUMPDEST DUP1 PUSH1 0x1F ADD PUSH1 0x20 DUP1 SWAP2 DIV MUL PUSH1 0x20 ADD PUSH1 0x40 MLOAD SWAP1 DUP2 ADD PUSH1 0x40 MSTORE DUP1 SWAP3 SWAP2 SWAP1 DUP2 DUP2 MSTORE PUSH1 0x20 ADD DUP3 DUP1 SLOAD PUSH2 0x867 SWAP1 PUSH2 0x1DB0 JUMP JUMPDEST DUP1 ISZERO PUSH2 0x8B4 JUMPI DUP1 PUSH1 0x1F LT PUSH2 0x889 JUMPI PUSH2 0x100 DUP1 DUP4 SLOAD DIV MUL DUP4 MSTORE SWAP2 PUSH1 0x20 ADD SWAP2 PUSH2 0x8B4 JUMP JUMPDEST DUP3 ADD SWAP2 SWAP1 PUSH1 0x0 MSTORE PUSH1 0x20 PUSH1 0x0 KECCAK256 SWAP1 JUMPDEST DUP2 SLOAD DUP2 MSTORE SWAP1 PUSH1 0x1 ADD SWAP1 PUSH1 0x20 ADD DUP1 DUP4 GT PUSH2 0x897 JUMPI DUP3 SWAP1 SUB PUSH1 0x1F AND DUP3 ADD SWAP2 JUMPDEST POP POP POP SWAP2 DUP4 MSTORE POP POP PUSH1 0x6 SWAP2 SWAP1 SWAP2 ADD SLOAD PUSH1 0xFF AND ISZERO ISZERO PUSH1 0x20 SWAP2 DUP3 ADD MSTORE DUP2 ADD MLOAD PUSH1 0x40 SWAP1 SWAP2 ADD MLOAD SWAP3 SWAP6 POP SWAP4 POP SWAP1 SWAP2 POP POP JUMPDEST SWAP2 SWAP4 SWAP1 SWAP3 POP JUMP JUMPDEST PUSH1 0x0 DUP3 DUP2 MSTORE PUSH1 0x20 DUP2 SWAP1 MSTORE PUSH1 0x40 SWAP1 KECCAK256 PUSH1 0x1 ADD SLOAD PUSH2 0x903 DUP2 PUSH2 0x159D JUMP JUMPDEST PUSH2 0x90D DUP4 DUP4 PUSH2 0x15AA JUMP JUMPDEST POP POP POP POP JUMP JUMPDEST PUSH1 0x1 PUSH1 0x1 PUSH1 0xA0 SHL SUB DUP2 AND CALLER EQ PUSH2 0x93C JUMPI PUSH1 0x40 MLOAD PUSH4 0x334BD919 PUSH1 0xE1 SHL DUP2 MSTORE PUSH1 0x4 ADD PUSH1 0x40 MLOAD DUP1 SWAP2 SUB SWAP1 REVERT JUMPDEST PUSH2 0x946 DUP3 DUP3 PUSH2 0x163C JUMP JUMPDEST POP POP POP JUMP JUMPDEST PUSH1 0x60 PUSH1 0x3 PUSH1 0x0 DUP4 DUP2 MSTORE PUSH1 0x20 ADD SWAP1 DUP2 MSTORE PUSH1 0x20 ADD PUSH1 0x0 KECCAK256 DUP1 SLOAD DUP1 PUSH1 0x20 MUL PUSH1 0x20 ADD PUSH1 0x40 MLOAD SWAP1 DUP2 ADD PUSH1 0x40 MSTORE DUP1 SWAP3 SWAP2 SWAP1 DUP2 DUP2 MSTORE PUSH1 0x20 ADD PUSH1 0x0 SWAP1 JUMPDEST DUP3 DUP3 LT ISZERO PUSH2 0xB2F JUMPI PUSH1 0x0 DUP5 DUP2 MSTORE PUSH1 0x20 SWAP1 DUP2 SWAP1 KECCAK256 PUSH1 0x40 DUP1 MLOAD PUSH2 0x100 DUP2 ADD DUP3 MSTORE PUSH1 0x7 DUP7 MUL SWAP1 SWAP3 ADD DUP1 SLOAD DUP4 MSTORE PUSH1 0x1 DUP2 ADD SLOAD SWAP4 DUP4 ADD SWAP4 SWAP1 SWAP4 MSTORE PUSH1 0x2 DUP4 ADD SLOAD SWAP1 DUP3 ADD MSTORE PUSH1 0x3 DUP3 ADD SLOAD PUSH1 0x1 PUSH1 0x1 PUSH1 0xA0 SHL SUB AND PUSH1 0x60 DUP3 ADD MSTORE PUSH1 0x4 DUP3 ADD DUP1 SLOAD SWAP2 SWAP3 SWAP2 PUSH1 0x80 DUP5 ADD SWAP2 SWAP1 PUSH2 0x9E9 SWAP1 PUSH2 0x1DB0 JUMP JUMPDEST DUP1 PUSH1 0x1F ADD PUSH1 0x20 DUP1 SWAP2 DIV MUL PUSH1 0x20 ADD PUSH1 0x40 MLOAD SWAP1 DUP2 ADD PUSH1 0x40 MSTORE DUP1 SWAP3 SWAP2 SWAP1 DUP2 DUP2 MSTORE PUSH1 0x20 ADD DUP3 DUP1 SLOAD PUSH2 0xA15 SWAP1 PUSH2 0x1DB0 JUMP JUMPDEST DUP1 ISZERO PUSH2 0xA62 JUMPI DUP1 PUSH1 0x1F LT PUSH2 0xA37 JUMPI PUSH2 0x100 DUP1 DUP4 SLOAD DIV MUL DUP4 MSTORE SWAP2 PUSH1 0x20 ADD SWAP2 PUSH2 0xA62 JUMP JUMPDEST DUP3 ADD SWAP2 SWAP1 PUSH1 0x0 MSTORE PUSH1 0x20 PUSH1 0x0 KECCAK256 SWAP1 JUMPDEST DUP2 SLOAD DUP2 MSTORE SWAP1 PUSH1 0x1 ADD SWAP1 PUSH1 0x20 ADD DUP1 DUP4 GT PUSH2 0xA45 JUMPI DUP3 SWAP1 SUB PUSH1 0x1F AND DUP3 ADD SWAP2 JUMPDEST POP POP POP SWAP2 DUP4 MSTORE POP POP PUSH1 0x5 DUP3 ADD SLOAD PUSH1 0xFF DUP1 DUP3 AND ISZERO ISZERO PUSH1 0x20 DUP5 ADD MSTORE PUSH2 0x100 SWAP1 SWAP2 DIV AND ISZERO ISZERO PUSH1 0x40 DUP3 ADD MSTORE PUSH1 0x6 DUP3 ADD DUP1 SLOAD PUSH1 0x60 SWAP1 SWAP3 ADD SWAP2 PUSH2 0xA9E SWAP1 PUSH2 0x1DB0 JUMP JUMPDEST DUP1 PUSH1 0x1F ADD PUSH1 0x20 DUP1 SWAP2 DIV MUL PUSH1 0x20 ADD PUSH1 0x40 MLOAD SWAP1 DUP2 ADD PUSH1 0x40 MSTORE DUP1 SWAP3 SWAP2 SWAP1 DUP2 DUP2 MSTORE PUSH1 0x20 ADD DUP3 DUP1 SLOAD PUSH2 0xACA SWAP1 PUSH2 0x1DB0 JUMP JUMPDEST DUP1 ISZERO PUSH2 0xB17 JUMPI DUP1 PUSH1 0x1F LT PUSH2 0xAEC JUMPI PUSH2 0x100 DUP1 DUP4 SLOAD DIV MUL DUP4 MSTORE SWAP2 PUSH1 0x20 ADD SWAP2 PUSH2 0xB17 JUMP JUMPDEST DUP3 ADD SWAP2 SWAP1 PUSH1 0x0 MSTORE PUSH1 0x20 PUSH1 0x0 KECCAK256 SWAP1 JUMPDEST DUP2 SLOAD DUP2 MSTORE SWAP1 PUSH1 0x1 ADD SWAP1 PUSH1 0x20 ADD DUP1 DUP4 GT PUSH2 0xAFA JUMPI DUP3 SWAP1 SUB PUSH1 0x1F AND DUP3 ADD SWAP2 JUMPDEST POP POP POP POP POP DUP2 MSTORE POP POP DUP2 MSTORE PUSH1 0x20 ADD SWAP1 PUSH1 0x1 ADD SWAP1 PUSH2 0x980 JUMP JUMPDEST POP POP POP POP SWAP1 POP SWAP2 SWAP1 POP JUMP JUMPDEST PUSH1 0x3 PUSH1 0x20 MSTORE DUP2 PUSH1 0x0 MSTORE PUSH1 0x40 PUSH1 0x0 KECCAK256 DUP2 DUP2 SLOAD DUP2 LT PUSH2 0xB56 JUMPI PUSH1 0x0 DUP1 REVERT JUMPDEST PUSH1 0x0 SWAP2 DUP3 MSTORE PUSH1 0x20 SWAP1 SWAP2 KECCAK256 PUSH1 0x7 SWAP1 SWAP2 MUL ADD DUP1 SLOAD PUSH1 0x1 DUP3 ADD SLOAD PUSH1 0x2 DUP4 ADD SLOAD PUSH1 0x3 DUP5 ADD SLOAD PUSH1 0x4 DUP6 ADD DUP1 SLOAD SWAP5 SWAP8 POP SWAP3 SWAP6 POP SWAP1 SWAP4 PUSH1 0x1 PUSH1 0x1 PUSH1 0xA0 SHL SUB SWAP1 SWAP2 AND SWAP3 SWAP1 SWAP2 SWAP1 PUSH2 0xB9D SWAP1 PUSH2 0x1DB0 JUMP JUMPDEST DUP1 PUSH1 0x1F ADD PUSH1 0x20 DUP1 SWAP2 DIV MUL PUSH1 0x20 ADD PUSH1 0x40 MLOAD SWAP1 DUP2 ADD PUSH1 0x40 MSTORE DUP1 SWAP3 SWAP2 SWAP1 DUP2 DUP2 MSTORE PUSH1 0x20 ADD DUP3 DUP1 SLOAD PUSH2 0xBC9 SWAP1 PUSH2 0x1DB0 JUMP JUMPDEST DUP1 ISZERO PUSH2 0xC16 JUMPI DUP1 PUSH1 0x1F LT PUSH2 0xBEB JUMPI PUSH2 0x100 DUP1 DUP4 SLOAD DIV MUL DUP4 MSTORE SWAP2 PUSH1 0x20 ADD SWAP2 PUSH2 0xC16 JUMP JUMPDEST DUP3 ADD SWAP2 SWAP1 PUSH1 0x0 MSTORE PUSH1 0x20 PUSH1 0x0 KECCAK256 SWAP1 JUMPDEST DUP2 SLOAD DUP2 MSTORE SWAP1 PUSH1 0x1 ADD SWAP1 PUSH1 0x20 ADD DUP1 DUP4 GT PUSH2 0xBF9 JUMPI DUP3 SWAP1 SUB PUSH1 0x1F AND DUP3 ADD SWAP2 JUMPDEST POP POP POP POP PUSH1 0x5 DUP4 ADD SLOAD PUSH1 0x6 DUP5 ADD DUP1 SLOAD SWAP4 SWAP5 PUSH1 0xFF DUP1 DUP5 AND SWAP6 PUSH2 0x100 SWAP1 SWAP5 DIV AND SWAP4 POP SWAP2 PUSH2 0xC40 SWAP1 PUSH2 0x1DB0 JUMP JUMPDEST DUP1 PUSH1 0x1F ADD PUSH1 0x20 DUP1 SWAP2 DIV MUL PUSH1 0x20 ADD PUSH1 0x40 MLOAD SWAP1 DUP2 ADD PUSH1 0x40 MSTORE DUP1 SWAP3 SWAP2 SWAP1 DUP2 DUP2 MSTORE PUSH1 0x20 ADD DUP3 DUP1 SLOAD PUSH2 0xC6C SWAP1 PUSH2 0x1DB0 JUMP JUMPDEST DUP1 ISZERO PUSH2 0xCB9 JUMPI DUP1 PUSH1 0x1F LT PUSH2 0xC8E JUMPI PUSH2 0x100 DUP1 DUP4 SLOAD DIV MUL DUP4 MSTORE SWAP2 PUSH1 0x20 ADD SWAP2 PUSH2 0xCB9 JUMP JUMPDEST DUP3 ADD SWAP2 SWAP1 PUSH1 0x0 MSTORE PUSH1 0x20 PUSH1 0x0 KECCAK256 SWAP1 JUMPDEST DUP2 SLOAD DUP2 MSTORE SWAP1 PUSH1 0x1 ADD SWAP1 PUSH1 0x20 ADD DUP1 DUP4 GT PUSH2 0xC9C JUMPI DUP3 SWAP1 SUB PUSH1 0x1F AND DUP3 ADD SWAP2 JUMPDEST POP POP POP POP POP SWAP1 POP DUP9 JUMP JUMPDEST PUSH1 0x0 SWAP2 DUP3 MSTORE PUSH1 0x20 DUP3 DUP2 MSTORE PUSH1 0x40 DUP1 DUP5 KECCAK256 PUSH1 0x1 PUSH1 0x1 PUSH1 0xA0 SHL SUB SWAP4 SWAP1 SWAP4 AND DUP5 MSTORE SWAP2 SWAP1 MSTORE SWAP1 KECCAK256 SLOAD PUSH1 0xFF AND SWAP1 JUMP JUMPDEST PUSH1 0x5 PUSH1 0x20 MSTORE DUP2 PUSH1 0x0 MSTORE PUSH1 0x40 PUSH1 0x0 KECCAK256 DUP2 DUP2 SLOAD DUP2 LT PUSH2 0xD08 JUMPI PUSH1 0x0 DUP1 REVERT JUMPDEST SWAP1 PUSH1 0x0 MSTORE PUSH1 0x20 PUSH1 0x0 KECCAK256 ADD PUSH1 0x0 SWAP2 POP SWAP2 POP POP SLOAD DUP2 JUMP JUMPDEST PUSH1 0x0 DUP1 PUSH2 0xD29 DUP2 PUSH2 0x159D JUMP JUMPDEST PUSH1 0x0 DUP8 MLOAD GT PUSH2 0xD7F JUMPI PUSH1 0x40 MLOAD PUSH3 0x461BCD PUSH1 0xE5 SHL DUP2 MSTORE PUSH1 0x20 PUSH1 0x4 DUP3 ADD DUP2 SWAP1 MSTORE PUSH1 0x24 DUP3 ADD MSTORE PUSH32 0x4E6F6465547261636B696E673A204E6F6465206E616D65207265717569726564 PUSH1 0x44 DUP3 ADD MSTORE PUSH1 0x64 ADD JUMPDEST PUSH1 0x40 MLOAD DUP1 SWAP2 SUB SWAP1 REVERT JUMPDEST PUSH1 0x1 PUSH1 0x1 PUSH1 0xA0 SHL SUB DUP5 AND PUSH2 0xDE4 JUMPI PUSH1 0x40 MLOAD PUSH3 0x461BCD PUSH1 0xE5 SHL DUP2 MSTORE PUSH1 0x20 PUSH1 0x4 DUP3 ADD MSTORE PUSH1 0x26 PUSH1 0x24 DUP3 ADD MSTORE PUSH32 0x4E6F6465547261636B696E673A20496E76616C6964206F70657261746F722061 PUSH1 0x44 DUP3 ADD MSTORE PUSH6 0x646472657373 PUSH1 0xD0 SHL PUSH1 0x64 DUP3 ADD MSTORE PUSH1 0x84 ADD PUSH2 0xD76 JUMP JUMPDEST PUSH1 0x1 DUP1 SLOAD SWAP1 PUSH1 0x0 PUSH2 0xDF4 DUP4 PUSH2 0x1E00 JUMP JUMPDEST SWAP2 SWAP1 POP SSTORE POP PUSH1 0x0 PUSH1 0x1 SLOAD SWAP1 POP PUSH1 0x40 MLOAD DUP1 PUSH2 0x120 ADD PUSH1 0x40 MSTORE DUP1 DUP3 DUP2 MSTORE PUSH1 0x20 ADD DUP10 DUP2 MSTORE PUSH1 0x20 ADD DUP9 DUP2 MSTORE PUSH1 0x20 ADD DUP8 PUSH1 0x5 DUP2 GT ISZERO PUSH2 0xE30 JUMPI PUSH2 0xE30 PUSH2 0x193B JUMP JUMPDEST DUP2 MSTORE PUSH1 0x20 ADD PUSH1 0x0 DUP2 MSTORE PUSH1 0x1 PUSH1 0x1 PUSH1 0xA0 SHL SUB DUP8 AND PUSH1 0x20 DUP1 DUP4 ADD SWAP2 SWAP1 SWAP2 MSTORE TIMESTAMP PUSH1 0x40 DUP1 DUP5 ADD SWAP2 SWAP1 SWAP2 MSTORE PUSH1 0x60 DUP4 ADD DUP9 SWAP1 MSTORE PUSH1 0x1 PUSH1 0x80 SWAP1 SWAP4 ADD DUP4 SWAP1 MSTORE PUSH1 0x0 DUP6 DUP2 MSTORE PUSH1 0x2 DUP4 MSTORE KECCAK256 DUP4 MLOAD DUP2 SSTORE SWAP1 DUP4 ADD MLOAD SWAP1 SWAP2 DUP3 ADD SWAP1 PUSH2 0xE88 SWAP1 DUP3 PUSH2 0x1E67 JUMP JUMPDEST POP PUSH1 0x40 DUP3 ADD MLOAD PUSH1 0x2 DUP3 ADD SWAP1 PUSH2 0xE9D SWAP1 DUP3 PUSH2 0x1E67 JUMP JUMPDEST POP PUSH1 0x60 DUP3 ADD MLOAD PUSH1 0x3 DUP3 ADD DUP1 SLOAD PUSH1 0xFF NOT AND PUSH1 0x1 DUP4 PUSH1 0x5 DUP2 GT ISZERO PUSH2 0xEC1 JUMPI PUSH2 0xEC1 PUSH2 0x193B JUMP JUMPDEST MUL OR SWAP1 SSTORE POP PUSH1 0x80 DUP3 ADD MLOAD DUP2 PUSH1 0x3 ADD PUSH1 0x1 PUSH2 0x100 EXP DUP2 SLOAD DUP2 PUSH1 0xFF MUL NOT AND SWAP1 DUP4 PUSH1 0x3 DUP2 GT ISZERO PUSH2 0xEF0 JUMPI PUSH2 0xEF0 PUSH2 0x193B JUMP JUMPDEST MUL OR SWAP1 SSTORE POP PUSH1 0xA0 DUP3 ADD MLOAD PUSH1 0x3 DUP3 ADD DUP1 SLOAD PUSH1 0x1 PUSH1 0x1 PUSH1 0xA0 SHL SUB SWAP1 SWAP3 AND PUSH3 0x10000 MUL PUSH3 0x10000 PUSH1 0x1 PUSH1 0xB0 SHL SUB NOT SWAP1 SWAP3 AND SWAP2 SWAP1 SWAP2 OR SWAP1 SSTORE PUSH1 0xC0 DUP3 ADD MLOAD PUSH1 0x4 DUP3 ADD SSTORE PUSH1 0xE0 DUP3 ADD MLOAD PUSH1 0x5 DUP3 ADD SWAP1 PUSH2 0xF42 SWAP1 DUP3 PUSH2 0x1E67 JUMP JUMPDEST POP PUSH2 0x100 SWAP2 SWAP1 SWAP2 ADD MLOAD PUSH1 0x6 SWAP1 SWAP2 ADD DUP1 SLOAD PUSH1 0xFF NOT AND SWAP2 ISZERO ISZERO SWAP2 SWAP1 SWAP2 OR SWAP1 SSTORE PUSH1 0x1 PUSH1 0x1 PUSH1 0xA0 SHL SUB DUP6 AND PUSH1 0x0 SWAP1 DUP2 MSTORE PUSH1 0x5 PUSH1 0x20 SWAP1 DUP2 MSTORE PUSH1 0x40 DUP3 KECCAK256 DUP1 SLOAD PUSH1 0x1 DUP2 ADD DUP3 SSTORE SWAP1 DUP4 MSTORE SWAP2 KECCAK256 ADD DUP2 SWAP1 SSTORE PUSH2 0xFB4 PUSH32 0xA8C345A04D2A8AC0607AAD39BFDB2CA6E358D1265F2DD655687A0837B5D74B08 DUP7 PUSH2 0x15AA JUMP JUMPDEST POP DUP5 PUSH1 0x1 PUSH1 0x1 PUSH1 0xA0 SHL SUB AND DUP2 PUSH32 0xA187CE02895221D806EBA603FF2E9CEA5763F5637DB36D120A238BC5B1C42ADB DUP11 DUP11 DUP11 TIMESTAMP PUSH1 0x40 MLOAD PUSH2 0xFF5 SWAP5 SWAP4 SWAP3 SWAP2 SWAP1 PUSH2 0x1F27 JUMP JUMPDEST PUSH1 0x40 MLOAD DUP1 SWAP2 SUB SWAP1 LOG3 SWAP8 SWAP7 POP POP POP POP POP POP POP JUMP JUMPDEST PUSH1 0x0 DUP3 DUP2 MSTORE PUSH1 0x2 PUSH1 0x20 MSTORE PUSH1 0x40 SWAP1 KECCAK256 PUSH1 0x6 ADD SLOAD PUSH1 0xFF AND PUSH2 0x1039 JUMPI PUSH1 0x40 MLOAD PUSH3 0x461BCD PUSH1 0xE5 SHL DUP2 MSTORE PUSH1 0x4 ADD PUSH2 0xD76 SWAP1 PUSH2 0x1F6B JUMP JUMPDEST PUSH2 0x1063 PUSH32 0xA8C345A04D2A8AC0607AAD39BFDB2CA6E358D1265F2DD655687A0837B5D74B08 CALLER PUSH2 0xCC3 JUMP JUMPDEST DUP1 PUSH2 0x1093 JUMPI POP PUSH2 0x1093 PUSH32 0xDED9B5E0E0E3A2B3F09A0BC36EC64B9BF7A7C2319F3C4D9CFF5CE48714257B21 CALLER PUSH2 0xCC3 JUMP JUMPDEST DUP1 PUSH2 0x10C3 JUMPI POP PUSH2 0x10C3 PUSH32 0xEEFB95E842A3287179D933B4460BE539A1D5AF11AA8B325BB45C5C8DC92DE4ED CALLER PUSH2 0xCC3 JUMP JUMPDEST PUSH2 0x111A JUMPI PUSH1 0x40 MLOAD PUSH3 0x461BCD PUSH1 0xE5 SHL DUP2 MSTORE PUSH1 0x20 PUSH1 0x4 DUP3 ADD MSTORE PUSH1 0x22 PUSH1 0x24 DUP3 ADD MSTORE PUSH32 0x4E6F6465547261636B696E673A20556E617574686F72697A6564207363616E6E PUSH1 0x44 DUP3 ADD MSTORE PUSH2 0x32B9 PUSH1 0xF1 SHL PUSH1 0x64 DUP3 ADD MSTORE PUSH1 0x84 ADD PUSH2 0xD76 JUMP JUMPDEST PUSH1 0x0 PUSH1 0x40 MLOAD DUP1 PUSH2 0x100 ADD PUSH1 0x40 MSTORE DUP1 DUP5 DUP2 MSTORE PUSH1 0x20 ADD DUP6 DUP2 MSTORE PUSH1 0x20 ADD TIMESTAMP DUP2 MSTORE PUSH1 0x20 ADD CALLER PUSH1 0x1 PUSH1 0x1 PUSH1 0xA0 SHL SUB AND DUP2 MSTORE PUSH1 0x20 ADD DUP4 DUP2 MSTORE PUSH1 0x20 ADD PUSH1 0x1 ISZERO ISZERO DUP2 MSTORE PUSH1 0x20 ADD PUSH1 0x0 ISZERO ISZERO DUP2 MSTORE PUSH1 0x20 ADD PUSH2 0x116C DUP7 DUP7 TIMESTAMP PUSH2 0x16A7 JUMP JUMPDEST SWAP1 MSTORE PUSH1 0x0 DUP6 DUP2 MSTORE PUSH1 0x3 PUSH1 0x20 DUP2 DUP2 MSTORE PUSH1 0x40 DUP1 DUP5 KECCAK256 DUP1 SLOAD PUSH1 0x1 DUP1 DUP3 ADD DUP4 SSTORE SWAP2 DUP7 MSTORE SWAP5 DUP4 SWAP1 KECCAK256 DUP7 MLOAD PUSH1 0x7 SWAP1 SWAP7 MUL ADD SWAP5 DUP6 SSTORE SWAP2 DUP6 ADD MLOAD SWAP2 DUP5 ADD SWAP2 SWAP1 SWAP2 SSTORE DUP4 ADD MLOAD PUSH1 0x2 DUP4 ADD SSTORE PUSH1 0x60 DUP4 ADD MLOAD SWAP1 DUP3 ADD DUP1 SLOAD PUSH1 0x1 PUSH1 0x1 PUSH1 0xA0 SHL SUB NOT AND PUSH1 0x1 PUSH1 0x1 PUSH1 0xA0 SHL SUB SWAP1 SWAP3 AND SWAP2 SWAP1 SWAP2 OR SWAP1 SSTORE PUSH1 0x80 DUP3 ADD MLOAD SWAP2 SWAP3 POP DUP3 SWAP2 PUSH1 0x4 DUP3 ADD SWAP1 PUSH2 0x11EB SWAP1 DUP3 PUSH2 0x1E67 JUMP JUMPDEST POP PUSH1 0xA0 DUP3 ADD MLOAD PUSH1 0x5 DUP3 ADD DUP1 SLOAD PUSH1 0xC0 DUP6 ADD MLOAD ISZERO ISZERO PUSH2 0x100 MUL PUSH2 0xFF00 NOT SWAP4 ISZERO ISZERO SWAP4 SWAP1 SWAP4 AND PUSH2 0xFFFF NOT SWAP1 SWAP2 AND OR SWAP2 SWAP1 SWAP2 OR SWAP1 SSTORE PUSH1 0xE0 DUP3 ADD MLOAD PUSH1 0x6 DUP3 ADD SWAP1 PUSH2 0x122F SWAP1 DUP3 PUSH2 0x1E67 JUMP JUMPDEST POP POP POP PUSH1 0x0 DUP5 DUP2 MSTORE PUSH1 0x4 PUSH1 0x20 SWAP1 DUP2 MSTORE PUSH1 0x40 DUP1 DUP4 KECCAK256 DUP7 DUP5 MSTORE DUP3 MSTORE DUP1 DUP4 KECCAK256 DUP1 SLOAD PUSH1 0xFF NOT AND PUSH1 0x1 OR SWAP1 SSTORE DUP7 DUP4 MSTORE PUSH1 0x6 SWAP1 SWAP2 MSTORE SWAP1 DUP2 SWAP1 KECCAK256 DUP5 SWAP1 SSTORE MLOAD CALLER SWAP1 DUP5 SWAP1 DUP7 SWAP1 PUSH32 0xD47F9C3DF9F6A257DF9F4A38CB39A95BA3297E3F571266CB95228535273FBBD SWAP1 PUSH2 0x129B SWAP1 TIMESTAMP SWAP1 DUP9 SWAP1 PUSH2 0x1FAC JUMP JUMPDEST PUSH1 0x40 MLOAD DUP1 SWAP2 SUB SWAP1 LOG4 DUP3 DUP5 PUSH32 0xECF765098D5F419473319235A2266E4AA40D876D9465B486501FF8C44421A819 DUP4 PUSH1 0xE0 ADD MLOAD TIMESTAMP PUSH1 0x40 MLOAD PUSH2 0x12DA SWAP3 SWAP2 SWAP1 PUSH2 0x1FCD JUMP JUMPDEST PUSH1 0x40 MLOAD DUP1 SWAP2 SUB SWAP1 LOG3 POP POP POP POP JUMP JUMPDEST PUSH1 0x0 DUP2 DUP2 MSTORE PUSH1 0x2 PUSH1 0x20 MSTORE PUSH1 0x40 SWAP1 KECCAK256 PUSH1 0x6 ADD SLOAD PUSH1 0xFF AND PUSH2 0x1319 JUMPI PUSH1 0x40 MLOAD PUSH3 0x461BCD PUSH1 0xE5 SHL DUP2 MSTORE PUSH1 0x4 ADD PUSH2 0xD76 SWAP1 PUSH2 0x1F6B JUMP JUMPDEST PUSH1 0x0 DUP3 DUP2 MSTORE PUSH1 0x4 PUSH1 0x20 SWAP1 DUP2 MSTORE PUSH1 0x40 DUP1 DUP4 KECCAK256 DUP5 DUP5 MSTORE SWAP1 SWAP2 MSTORE SWAP1 KECCAK256 SLOAD PUSH1 0xFF AND PUSH2 0x1399 JUMPI PUSH1 0x40 MLOAD PUSH3 0x461BCD PUSH1 0xE5 SHL DUP2 MSTORE PUSH1 0x20 PUSH1 0x4 DUP3 ADD MSTORE PUSH1 0x2E PUSH1 0x24 DUP3 ADD MSTORE PUSH32 0x4E6F6465547261636B696E673A204261746368206E6F742063757272656E746C PUSH1 0x44 DUP3 ADD MSTORE PUSH14 0x792061742074686973206E6F6465 PUSH1 0x90 SHL PUSH1 0x64 DUP3 ADD MSTORE PUSH1 0x84 ADD PUSH2 0xD76 JUMP JUMPDEST PUSH1 0x0 PUSH1 0x40 MLOAD DUP1 PUSH2 0x100 ADD PUSH1 0x40 MSTORE DUP1 DUP4 DUP2 MSTORE PUSH1 0x20 ADD DUP5 DUP2 MSTORE PUSH1 0x20 ADD TIMESTAMP DUP2 MSTORE PUSH1 0x20 ADD CALLER PUSH1 0x1 PUSH1 0x1 PUSH1 0xA0 SHL SUB AND DUP2 MSTORE PUSH1 0x20 ADD PUSH1 0x40 MLOAD DUP1 PUSH1 0x40 ADD PUSH1 0x40 MSTORE DUP1 PUSH1 0xE DUP2 MSTORE PUSH1 0x20 ADD PUSH14 0x10985D18DA0819195C185C9D1959 PUSH1 0x92 SHL DUP2 MSTORE POP DUP2 MSTORE PUSH1 0x20 ADD PUSH1 0x0 ISZERO ISZERO DUP2 MSTORE PUSH1 0x20 ADD PUSH1 0x1 ISZERO ISZERO DUP2 MSTORE PUSH1 0x20 ADD PUSH2 0x1411 DUP6 DUP6 TIMESTAMP PUSH2 0x16A7 JUMP JUMPDEST SWAP1 MSTORE PUSH1 0x0 DUP5 DUP2 MSTORE PUSH1 0x3 PUSH1 0x20 DUP2 DUP2 MSTORE PUSH1 0x40 DUP1 DUP5 KECCAK256 DUP1 SLOAD PUSH1 0x1 DUP1 DUP3 ADD DUP4 SSTORE SWAP2 DUP7 MSTORE SWAP5 DUP4 SWAP1 KECCAK256 DUP7 MLOAD PUSH1 0x7 SWAP1 SWAP7 MUL ADD SWAP5 DUP6 SSTORE SWAP2 DUP6 ADD MLOAD SWAP2 DUP5 ADD SWAP2 SWAP1 SWAP2 SSTORE DUP4 ADD MLOAD PUSH1 0x2 DUP4 ADD SSTORE PUSH1 0x60 DUP4 ADD MLOAD SWAP1 DUP3 ADD DUP1 SLOAD PUSH1 0x1 PUSH1 0x1 PUSH1 0xA0 SHL SUB NOT AND PUSH1 0x1 PUSH1 0x1 PUSH1 0xA0 SHL SUB SWAP1 SWAP3 AND SWAP2 SWAP1 SWAP2 OR SWAP1 SSTORE PUSH1 0x80 DUP3 ADD MLOAD SWAP2 SWAP3 POP DUP3 SWAP2 PUSH1 0x4 DUP3 ADD SWAP1 PUSH2 0x1490 SWAP1 DUP3 PUSH2 0x1E67 JUMP JUMPDEST POP PUSH1 0xA0 DUP3 ADD MLOAD PUSH1 0x5 DUP3 ADD DUP1 SLOAD PUSH1 0xC0 DUP6 ADD MLOAD ISZERO ISZERO PUSH2 0x100 MUL PUSH2 0xFF00 NOT SWAP4 ISZERO ISZERO SWAP4 SWAP1 SWAP4 AND PUSH2 0xFFFF NOT SWAP1 SWAP2 AND OR SWAP2 SWAP1 SWAP2 OR SWAP1 SSTORE PUSH1 0xE0 DUP3 ADD MLOAD PUSH1 0x6 DUP3 ADD SWAP1 PUSH2 0x14D4 SWAP1 DUP3 PUSH2 0x1E67 JUMP JUMPDEST POP POP POP PUSH1 0x0 DUP4 DUP2 MSTORE PUSH1 0x4 PUSH1 0x20 SWAP1 DUP2 MSTORE PUSH1 0x40 DUP1 DUP4 KECCAK256 DUP6 DUP5 MSTORE DUP3 MSTORE DUP1 DUP4 KECCAK256 DUP1 SLOAD PUSH1 0xFF NOT AND SWAP1 SSTORE PUSH1 0x2 SWAP1 SWAP2 MSTORE SWAP1 KECCAK256 PUSH1 0x3 ADD SLOAD PUSH1 0x5 SWAP1 PUSH1 0xFF AND DUP2 DUP2 GT ISZERO PUSH2 0x1519 JUMPI PUSH2 0x1519 PUSH2 0x193B JUMP JUMPDEST SUB PUSH2 0x152E JUMPI PUSH1 0x0 DUP4 DUP2 MSTORE PUSH1 0x6 PUSH1 0x20 MSTORE PUSH1 0x40 DUP2 KECCAK256 SSTORE JUMPDEST CALLER PUSH1 0x1 PUSH1 0x1 PUSH1 0xA0 SHL SUB AND DUP3 DUP5 PUSH32 0x96050233A5095BB67A0E5ABF54B4150F08B9C8E846BDBA4CEECB7DA538BACC02 TIMESTAMP PUSH1 0x40 MLOAD PUSH2 0x156B SWAP2 DUP2 MSTORE PUSH1 0x20 ADD SWAP1 JUMP JUMPDEST PUSH1 0x40 MLOAD DUP1 SWAP2 SUB SWAP1 LOG4 POP POP POP JUMP JUMPDEST PUSH1 0x0 DUP3 DUP2 MSTORE PUSH1 0x20 DUP2 SWAP1 MSTORE PUSH1 0x40 SWAP1 KECCAK256 PUSH1 0x1 ADD SLOAD PUSH2 0x1593 DUP2 PUSH2 0x159D JUMP JUMPDEST PUSH2 0x90D DUP4 DUP4 PUSH2 0x163C JUMP JUMPDEST PUSH2 0x15A7 DUP2 CALLER PUSH2 0x170E JUMP JUMPDEST POP JUMP JUMPDEST PUSH1 0x0 PUSH2 0x15B6 DUP4 DUP4 PUSH2 0xCC3 JUMP JUMPDEST PUSH2 0x1634 JUMPI PUSH1 0x0 DUP4 DUP2 MSTORE PUSH1 0x20 DUP2 DUP2 MSTORE PUSH1 0x40 DUP1 DUP4 KECCAK256 PUSH1 0x1 PUSH1 0x1 PUSH1 0xA0 SHL SUB DUP7 AND DUP5 MSTORE SWAP1 SWAP2 MSTORE SWAP1 KECCAK256 DUP1 SLOAD PUSH1 0xFF NOT AND PUSH1 0x1 OR SWAP1 SSTORE PUSH2 0x15EC CALLER SWAP1 JUMP JUMPDEST PUSH1 0x1 PUSH1 0x1 PUSH1 0xA0 SHL SUB AND DUP3 PUSH1 0x1 PUSH1 0x1 PUSH1 0xA0 SHL SUB AND DUP5 PUSH32 0x2F8788117E7EFF1D82E926EC794901D17C78024A50270940304540A733656F0D PUSH1 0x40 MLOAD PUSH1 0x40 MLOAD DUP1 SWAP2 SUB SWAP1 LOG4 POP PUSH1 0x1 PUSH2 0x3E3 JUMP JUMPDEST POP PUSH1 0x0 PUSH2 0x3E3 JUMP JUMPDEST PUSH1 0x0 PUSH2 0x1648 DUP4 DUP4 PUSH2 0xCC3 JUMP JUMPDEST ISZERO PUSH2 0x1634 JUMPI PUSH1 0x0 DUP4 DUP2 MSTORE PUSH1 0x20 DUP2 DUP2 MSTORE PUSH1 0x40 DUP1 DUP4 KECCAK256 PUSH1 0x1 PUSH1 0x1 PUSH1 0xA0 SHL SUB DUP7 AND DUP1 DUP6 MSTORE SWAP3 MSTORE DUP1 DUP4 KECCAK256 DUP1 SLOAD PUSH1 0xFF NOT AND SWAP1 SSTORE MLOAD CALLER SWAP3 DUP7 SWAP2 PUSH32 0xF6391F5C32D9C69D2A47EA670B442974B53935D1EDC7FD64EB21E047A839171B SWAP2 SWAP1 LOG4 POP PUSH1 0x1 PUSH2 0x3E3 JUMP JUMPDEST PUSH1 0x40 DUP1 MLOAD PUSH1 0x20 DUP2 ADD DUP6 SWAP1 MSTORE SWAP1 DUP2 ADD DUP4 SWAP1 MSTORE PUSH1 0x60 DUP2 DUP2 ADD DUP4 SWAP1 MSTORE PUSH12 0xFFFFFFFFFFFFFFFFFFFFFFFF NOT CALLER DUP3 SHL AND PUSH1 0x80 DUP4 ADD MSTORE PREVRANDAO PUSH1 0x94 DUP4 ADD MSTORE SWAP1 PUSH1 0x0 SWAP1 PUSH1 0xB4 ADD PUSH1 0x40 MLOAD PUSH1 0x20 DUP2 DUP4 SUB SUB DUP2 MSTORE SWAP1 PUSH1 0x40 MSTORE DUP1 MLOAD SWAP1 PUSH1 0x20 ADD KECCAK256 SWAP1 POP PUSH2 0x1705 DUP2 PUSH2 0x174B JUMP JUMPDEST SWAP6 SWAP5 POP POP POP POP POP JUMP JUMPDEST PUSH2 0x1718 DUP3 DUP3 PUSH2 0xCC3 JUMP JUMPDEST PUSH2 0x1747 JUMPI PUSH1 0x40 MLOAD PUSH4 0xE2517D3F PUSH1 0xE0 SHL DUP2 MSTORE PUSH1 0x1 PUSH1 0x1 PUSH1 0xA0 SHL SUB DUP3 AND PUSH1 0x4 DUP3 ADD MSTORE PUSH1 0x24 DUP2 ADD DUP4 SWAP1 MSTORE PUSH1 0x44 ADD PUSH2 0xD76 JUMP JUMPDEST POP POP JUMP JUMPDEST PUSH1 0x40 DUP1 MLOAD DUP1 DUP3 ADD DUP3 MSTORE PUSH1 0x10 DUP2 MSTORE PUSH16 0x181899199A1A9B1B9C1CB0B131B232B3 PUSH1 0x81 SHL PUSH1 0x20 DUP3 ADD MSTORE DUP2 MLOAD DUP3 DUP2 MSTORE PUSH1 0x60 DUP2 DUP2 ADD DUP5 MSTORE SWAP3 PUSH1 0x0 SWAP2 SWAP1 PUSH1 0x20 DUP3 ADD DUP2 DUP1 CALLDATASIZE DUP4 CALLDATACOPY ADD SWAP1 POP POP SWAP1 POP PUSH1 0x0 JUMPDEST PUSH1 0x20 DUP2 LT ISZERO PUSH2 0x18A3 JUMPI DUP3 PUSH1 0x4 DUP7 DUP4 PUSH1 0x20 DUP2 LT PUSH2 0x17B2 JUMPI PUSH2 0x17B2 PUSH2 0x1FEF JUMP JUMPDEST BYTE PUSH1 0xF8 SHL PUSH1 0x1 PUSH1 0x1 PUSH1 0xF8 SHL SUB NOT AND SWAP1 SHR PUSH1 0xF8 SHR PUSH1 0xFF AND DUP2 MLOAD DUP2 LT PUSH2 0x17D8 JUMPI PUSH2 0x17D8 PUSH2 0x1FEF JUMP JUMPDEST ADD PUSH1 0x20 ADD MLOAD PUSH1 0x1 PUSH1 0x1 PUSH1 0xF8 SHL SUB NOT AND DUP3 PUSH2 0x17F3 DUP4 PUSH1 0x2 PUSH2 0x2005 JUMP JUMPDEST DUP2 MLOAD DUP2 LT PUSH2 0x1803 JUMPI PUSH2 0x1803 PUSH2 0x1FEF JUMP JUMPDEST PUSH1 0x20 ADD ADD SWAP1 PUSH1 0x1 PUSH1 0x1 PUSH1 0xF8 SHL SUB NOT AND SWAP1 DUP2 PUSH1 0x0 BYTE SWAP1 MSTORE8 POP DUP3 DUP6 DUP3 PUSH1 0x20 DUP2 LT PUSH2 0x182D JUMPI PUSH2 0x182D PUSH2 0x1FEF JUMP JUMPDEST DUP3 MLOAD SWAP2 SWAP1 BYTE PUSH1 0xF AND SWAP1 DUP2 LT PUSH2 0x1844 JUMPI PUSH2 0x1844 PUSH2 0x1FEF JUMP JUMPDEST ADD PUSH1 0x20 ADD MLOAD PUSH1 0x1 PUSH1 0x1 PUSH1 0xF8 SHL SUB NOT AND DUP3 PUSH2 0x185F DUP4 PUSH1 0x2 PUSH2 0x2005 JUMP JUMPDEST PUSH2 0x186A SWAP1 PUSH1 0x1 PUSH2 0x201C JUMP JUMPDEST DUP2 MLOAD DUP2 LT PUSH2 0x187A JUMPI PUSH2 0x187A PUSH2 0x1FEF JUMP JUMPDEST PUSH1 0x20 ADD ADD SWAP1 PUSH1 0x1 PUSH1 0x1 PUSH1 0xF8 SHL SUB NOT AND SWAP1 DUP2 PUSH1 0x0 BYTE SWAP1 MSTORE8 POP DUP1 PUSH2 0x189B DUP2 PUSH2 0x1E00 JUMP JUMPDEST SWAP2 POP POP PUSH2 0x1794 JUMP JUMPDEST POP SWAP4 SWAP3 POP POP POP JUMP JUMPDEST PUSH1 0x0 PUSH1 0x20 DUP3 DUP5 SUB SLT ISZERO PUSH2 0x18BD JUMPI PUSH1 0x0 DUP1 REVERT JUMPDEST DUP2 CALLDATALOAD PUSH1 0x1 PUSH1 0x1 PUSH1 0xE0 SHL SUB NOT DUP2 AND DUP2 EQ PUSH2 0x18D5 JUMPI PUSH1 0x0 DUP1 REVERT JUMPDEST SWAP4 SWAP3 POP POP POP JUMP JUMPDEST PUSH1 0x0 PUSH1 0x20 DUP3 DUP5 SUB SLT ISZERO PUSH2 0x18EE JUMPI PUSH1 0x0 DUP1 REVERT JUMPDEST POP CALLDATALOAD SWAP2 SWAP1 POP JUMP JUMPDEST PUSH1 0x0 DUP2 MLOAD DUP1 DUP5 MSTORE PUSH1 0x0 JUMPDEST DUP2 DUP2 LT ISZERO PUSH2 0x191B JUMPI PUSH1 0x20 DUP2 DUP6 ADD DUP2 ADD MLOAD DUP7 DUP4 ADD DUP3 ADD MSTORE ADD PUSH2 0x18FF JUMP JUMPDEST POP PUSH1 0x0 PUSH1 0x20 DUP3 DUP7 ADD ADD MSTORE PUSH1 0x20 PUSH1 0x1F NOT PUSH1 0x1F DUP4 ADD AND DUP6 ADD ADD SWAP2 POP POP SWAP3 SWAP2 POP POP JUMP JUMPDEST PUSH4 0x4E487B71 PUSH1 0xE0 SHL PUSH1 0x0 MSTORE PUSH1 0x21 PUSH1 0x4 MSTORE PUSH1 0x24 PUSH1 0x0 REVERT JUMPDEST PUSH1 0x6 DUP2 LT PUSH2 0x1961 JUMPI PUSH2 0x1961 PUSH2 0x193B JUMP JUMPDEST SWAP1 MSTORE JUMP JUMPDEST PUSH1 0x0 PUSH2 0x120 DUP12 DUP4 MSTORE DUP1 PUSH1 0x20 DUP5 ADD MSTORE PUSH2 0x197F DUP2 DUP5 ADD DUP13 PUSH2 0x18F5 JUMP JUMPDEST SWAP1 POP DUP3 DUP2 SUB PUSH1 0x40 DUP5 ADD MSTORE PUSH2 0x1993 DUP2 DUP12 PUSH2 0x18F5 JUMP JUMPDEST SWAP1 POP PUSH2 0x19A2 PUSH1 0x60 DUP5 ADD DUP11 PUSH2 0x1951 JUMP JUMPDEST PUSH1 0x4 DUP9 LT PUSH2 0x19B2 JUMPI PUSH2 0x19B2 PUSH2 0x193B JUMP JUMPDEST PUSH1 0x80 DUP4 ADD DUP9 SWAP1 MSTORE PUSH1 0x1 PUSH1 0x1 PUSH1 0xA0 SHL SUB DUP8 AND PUSH1 0xA0 DUP5 ADD MSTORE PUSH1 0xC0 DUP4 ADD DUP7 SWAP1 MSTORE DUP3 DUP2 SUB PUSH1 0xE0 DUP5 ADD MSTORE PUSH2 0x19E1 DUP2 DUP7 PUSH2 0x18F5 JUMP JUMPDEST SWAP2 POP POP DUP3 ISZERO ISZERO PUSH2 0x100 DUP4 ADD MSTORE SWAP11 SWAP10 POP POP POP POP POP POP POP POP POP POP JUMP JUMPDEST DUP4 DUP2 MSTORE PUSH1 0x60 PUSH1 0x20 DUP3 ADD MSTORE PUSH1 0x0 PUSH2 0x1A14 PUSH1 0x60 DUP4 ADD DUP6 PUSH2 0x18F5 JUMP JUMPDEST DUP3 DUP2 SUB PUSH1 0x40 DUP5 ADD MSTORE PUSH2 0x1A26 DUP2 DUP6 PUSH2 0x18F5 JUMP JUMPDEST SWAP7 SWAP6 POP POP POP POP POP POP JUMP JUMPDEST DUP1 CALLDATALOAD PUSH1 0x1 PUSH1 0x1 PUSH1 0xA0 SHL SUB DUP2 AND DUP2 EQ PUSH2 0x1A47 JUMPI PUSH1 0x0 DUP1 REVERT JUMPDEST SWAP2 SWAP1 POP JUMP JUMPDEST PUSH1 0x0 DUP1 PUSH1 0x40 DUP4 DUP6 SUB SLT ISZERO PUSH2 0x1A5F JUMPI PUSH1 0x0 DUP1 REVERT JUMPDEST DUP3 CALLDATALOAD SWAP2 POP PUSH2 0x1A6F PUSH1 0x20 DUP5 ADD PUSH2 0x1A30 JUMP JUMPDEST SWAP1 POP SWAP3 POP SWAP3 SWAP1 POP JUMP JUMPDEST PUSH1 0x0 PUSH1 0x20 DUP1 DUP4 ADD DUP2 DUP5 MSTORE DUP1 DUP6 MLOAD DUP1 DUP4 MSTORE PUSH1 0x40 SWAP3 POP DUP3 DUP7 ADD SWAP2 POP DUP3 DUP2 PUSH1 0x5 SHL DUP8 ADD ADD DUP5 DUP9 ADD PUSH1 0x0 JUMPDEST DUP4 DUP2 LT ISZERO PUSH2 0x1B49 JUMPI DUP9 DUP4 SUB PUSH1 0x3F NOT ADD DUP6 MSTORE DUP2 MLOAD DUP1 MLOAD DUP5 MSTORE DUP8 DUP2 ADD MLOAD DUP9 DUP6 ADD MSTORE DUP7 DUP2 ADD MLOAD DUP8 DUP6 ADD MSTORE PUSH1 0x60 DUP1 DUP3 ADD MLOAD PUSH1 0x1 PUSH1 0x1 PUSH1 0xA0 SHL SUB AND SWAP1 DUP6 ADD MSTORE PUSH1 0x80 DUP1 DUP3 ADD MLOAD PUSH2 0x100 DUP3 DUP8 ADD DUP2 SWAP1 MSTORE SWAP2 SWAP1 PUSH2 0x1AF6 DUP4 DUP9 ADD DUP3 PUSH2 0x18F5 JUMP JUMPDEST SWAP3 POP POP POP PUSH1 0xA0 DUP1 DUP4 ADD MLOAD PUSH2 0x1B0D DUP3 DUP9 ADD DUP3 ISZERO ISZERO SWAP1 MSTORE JUMP JUMPDEST POP POP PUSH1 0xC0 DUP3 DUP2 ADD MLOAD ISZERO ISZERO SWAP1 DUP7 ADD MSTORE PUSH1 0xE0 SWAP2 DUP3 ADD MLOAD DUP6 DUP3 SUB SWAP3 DUP7 ADD SWAP3 SWAP1 SWAP3 MSTORE PUSH2 0x1B35 DUP2 DUP4 PUSH2 0x18F5 JUMP JUMPDEST SWAP7 DUP10 ADD SWAP7 SWAP5 POP POP POP SWAP1 DUP7 ADD SWAP1 PUSH1 0x1 ADD PUSH2 0x1A9F JUMP JUMPDEST POP SWAP1 SWAP9 SWAP8 POP POP POP POP POP POP POP POP JUMP JUMPDEST PUSH1 0x0 DUP1 PUSH1 0x40 DUP4 DUP6 SUB SLT ISZERO PUSH2 0x1B6A JUMPI PUSH1 0x0 DUP1 REVERT JUMPDEST POP POP DUP1 CALLDATALOAD SWAP3 PUSH1 0x20 SWAP1 SWAP2 ADD CALLDATALOAD SWAP2 POP JUMP JUMPDEST PUSH1 0x0 PUSH2 0x100 DUP11 DUP4 MSTORE DUP10 PUSH1 0x20 DUP5 ADD MSTORE DUP9 PUSH1 0x40 DUP5 ADD MSTORE PUSH1 0x1 DUP1 PUSH1 0xA0 SHL SUB DUP9 AND PUSH1 0x60 DUP5 ADD MSTORE DUP1 PUSH1 0x80 DUP5 ADD MSTORE PUSH2 0x1BAD DUP2 DUP5 ADD DUP9 PUSH2 0x18F5 JUMP JUMPDEST SWAP1 POP DUP6 ISZERO ISZERO PUSH1 0xA0 DUP5 ADD MSTORE DUP5 ISZERO ISZERO PUSH1 0xC0 DUP5 ADD MSTORE DUP3 DUP2 SUB PUSH1 0xE0 DUP5 ADD MSTORE PUSH2 0x1BD1 DUP2 DUP6 PUSH2 0x18F5 JUMP JUMPDEST SWAP12 SWAP11 POP POP POP POP POP POP POP POP POP POP POP JUMP JUMPDEST PUSH1 0x0 DUP1 PUSH1 0x40 DUP4 DUP6 SUB SLT ISZERO PUSH2 0x1BF3 JUMPI PUSH1 0x0 DUP1 REVERT JUMPDEST PUSH2 0x1BFC DUP4 PUSH2 0x1A30 JUMP JUMPDEST SWAP5 PUSH1 0x20 SWAP4 SWAP1 SWAP4 ADD CALLDATALOAD SWAP4 POP POP POP JUMP JUMPDEST PUSH4 0x4E487B71 PUSH1 0xE0 SHL PUSH1 0x0 MSTORE PUSH1 0x41 PUSH1 0x4 MSTORE PUSH1 0x24 PUSH1 0x0 REVERT JUMPDEST PUSH1 0x0 DUP3 PUSH1 0x1F DUP4 ADD SLT PUSH2 0x1C31 JUMPI PUSH1 0x0 DUP1 REVERT JUMPDEST DUP2 CALLDATALOAD PUSH8 0xFFFFFFFFFFFFFFFF DUP1 DUP3 GT ISZERO PUSH2 0x1C4C JUMPI PUSH2 0x1C4C PUSH2 0x1C0A JUMP JUMPDEST PUSH1 0x40 MLOAD PUSH1 0x1F DUP4 ADD PUSH1 0x1F NOT SWAP1 DUP2 AND PUSH1 0x3F ADD AND DUP2 ADD SWAP1 DUP3 DUP3 GT DUP2 DUP4 LT OR ISZERO PUSH2 0x1C74 JUMPI PUSH2 0x1C74 PUSH2 0x1C0A JUMP JUMPDEST DUP2 PUSH1 0x40 MSTORE DUP4 DUP2 MSTORE DUP7 PUSH1 0x20 DUP6 DUP9 ADD ADD GT ISZERO PUSH2 0x1C8D JUMPI PUSH1 0x0 DUP1 REVERT JUMPDEST DUP4 PUSH1 0x20 DUP8 ADD PUSH1 0x20 DUP4 ADD CALLDATACOPY PUSH1 0x0 PUSH1 0x20 DUP6 DUP4 ADD ADD MSTORE DUP1 SWAP5 POP POP POP POP POP SWAP3 SWAP2 POP POP JUMP JUMPDEST PUSH1 0x0 DUP1 PUSH1 0x0 DUP1 PUSH1 0x0 PUSH1 0xA0 DUP7 DUP9 SUB SLT ISZERO PUSH2 0x1CC5 JUMPI PUSH1 0x0 DUP1 REVERT JUMPDEST DUP6 CALLDATALOAD PUSH8 0xFFFFFFFFFFFFFFFF DUP1 DUP3 GT ISZERO PUSH2 0x1CDD JUMPI PUSH1 0x0 DUP1 REVERT JUMPDEST PUSH2 0x1CE9 DUP10 DUP4 DUP11 ADD PUSH2 0x1C20 JUMP JUMPDEST SWAP7 POP PUSH1 0x20 DUP9 ADD CALLDATALOAD SWAP2 POP DUP1 DUP3 GT ISZERO PUSH2 0x1CFF JUMPI PUSH1 0x0 DUP1 REVERT JUMPDEST PUSH2 0x1D0B DUP10 DUP4 DUP11 ADD PUSH2 0x1C20 JUMP JUMPDEST SWAP6 POP PUSH1 0x40 DUP9 ADD CALLDATALOAD SWAP2 POP PUSH1 0x6 DUP3 LT PUSH2 0x1D21 JUMPI PUSH1 0x0 DUP1 REVERT JUMPDEST DUP2 SWAP5 POP PUSH2 0x1D30 PUSH1 0x60 DUP10 ADD PUSH2 0x1A30 JUMP JUMPDEST SWAP4 POP PUSH1 0x80 DUP9 ADD CALLDATALOAD SWAP2 POP DUP1 DUP3 GT ISZERO PUSH2 0x1D46 JUMPI PUSH1 0x0 DUP1 REVERT JUMPDEST POP PUSH2 0x1D53 DUP9 DUP3 DUP10 ADD PUSH2 0x1C20 JUMP JUMPDEST SWAP2 POP POP SWAP3 SWAP6 POP SWAP3 SWAP6 SWAP1 SWAP4 POP JUMP JUMPDEST PUSH1 0x0 DUP1 PUSH1 0x0 PUSH1 0x60 DUP5 DUP7 SUB SLT ISZERO PUSH2 0x1D75 JUMPI PUSH1 0x0 DUP1 REVERT JUMPDEST DUP4 CALLDATALOAD SWAP3 POP PUSH1 0x20 DUP5 ADD CALLDATALOAD SWAP2 POP PUSH1 0x40 DUP5 ADD CALLDATALOAD PUSH8 0xFFFFFFFFFFFFFFFF DUP2 GT ISZERO PUSH2 0x1D9A JUMPI PUSH1 0x0 DUP1 REVERT JUMPDEST PUSH2 0x1DA6 DUP7 DUP3 DUP8 ADD PUSH2 0x1C20 JUMP JUMPDEST SWAP2 POP POP SWAP3 POP SWAP3 POP SWAP3 JUMP JUMPDEST PUSH1 0x1 DUP2 DUP2 SHR SWAP1 DUP3 AND DUP1 PUSH2 0x1DC4 JUMPI PUSH1 0x7F DUP3 AND SWAP2 POP JUMPDEST PUSH1 0x20 DUP3 LT DUP2 SUB PUSH2 0x1DE4 JUMPI PUSH4 0x4E487B71 PUSH1 0xE0 SHL PUSH1 0x0 MSTORE PUSH1 0x22 PUSH1 0x4 MSTORE PUSH1 0x24 PUSH1 0x0 REVERT JUMPDEST POP SWAP2 SWAP1 POP JUMP JUMPDEST PUSH4 0x4E487B71 PUSH1 0xE0 SHL PUSH1 0x0 MSTORE PUSH1 0x11 PUSH1 0x4 MSTORE PUSH1 0x24 PUSH1 0x0 REVERT JUMPDEST PUSH1 0x0 PUSH1 0x1 DUP3 ADD PUSH2 0x1E12 JUMPI PUSH2 0x1E12 PUSH2 0x1DEA JUMP JUMPDEST POP PUSH1 0x1 ADD SWAP1 JUMP JUMPDEST PUSH1 0x1F DUP3 GT ISZERO PUSH2 0x946 JUMPI PUSH1 0x0 DUP2 DUP2 MSTORE PUSH1 0x20 DUP2 KECCAK256 PUSH1 0x1F DUP6 ADD PUSH1 0x5 SHR DUP2 ADD PUSH1 0x20 DUP7 LT ISZERO PUSH2 0x1E40 JUMPI POP DUP1 JUMPDEST PUSH1 0x1F DUP6 ADD PUSH1 0x5 SHR DUP3 ADD SWAP2 POP JUMPDEST DUP2 DUP2 LT ISZERO PUSH2 0x1E5F JUMPI DUP3 DUP2 SSTORE PUSH1 0x1 ADD PUSH2 0x1E4C JUMP JUMPDEST POP POP POP POP POP POP JUMP JUMPDEST DUP2 MLOAD PUSH8 0xFFFFFFFFFFFFFFFF DUP2 GT ISZERO PUSH2 0x1E81 JUMPI PUSH2 0x1E81 PUSH2 0x1C0A JUMP JUMPDEST PUSH2 0x1E95 DUP2 PUSH2 0x1E8F DUP5 SLOAD PUSH2 0x1DB0 JUMP JUMPDEST DUP5 PUSH2 0x1E19 JUMP JUMPDEST PUSH1 0x20 DUP1 PUSH1 0x1F DUP4 GT PUSH1 0x1 DUP2 EQ PUSH2 0x1ECA JUMPI PUSH1 0x0 DUP5 ISZERO PUSH2 0x1EB2 JUMPI POP DUP6 DUP4 ADD MLOAD JUMPDEST PUSH1 0x0 NOT PUSH1 0x3 DUP7 SWAP1 SHL SHR NOT AND PUSH1 0x1 DUP6 SWAP1 SHL OR DUP6 SSTORE PUSH2 0x1E5F JUMP JUMPDEST PUSH1 0x0 DUP6 DUP2 MSTORE PUSH1 0x20 DUP2 KECCAK256 PUSH1 0x1F NOT DUP7 AND SWAP2 JUMPDEST DUP3 DUP2 LT ISZERO PUSH2 0x1EF9 JUMPI DUP9 DUP7 ADD MLOAD DUP3 SSTORE SWAP5 DUP5 ADD SWAP5 PUSH1 0x1 SWAP1 SWAP2 ADD SWAP1 DUP5 ADD PUSH2 0x1EDA JUMP JUMPDEST POP DUP6 DUP3 LT ISZERO PUSH2 0x1F17 JUMPI DUP8 DUP6 ADD MLOAD PUSH1 0x0 NOT PUSH1 0x3 DUP9 SWAP1 SHL PUSH1 0xF8 AND SHR NOT AND DUP2 SSTORE JUMPDEST POP POP POP POP POP PUSH1 0x1 SWAP1 DUP2 SHL ADD SWAP1 SSTORE POP JUMP JUMPDEST PUSH1 0x80 DUP2 MSTORE PUSH1 0x0 PUSH2 0x1F3A PUSH1 0x80 DUP4 ADD DUP8 PUSH2 0x18F5 JUMP JUMPDEST DUP3 DUP2 SUB PUSH1 0x20 DUP5 ADD MSTORE PUSH2 0x1F4C DUP2 DUP8 PUSH2 0x18F5 JUMP JUMPDEST SWAP2 POP POP PUSH2 0x1F5C PUSH1 0x40 DUP4 ADD DUP6 PUSH2 0x1951 JUMP JUMPDEST DUP3 PUSH1 0x60 DUP4 ADD MSTORE SWAP6 SWAP5 POP POP POP POP POP JUMP JUMPDEST PUSH1 0x20 DUP1 DUP3 MSTORE PUSH1 0x21 SWAP1 DUP3 ADD MSTORE PUSH32 0x4E6F6465547261636B696E673A204E6F646520646F6573206E6F742065786973 PUSH1 0x40 DUP3 ADD MSTORE PUSH1 0x1D PUSH1 0xFA SHL PUSH1 0x60 DUP3 ADD MSTORE PUSH1 0x80 ADD SWAP1 JUMP JUMPDEST DUP3 DUP2 MSTORE PUSH1 0x40 PUSH1 0x20 DUP3 ADD MSTORE PUSH1 0x0 PUSH2 0x1FC5 PUSH1 0x40 DUP4 ADD DUP5 PUSH2 0x18F5 JUMP JUMPDEST SWAP5 SWAP4 POP POP POP POP JUMP JUMPDEST PUSH1 0x40 DUP2 MSTORE PUSH1 0x0 PUSH2 0x1FE0 PUSH1 0x40 DUP4 ADD DUP6 PUSH2 0x18F5 JUMP JUMPDEST SWAP1 POP DUP3 PUSH1 0x20 DUP4 ADD MSTORE SWAP4 SWAP3 POP POP POP JUMP JUMPDEST PUSH4 0x4E487B71 PUSH1 0xE0 SHL PUSH1 0x0 MSTORE PUSH1 0x32 PUSH1 0x4 MSTORE PUSH1 0x24 PUSH1 0x0 REVERT JUMPDEST DUP1 DUP3 MUL DUP2 ISZERO DUP3 DUP3 DIV DUP5 EQ OR PUSH2 0x3E3 JUMPI PUSH2 0x3E3 PUSH2 0x1DEA JUMP JUMPDEST DUP1 DUP3 ADD DUP1 DUP3 GT ISZERO PUSH2 0x3E3 JUMPI PUSH2 0x3E3 PUSH2 0x1DEA JUMP INVALID LOG2 PUSH5 0x6970667358 0x22 SLT KECCAK256 PUSH25 0x28A7BE6163AB6A76F00F01AE9F10DA1472F2169AFD6B7F9685 JUMP 0xC1 0x21 SWAP6 0x2A PUSH27 0x64736F6C6343000814003300000000000000000000000000000000 "},"methodIdentifiers":{"DEFAULT_ADMIN_ROLE()":"a217fddf","LOGISTICS_ROLE()":"c602d3fb","MANUFACTURER_ROLE()":"965288b0","NODE_OPERATOR_ROLE()":"5cd7bf24","SUPPLIER_ROLE()":"a29508fc","batchAtNode(uint256,uint256)":"ff3082fe","batchTransitHistory(uint256,uint256)":"89581b49","createNode(string,string,uint8,address,string)":"a4a089a0","currentNodeLocation(uint256)":"049193dd","getCurrentLocation(uint256)":"23bb1835","getRoleAdmin(bytes32)":"248a9ca3","getTransitHistory(uint256)":"7dfd1fea","grantRole(bytes32,address)":"2f2ff15d","hasRole(bytes32,address)":"91d14854","nodes(uint256)":"1c53c280","operatorNodes(address,uint256)":"9b070b00","recordBatchEntry(uint256,uint256,string)":"bd80537b","recordBatchExit(uint256,uint256)":"cf3eb340","renounceRole(bytes32,address)":"36568abe","revokeRole(bytes32,address)":"d547741f","supportsInterface(bytes4)":"01ffc9a7"}}}}}