{
  "_format": "hh-sol-artifact-1",
  "contractName": "BatchContract",
  "sourceName": "blockchain/contracts/BatchContract.sol",
  "abi": [
    {
      "inputs": [],
      "stateMutability": "nonpayable",
      "type": "constructor"
    },
    {
      "inputs": [],
      "name": "AccessControlBadConfirmation",
      "type": "error"
    },
    {
      "inputs": [
        {
          "internalType": "address",
          "name": "account",
          "type": "address"
        },
        {
          "internalType": "bytes32",
          "name": "neededRole",
          "type": "bytes32"
        }
      ],
      "name": "AccessControlUnauthorizedAccount",
      "type": "error"
    },
    {
      "anonymous": false,
      "inputs": [
        {
          "indexed": true,
          "internalType": "uint256",
          "name": "batchId",
          "type": "uint256"
        },
        {
          "indexed": true,
          "internalType": "address",
          "name": "manufacturer",
          "type": "address"
        },
        {
          "indexed": false,
          "internalType": "string",
          "name": "productType",
          "type": "string"
        },
        {
          "indexed": false,
          "internalType": "uint256",
          "name": "quantity",
          "type": "uint256"
        },
        {
          "indexed": false,
          "internalType": "string",
          "name": "qrCode",
          "type": "string"
        },
        {
          "indexed": false,
          "internalType": "uint256",
          "name": "timestamp",
          "type": "uint256"
        }
      ],
      "name": "BatchCreated",
      "type": "event"
    },
    {
      "anonymous": false,
      "inputs": [
        {
          "indexed": true,
          "internalType": "uint256",
          "name": "batchId",
          "type": "uint256"
        },
        {
          "indexed": false,
          "internalType": "enum BatchContract.BatchStatus",
          "name": "newStatus",
          "type": "uint8"
        },
        {
          "indexed": false,
          "internalType": "uint256",
          "name": "timestamp",
          "type": "uint256"
        }
      ],
      "name": "BatchStatusUpdated",
      "type": "event"
    },
    {
      "anonymous": false,
      "inputs": [
        {
          "indexed": true,
          "internalType": "uint256",
          "name": "batchId",
          "type": "uint256"
        },
        {
          "indexed": true,
          "internalType": "address",
          "name": "scanner",
          "type": "address"
        },
        {
          "indexed": false,
          "internalType": "uint256",
          "name": "timestamp",
          "type": "uint256"
        }
      ],
      "name": "QRCodeScanned",
      "type": "event"
    },
    {
      "anonymous": false,
      "inputs": [
        {
          "indexed": true,
          "internalType": "bytes32",
          "name": "role",
          "type": "bytes32"
        },
        {
          "indexed": true,
          "internalType": "bytes32",
          "name": "previousAdminRole",
          "type": "bytes32"
        },
        {
          "indexed": true,
          "internalType": "bytes32",
          "name": "newAdminRole",
          "type": "bytes32"
        }
      ],
      "name": "RoleAdminChanged",
      "type": "event"
    },
    {
      "anonymous": false,
      "inputs": [
        {
          "indexed": true,
          "internalType": "bytes32",
          "name": "role",
          "type": "bytes32"
        },
        {
          "indexed": true,
          "internalType": "address",
          "name": "account",
          "type": "address"
        },
        {
          "indexed": true,
          "internalType": "address",
          "name": "sender",
          "type": "address"
        }
      ],
      "name": "RoleGranted",
      "type": "event"
    },
    {
      "anonymous": false,
      "inputs": [
        {
          "indexed": true,
          "internalType": "bytes32",
          "name": "role",
          "type": "bytes32"
        },
        {
          "indexed": true,
          "internalType": "address",
          "name": "account",
          "type": "address"
        },
        {
          "indexed": true,
          "internalType": "address",
          "name": "sender",
          "type": "address"
        }
      ],
      "name": "RoleRevoked",
      "type": "event"
    },
    {
      "inputs": [],
      "name": "DEFAULT_ADMIN_ROLE",
      "outputs": [
        {
          "internalType": "bytes32",
          "name": "",
          "type": "bytes32"
        }
      ],
      "stateMutability": "view",
      "type": "function"
    },
    {
      "inputs": [],
      "name": "LOGISTICS_ROLE",
      "outputs": [
        {
          "internalType": "bytes32",
          "name": "",
          "type": "bytes32"
        }
      ],
      "stateMutability": "view",
      "type": "function"
    },
    {
      "inputs": [],
      "name": "MANUFACTURER_ROLE",
      "outputs": [
        {
          "internalType": "bytes32",
          "name": "",
          "type": "bytes32"
        }
      ],
      "stateMutability": "view",
      "type": "function"
    },
    {
      "inputs": [],
      "name": "SUPPLIER_ROLE",
      "outputs": [
        {
          "internalType": "bytes32",
          "name": "",
          "type": "bytes32"
        }
      ],
      "stateMutability": "view",
      "type": "function"
    },
    {
      "inputs": [
        {
          "internalType": "uint256",
          "name": "",
          "type": "uint256"
        }
      ],
      "name": "batches",
      "outputs": [
        {
          "internalType": "uint256",
          "name": "id",
          "type": "uint256"
        },
        {
          "internalType": "string",
          "name": "productType",
          "type": "string"
        },
        {
          "internalType": "uint256",
          "name": "quantity",
          "type": "uint256"
        },
        {
          "internalType": "address",
          "name": "manufacturer",
          "type": "address"
        },
        {
          "internalType": "string",
          "name": "origin",
          "type": "string"
        },
        {
          "internalType": "uint256",
          "name": "createdAt",
          "type": "uint256"
        },
        {
          "internalType": "enum BatchContract.BatchStatus",
          "name": "status",
          "type": "uint8"
        },
        {
          "internalType": "string",
          "name": "qrCode",
          "type": "string"
        },
        {
          "internalType": "string",
          "name": "metadataURI",
          "type": "string"
        },
        {
          "internalType": "bool",
          "name": "exists",
          "type": "bool"
        }
      ],
      "stateMutability": "view",
      "type": "function"
    },
    {
      "inputs": [
        {
          "internalType": "string",
          "name": "_productType",
          "type": "string"
        },
        {
          "internalType": "uint256",
          "name": "_quantity",
          "type": "uint256"
        },
        {
          "internalType": "string",
          "name": "_origin",
          "type": "string"
        },
        {
          "internalType": "string",
          "name": "_metadataURI",
          "type": "string"
        }
      ],
      "name": "createBatch",
      "outputs": [
        {
          "internalType": "uint256",
          "name": "",
          "type": "uint256"
        }
      ],
      "stateMutability": "nonpayable",
      "type": "function"
    },
    {
      "inputs": [
        {
          "internalType": "uint256",
          "name": "_batchId",
          "type": "uint256"
        }
      ],
      "name": "getBatchInfo",
      "outputs": [
        {
          "internalType": "uint256",
          "name": "id",
          "type": "uint256"
        },
        {
          "internalType": "string",
          "name": "productType",
          "type": "string"
        },
        {
          "internalType": "uint256",
          "name": "quantity",
          "type": "uint256"
        },
        {
          "internalType": "address",
          "name": "manufacturer",
          "type": "address"
        },
        {
          "internalType": "string",
          "name": "origin",
          "type": "string"
        },
        {
          "internalType": "uint256",
          "name": "createdAt",
          "type": "uint256"
        },
        {
          "internalType": "enum BatchContract.BatchStatus",
          "name": "status",
          "type": "uint8"
        },
        {
          "internalType": "string",
          "name": "qrCode",
          "type": "string"
        },
        {
          "internalType": "string",
          "name": "metadataURI",
          "type": "string"
        }
      ],
      "stateMutability": "view",
      "type": "function"
    },
    {
      "inputs": [
        {
          "internalType": "address",
          "name": "_manufacturer",
          "type": "address"
        }
      ],
      "name": "getBatchesByManufacturer",
      "outputs": [
        {
          "internalType": "uint256[]",
          "name": "",
          "type": "uint256[]"
        }
      ],
      "stateMutability": "view",
      "type": "function"
    },
    {
      "inputs": [],
      "name": "getCurrentBatchId",
      "outputs": [
        {
          "internalType": "uint256",
          "name": "",
          "type": "uint256"
        }
      ],
      "stateMutability": "view",
      "type": "function"
    },
    {
      "inputs": [
        {
          "internalType": "bytes32",
          "name": "role",
          "type": "bytes32"
        }
      ],
      "name": "getRoleAdmin",
      "outputs": [
        {
          "internalType": "bytes32",
          "name": "",
          "type": "bytes32"
        }
      ],
      "stateMutability": "view",
      "type": "function"
    },
    {
      "inputs": [
        {
          "internalType": "address",
          "name": "account",
          "type": "address"
        }
      ],
      "name": "grantLogisticsRole",
      "outputs": [],
      "stateMutability": "nonpayable",
      "type": "function"
    },
    {
      "inputs": [
        {
          "internalType": "address",
          "name": "account",
          "type": "address"
        }
      ],
      "name": "grantManufacturerRole",
      "outputs": [],
      "stateMutability": "nonpayable",
      "type": "function"
    },
    {
      "inputs": [
        {
          "internalType": "bytes32",
          "name": "role",
          "type": "bytes32"
        },
        {
          "internalType": "address",
          "name": "account",
          "type": "address"
        }
      ],
      "name": "grantRole",
      "outputs": [],
      "stateMutability": "nonpayable",
      "type": "function"
    },
    {
      "inputs": [
        {
          "internalType": "address",
          "name": "account",
          "type": "address"
        }
      ],
      "name": "grantSupplierRole",
      "outputs": [],
      "stateMutability": "nonpayable",
      "type": "function"
    },
    {
      "inputs": [
        {
          "internalType": "bytes32",
          "name": "role",
          "type": "bytes32"
        },
        {
          "internalType": "address",
          "name": "account",
          "type": "address"
        }
      ],
      "name": "hasRole",
      "outputs": [
        {
          "internalType": "bool",
          "name": "",
          "type": "bool"
        }
      ],
      "stateMutability": "view",
      "type": "function"
    },
    {
      "inputs": [
        {
          "internalType": "address",
          "name": "",
          "type": "address"
        },
        {
          "internalType": "uint256",
          "name": "",
          "type": "uint256"
        }
      ],
      "name": "manufacturerBatches",
      "outputs": [
        {
          "internalType": "uint256",
          "name": "",
          "type": "uint256"
        }
      ],
      "stateMutability": "view",
      "type": "function"
    },
    {
      "inputs": [
        {
          "internalType": "string",
          "name": "",
          "type": "string"
        }
      ],
      "name": "qrCodeToBatchId",
      "outputs": [
        {
          "internalType": "uint256",
          "name": "",
          "type": "uint256"
        }
      ],
      "stateMutability": "view",
      "type": "function"
    },
    {
      "inputs": [
        {
          "internalType": "bytes32",
          "name": "role",
          "type": "bytes32"
        },
        {
          "internalType": "address",
          "name": "callerConfirmation",
          "type": "address"
        }
      ],
      "name": "renounceRole",
      "outputs": [],
      "stateMutability": "nonpayable",
      "type": "function"
    },
    {
      "inputs": [
        {
          "internalType": "bytes32",
          "name": "role",
          "type": "bytes32"
        },
        {
          "internalType": "address",
          "name": "account",
          "type": "address"
        }
      ],
      "name": "revokeRole",
      "outputs": [],
      "stateMutability": "nonpayable",
      "type": "function"
    },
    {
      "inputs": [
        {
          "internalType": "string",
          "name": "_qrCode",
          "type": "string"
        }
      ],
      "name": "scanQRCode",
      "outputs": [
        {
          "internalType": "uint256",
          "name": "",
          "type": "uint256"
        }
      ],
      "stateMutability": "nonpayable",
      "type": "function"
    },
    {
      "inputs": [
        {
          "internalType": "bytes4",
          "name": "interfaceId",
          "type": "bytes4"
        }
      ],
      "name": "supportsInterface",
      "outputs": [
        {
          "internalType": "bool",
          "name": "",
          "type": "bool"
        }
      ],
      "stateMutability": "view",
      "type": "function"
    },
    {
      "inputs": [
        {
          "internalType": "uint256",
          "name": "_batchId",
          "type": "uint256"
        },
        {
          "internalType": "enum BatchContract.BatchStatus",
          "name": "_newStatus",
          "type": "uint8"
        }
      ],
      "name": "updateBatchStatus",
      "outputs": [],
      "stateMutability": "nonpayable",
      "type": "function"
    },
    {
      "inputs": [
        {
          "internalType": "uint256",
          "name": "_batchId",
          "type": "uint256"
        }
      ],
      "name": "validateBatchIntegrity",
      "outputs": [
        {
          "internalType": "bool",
          "name": "",
          "type": "bool"
        }
      ],
      "stateMutability": "view",
      "type": "function"
    }
  ],
  "bytecode": "0x608060405234801561001057600080fd5b5061001c600033610022565b506100ce565b6000828152602081815260408083206001600160a01b038516845290915281205460ff166100c4576000838152602081815260408083206001600160a01b03861684529091529020805460ff1916600117905561007c3390565b6001600160a01b0316826001600160a01b0316847f2f8788117e7eff1d82e926ec794901d17c78024a50270940304540a733656f0d60405160405180910390a45060016100c8565b5060005b92915050565b611bcb806100dd6000396000f3fe608060405234801561001057600080fd5b506004361061014d5760003560e01c8063965288b0116100c3578063d547741f1161007c578063d547741f14610314578063dbec9f6a14610327578063e720ac8e14610352578063ea99eaaf1461035a578063ed97be151461037a578063f03ce4651461038d57600080fd5b8063965288b01461026d578063a217fddf14610282578063a29508fc1461028a578063ab996a0b146102b1578063b32c4d8d146102c4578063c602d3fb146102ed57600080fd5b8063523f3d5511610115578063523f3d55146101fb57806352c88f361461020e57806355c4281e1461022157806360f06c011461023457806387c714631461024757806391d148541461025a57600080fd5b806301ffc9a7146101525780631a0058f51461017a578063248a9ca3146101a25780632f2ff15d146101d357806336568abe146101e8575b600080fd5b6101656101603660046113f6565b6103a0565b60405190151581526020015b60405180910390f35b61018d610188366004611427565b6103d7565b604051610171999897969594939291906114c8565b6101c56101b0366004611427565b60009081526020819052604090206001015490565b604051908152602001610171565b6101e66101e1366004611574565b61075e565b005b6101e66101f6366004611574565b610789565b6101e66102093660046115a0565b6107c1565b6101e661021c3660046115bb565b6107f6565b6101e661022f3660046115a0565b61095c565b6101c5610242366004611692565b61097f565b6101c5610255366004611724565b610ca6565b610165610268366004611574565b610cd7565b6101c5600080516020611b7683398151915281565b6101c5600081565b6101c57fd1ae8bbdabd60d63e418b84f5ad6f9cba90092c9816d7724d85f0d4e4bea2c6081565b6101656102bf366004611427565b610d00565b6102d76102d2366004611427565b610d5a565b6040516101719a9998979695949392919061174e565b6101c57fded9b5e0e0e3a2b3f09a0bc36ec64b9bf7a7c2319f3c4d9cff5ce48714257b2181565b6101e6610322366004611574565b610fe0565b6101c56103353660046117e9565b805160208183018101805160038252928201919093012091525481565b6001546101c5565b61036d6103683660046115a0565b611005565b604051610171919061181e565b6101e66103883660046115a0565b611071565b6101c561039b3660046117e9565b6110a6565b60006001600160e01b03198216637965db0b60e01b14806103d157506301ffc9a760e01b6001600160e01b03198316145b92915050565b600081815260026020526040812060090154606090829081908390829081908390819060ff166104225760405162461bcd60e51b815260040161041990611862565b60405180910390fd5b6000600260008c8152602001908152602001600020604051806101400160405290816000820154815260200160018201805461045d906118a5565b80601f0160208091040260200160405190810160405280929190818152602001828054610489906118a5565b80156104d65780601f106104ab576101008083540402835291602001916104d6565b820191906000526020600020905b8154815290600101906020018083116104b957829003601f168201915b50505091835250506002820154602082015260038201546001600160a01b03166040820152600482018054606090920191610510906118a5565b80601f016020809104026020016040519081016040528092919081815260200182805461053c906118a5565b80156105895780601f1061055e57610100808354040283529160200191610589565b820191906000526020600020905b81548152906001019060200180831161056c57829003601f168201915b505050918352505060058201546020820152600682015460409091019060ff1660038111156105ba576105ba611490565b60038111156105cb576105cb611490565b81526020016007820180546105df906118a5565b80601f016020809104026020016040519081016040528092919081815260200182805461060b906118a5565b80156106585780601f1061062d57610100808354040283529160200191610658565b820191906000526020600020905b81548152906001019060200180831161063b57829003601f168201915b50505050508152602001600882018054610671906118a5565b80601f016020809104026020016040519081016040528092919081815260200182805461069d906118a5565b80156106ea5780601f106106bf576101008083540402835291602001916106ea565b820191906000526020600020905b8154815290600101906020018083116106cd57829003601f168201915b505050505081526020016009820160009054906101000a900460ff1615151515815250509050806000015181602001518260400151836060015184608001518560a001518660c001518760e00151886101000151995099509950995099509950995099509950509193959799909294969850565b60008281526020819052604090206001015461077981611157565b6107838383611164565b50505050565b6001600160a01b03811633146107b25760405163334bd91960e11b815260040160405180910390fd5b6107bc82826111f6565b505050565b60006107cc81611157565b6107bc7fd1ae8bbdabd60d63e418b84f5ad6f9cba90092c9816d7724d85f0d4e4bea2c6083611164565b61080e600080516020611b7683398151915233610cd7565b8061083e575061083e7fd1ae8bbdabd60d63e418b84f5ad6f9cba90092c9816d7724d85f0d4e4bea2c6033610cd7565b8061086e575061086e7fded9b5e0e0e3a2b3f09a0bc36ec64b9bf7a7c2319f3c4d9cff5ce48714257b2133610cd7565b6108ba5760405162461bcd60e51b815260206004820152601b60248201527f4261746368436f6e74726163743a20556e617574686f72697a656400000000006044820152606401610419565b60008281526002602052604090206009015460ff166108eb5760405162461bcd60e51b815260040161041990611862565b6000828152600260205260409020600601805482919060ff1916600183600381111561091957610919611490565b0217905550817f53abf7e786b8d7e0b5df0017a30d110cdbf586f60ae1d09363beb652278edba382426040516109509291906118df565b60405180910390a25050565b600061096781611157565b6107bc600080516020611b7683398151915283611164565b6000610999600080516020611b7683398151915233610cd7565b6109f95760405162461bcd60e51b815260206004820152602b60248201527f4261746368436f6e74726163743a2043616c6c6572206973206e6f742061206d60448201526a30b73ab330b1ba3ab932b960a91b6064820152608401610419565b60008411610a605760405162461bcd60e51b815260206004820152602e60248201527f4261746368436f6e74726163743a205175616e74697479206d7573742062652060448201526d067726561746572207468616e20360941b6064820152608401610419565b6000855111610abd5760405162461bcd60e51b8152602060048201526024808201527f4261746368436f6e74726163743a2050726f64756374207479706520726571756044820152631a5c995960e21b6064820152608401610419565b60018054906000610acd83611910565b90915550506001546000610ae18233611261565b6040805161014081018252848152602081018a9052908101889052336060820152608081018790524260a082015290915060c081016000815260208082018490526040808301889052600160609093018390526000868152600283522083518155908301519091820190610b559082611977565b506040820151600282015560608201516003820180546001600160a01b0319166001600160a01b0390921691909117905560808201516004820190610b9a9082611977565b5060a0820151600582015560c082015160068201805460ff19166001836003811115610bc857610bc8611490565b021790555060e08201516007820190610be19082611977565b506101008201516008820190610bf79082611977565b5061012091909101516009909101805460ff19169115159190911790556040518290600390610c27908490611a37565b908152604080519182900360209081018320939093553360008181526004855291822080546001810182559083529390912090920184905583907fb6c12a73a4358cdb6fa7493b78211095a22b6e1b7c871991a809f3988160e4ad90610c94908b908b9087904290611a53565b60405180910390a35095945050505050565b60046020528160005260406000208181548110610cc257600080fd5b90600052602060002001600091509150505481565b6000918252602082815260408084206001600160a01b0393909316845291905290205460ff1690565b60008181526002602052604081206009015460ff168015610d3257506000828152600260208190526040909120015415155b80156103d15750506000908152600260205260409020600301546001600160a01b0316151590565b60026020526000908152604090208054600182018054919291610d7c906118a5565b80601f0160208091040260200160405190810160405280929190818152602001828054610da8906118a5565b8015610df55780601f10610dca57610100808354040283529160200191610df5565b820191906000526020600020905b815481529060010190602001808311610dd857829003601f168201915b5050505060028301546003840154600485018054949592946001600160a01b03909216935090610e24906118a5565b80601f0160208091040260200160405190810160405280929190818152602001828054610e50906118a5565b8015610e9d5780601f10610e7257610100808354040283529160200191610e9d565b820191906000526020600020905b815481529060010190602001808311610e8057829003601f168201915b50505050600583015460068401546007850180549495929460ff909216935090610ec6906118a5565b80601f0160208091040260200160405190810160405280929190818152602001828054610ef2906118a5565b8015610f3f5780601f10610f1457610100808354040283529160200191610f3f565b820191906000526020600020905b815481529060010190602001808311610f2257829003601f168201915b505050505090806008018054610f54906118a5565b80601f0160208091040260200160405190810160405280929190818152602001828054610f80906118a5565b8015610fcd5780601f10610fa257610100808354040283529160200191610fcd565b820191906000526020600020905b815481529060010190602001808311610fb057829003601f168201915b5050506009909301549192505060ff168a565b600082815260208190526040902060010154610ffb81611157565b61078383836111f6565b6001600160a01b03811660009081526004602090815260409182902080548351818402810184019094528084526060939283018282801561106557602002820191906000526020600020905b815481526020019060010190808311611051575b50505050509050919050565b600061107c81611157565b6107bc7fded9b5e0e0e3a2b3f09a0bc36ec64b9bf7a7c2319f3c4d9cff5ce48714257b2183611164565b6000806003836040516110b99190611a37565b90815260200160405180910390205490508060000361111a5760405162461bcd60e51b815260206004820152601e60248201527f4261746368436f6e74726163743a20496e76616c696420515220636f646500006044820152606401610419565b604051428152339082907ff524e27b08637aa17aa1970cc1a26bdca73b45d22d89bdbf0c9db2f03bc8bd879060200160405180910390a392915050565b61116181336112b0565b50565b60006111708383610cd7565b6111ee576000838152602081815260408083206001600160a01b03861684529091529020805460ff191660011790556111a63390565b6001600160a01b0316826001600160a01b0316847f2f8788117e7eff1d82e926ec794901d17c78024a50270940304540a733656f0d60405160405180910390a45060016103d1565b5060006103d1565b60006112028383610cd7565b156111ee576000838152602081815260408083206001600160a01b0386168085529252808320805460ff1916905551339286917ff6391f5c32d9c69d2a47ea670b442974b53935d1edc7fd64eb21e047a839171b9190a45060016103d1565b606061126c836112ed565b61127e836001600160a01b03166112ed565b611287426112ed565b60405160200161129993929190611a90565b604051602081830303815290604052905092915050565b6112ba8282610cd7565b6112e95760405163e2517d3f60e01b81526001600160a01b038216600482015260248101839052604401610419565b5050565b6060816000036113145750506040805180820190915260018152600360fc1b602082015290565b8160005b811561133e578061132881611910565b91506113379050600a83611b11565b9150611318565b60008167ffffffffffffffff811115611359576113596115ef565b6040519080825280601f01601f191660200182016040528015611383576020820181803683370190505b5090505b84156113ee57611398600183611b25565b91506113a5600a86611b38565b6113b0906030611b4c565b60f81b8183815181106113c5576113c5611b5f565b60200101906001600160f81b031916908160001a9053506113e7600a86611b11565b9450611387565b949350505050565b60006020828403121561140857600080fd5b81356001600160e01b03198116811461142057600080fd5b9392505050565b60006020828403121561143957600080fd5b5035919050565b60005b8381101561145b578181015183820152602001611443565b50506000910152565b6000815180845261147c816020860160208601611440565b601f01601f19169290920160200192915050565b634e487b7160e01b600052602160045260246000fd5b600481106114c457634e487b7160e01b600052602160045260246000fd5b9052565b60006101208b83528060208401526114e28184018c611464565b604084018b90526001600160a01b038a1660608501528381036080850152905061150c8189611464565b90508660a084015261152160c08401876114a6565b82810360e08401526115338186611464565b90508281036101008401526115488185611464565b9c9b505050505050505050505050565b80356001600160a01b038116811461156f57600080fd5b919050565b6000806040838503121561158757600080fd5b8235915061159760208401611558565b90509250929050565b6000602082840312156115b257600080fd5b61142082611558565b600080604083850312156115ce57600080fd5b823591506020830135600481106115e457600080fd5b809150509250929050565b634e487b7160e01b600052604160045260246000fd5b600082601f83011261161657600080fd5b813567ffffffffffffffff80821115611631576116316115ef565b604051601f8301601f19908116603f01168101908282118183101715611659576116596115ef565b8160405283815286602085880101111561167257600080fd5b836020870160208301376000602085830101528094505050505092915050565b600080600080608085870312156116a857600080fd5b843567ffffffffffffffff808211156116c057600080fd5b6116cc88838901611605565b95506020870135945060408701359150808211156116e957600080fd5b6116f588838901611605565b9350606087013591508082111561170b57600080fd5b5061171887828801611605565b91505092959194509250565b6000806040838503121561173757600080fd5b61174083611558565b946020939093013593505050565b60006101408c83528060208401526117688184018d611464565b604084018c90526001600160a01b038b16606085015283810360808501529050611792818a611464565b90508760a08401526117a760c08401886114a6565b82810360e08401526117b98187611464565b90508281036101008401526117ce8186611464565b9150508215156101208301529b9a5050505050505050505050565b6000602082840312156117fb57600080fd5b813567ffffffffffffffff81111561181257600080fd5b6113ee84828501611605565b6020808252825182820181905260009190848201906040850190845b818110156118565783518352928401929184019160010161183a565b50909695505050505050565b60208082526023908201527f4261746368436f6e74726163743a20426174636820646f6573206e6f742065786040820152621a5cdd60ea1b606082015260800190565b600181811c908216806118b957607f821691505b6020821081036118d957634e487b7160e01b600052602260045260246000fd5b50919050565b604081016118ed82856114a6565b8260208301529392505050565b634e487b7160e01b600052601160045260246000fd5b600060018201611922576119226118fa565b5060010190565b601f8211156107bc57600081815260208120601f850160051c810160208610156119505750805b601f850160051c820191505b8181101561196f5782815560010161195c565b505050505050565b815167ffffffffffffffff811115611991576119916115ef565b6119a58161199f84546118a5565b84611929565b602080601f8311600181146119da57600084156119c25750858301515b600019600386901b1c1916600185901b17855561196f565b600085815260208120601f198616915b82811015611a09578886015182559484019460019091019084016119ea565b5085821015611a275787850151600019600388901b60f8161c191681555b5050505050600190811b01905550565b60008251611a49818460208701611440565b9190910192915050565b608081526000611a666080830187611464565b8560208401528281036040840152611a7e8186611464565b91505082606083015295945050505050565b644e4545562d60d81b815260008451611ab0816005850160208901611440565b8083019050602d60f81b8060058301528551611ad3816006850160208a01611440565b60069201918201528351611aee816007840160208801611440565b0160070195945050505050565b634e487b7160e01b600052601260045260246000fd5b600082611b2057611b20611afb565b500490565b818103818111156103d1576103d16118fa565b600082611b4757611b47611afb565b500690565b808201808211156103d1576103d16118fa565b634e487b7160e01b600052603260045260246000fdfeeefb95e842a3287179d933b4460be539a1d5af11aa8b325bb45c5c8dc92de4eda2646970667358221220177fd6cb33e74f96ec21ddd4b90b9f177b2608e0eaaa627570a0fe303b2e568864736f6c63430008140033",
  "linkReferences": {},
  "deployedLinkReferences": {}
}